:100000000C942C040C9449040C9449040C94490459
:100010000C9449040C9449040C9449040C9449042C
:100020000C9449040C9449040C94CF2D0C94A12EEB
:100030000C9449040C9449040C9449040C9449040C
:100040000C9449040C94E4280C9449040C9449043D
:100050000C9449040C9417240C9449040C944904FE
:100060000C9449040C9449040C9449040C944904DC
:100070000C9449040C9449040C9449040C944904CC
:100080000C9449040C9449040C9449040C944904BC
:100090000C9449040C9449040C9449040C944904AC
:1000A0000C9449040C9449040C944904DA04DD04CA
:1000B000E004E304E604E804EB04ED07F307F707C4
:1000C000FA07FE07020806080A080F0813081708AF
:1000D0001B081E08220826082A082E08330859196A
:1000E000591993199319CA19EC19551BB61B321AD1
:1000F000B61BD91AD91A4E1BB61BB61BB21BE61A71
:10010000E61AE61AE61AE61AE61AE61AE61AE61AEF
:10011000E61AE61AE61AE61AE61AE61AE61AF81ACD
:10012000061B0D1B141B1E1B4A1C4A1C5D1C5D1C60
:10013000531C5D1C5D1C5D1C4A1C4A1C591C5D1C2B
:100140005D1C591C062F2D2F1B302D2F1B30752F9A
:10015000982F1B30EE2FFD2F07634236B79BD8A791
:100160001A39685618AEBAAB558C1D3CB7CC5763DC
:10017000BD6DEDFD753EF6177231BF000000803F8A
:1001800005A84CCDB2D44EB93836A9020C50B9915D
:100190008688083CA6AAAA2ABE000000803F02E08A
:1001A0006203E05B000000F0A12E002B00E000E104
:1001B00000290000001E00140004001D003500DAB4
:1001C0005C1F001A0016001B0049004C00200008AC
:1001D000000700060050002A002100150009001940
:1001E000004F002B00220017000A0005000000E06D
:1001F00000005701510000000F0000E200015716F7
:100200005C0000E6000000E30023001C000B00116E
:10021000000000E400240018000D00100051004B05
:100220000025000C000E00360052002C00260012A3
:10023000000F0037002F002800270013003300387C
:100240000030004E002D0031003400E50002510066
:10025000004600470048000100010000003A001E6F
:100260000220022202010001003B001F0250002375
:1002700002010001003C00520051002F000100016A
:10028000003D0030024F003000010001003E00310F
:1002900002350035020000E000010001000000010D
:1002A000000000E20001000100000001000000E386
:1002B000003F005200510024020000E400400024EE
:1002C0000021001E00010001004100250022001F46
:1002D00000370027004200260023002000270001ED
:1002E00000430025022E0231002E0001004400458B
:1002F00000010001000100000001000100010001F7
:1003000000010000000100010001000100010047A0
:100310000001000100F2000100010001000100F0F5
:1003200000F1000100F400010001000100F30001F0
:1003300000F500480001000100010001000000017B
:1003400000010001000000010000000100010001A7
:1003500000000001000000E30001000100010001B5
:1003600000000001000100010001000100A90001DE
:1003700000010001000100AC00AA00B6000100016C
:10038000000100AB00A80001000100010001000114
:10039000000100010001000100AE000100010000A9
:1003A0000001000100010001000100000001000146
:1003B00000010001000100010001000100F2000144
:1003C00000010001000100F000F1000100F4000153
:1003D0000001000100F3000100F50001000100012F
:1003E0000001000100000001000100010000000107
:1003F00000000001000100010000000100000001F8
:1004000000010017000A00050000000100010015AE
:1004100000090019000100010001000800070006A2
:10042000000100010001001A0016001B000100017C
:10043000000100140004001D000100010001000182
:1004400000010001000100000000000000000000A9
:10045000002A2B280000000000000000000000001F
:100460000000000029000000002C1E34202122245E
:10047000342627252E362D3738271E1F20212223EC
:100480002425263333362E37381F0405060708097E
:100490000A0B0C0D0E0F1011121314151617181944
:1004A0001A1B1C1D2F3130232D35040506070809A2
:1004B0000A0B0C0D0E0F1011121314151617181924
:1004C0001A1B1C1D2F3130354C00000000000000AD
:1004D000000000000000000000000000000000001C
:1004E0000000000000000000000001010101010106
:1004F00000010101010000000000000000000000F8
:1005000000000001000100010101010101010101E0
:1005100001010101010101010101010101010101CB
:1005200001010101000000010100000000000000C5
:1005300000000000000000000000000000000000BB
:100540000000000001010101006801F000B4007822
:10055000005A007F3F1F643214643214783C1E1E20
:10056000140A050000000000010101010101010160
:100570000102020202020202020203030303030356
:100580000303040404040404050505050506060622
:10059000060607070707080808080909090A0A0ADA
:1005A0000A0B0B0B0C0C0C0D0D0D0E0E0F0F0F107C
:1005B0001011111112121313141415151616171702
:1005C000181819191A1A1B1C1C1D1D1E1F1F20206C
:1005D0002122222324252526272728292A2B2B2CB4
:1005E0002D2E2F2F30313233343536363738393AD5
:1005F0003B3C3D3E3F4041424344464748494A4BCD
:100600004C4D4F50515253555657585A5B5C5E5F94
:10061000606263646667696A6C6D6E70717374762C
:1006200078797B7C7E8081838486888A8B8D8F918C
:10063000929496989A9B9D9FA1A3A5A7A9ABADAFB5
:10064000B1B3B5B7B9BBBDBFC1C4C6C8CACCCFD1A1
:10065000D3D6D8DADCDFE1E4E6E8EBEDF0F2F5F74B
:10066000FAFCFF0000000000000000000000010292
:1006700004060A0F17202C3A4A5D71879DB3C7DA2A
:10068000E9F5FCFFFCF5E9DAC7B39D87715D4A3AED
:100690002C20170F0A0604020100000000000000D1
:1006A00000000004033000000016034500720067DC
:1006B000006F0044006F007800200045005A0000E1
:1006C0000016034500720067006F0044006F007859
:1006D00000200045005A0000000403090409026DCF
:1006E00000040100A0FA090400000103010100094F
:1006F00021110100012240000705810308000A09B9
:100700000401000103010200092111010001224D31
:10071000000705820308000A090402000103000023
:10072000000921110100012236000705830308009A
:100730000A0904030001030000000921110100015E
:100740002239000705840320000112011001000076
:100750000008EDFE0713010001020301050109066F
:10076000A101050719E029E7150025019508750184
:100770008102050819012905950575019102950168
:10078000750391010507190029F71500250195F852
:1007900075018102C005010980A1018502160100D1
:1007A0002603001A81002A8300751095018100C07C
:1007B000050C0901A1018503160100269C021A01FE
:1007C000002A9C02751095018100C005010902A153
:1007D000010901A100050919012905150025019547
:1007E0000575018102950175038101050109300933
:1007F000311581257F9502750881060938158125F7
:100800007F950175088106050C0A38021581257F40
:10081000950175088106C0C005010906A1010507FB
:1008200019E029E715002501950875018102950158
:1008300075088101050819012905950575019102C1
:100840009501750391010507190029FF150026FF81
:1008500000950675088100C011241FBECFEFDAE0B5
:10086000DEBFCDBF12E0A0E0B1E0EEEAF7E602C0E5
:1008700005900D92A430B107D9F713E0A4E0B2E0DF
:1008800001C01D92A63EB107E1F70E94F72A0C9421
:10089000D5330C9400001092B9008AE08093B80020
:1008A000089594EA9093BC009091BC0097FFFCCF10
:1008B0009091B900987F983021F0903111F081E04B
:1008C00008958093BB0084E88093BC008091BC00B5
:1008D00087FFFCCF8091B900887F883111F0803488
:1008E00071F780E0089584E98093BC008091BC009A
:1008F00084FDFCCF08958093BB0084E88093BC0006
:100900008091BC0087FFFCCF9091B900987F81E077
:10091000983209F480E0089584E88093BC008091C7
:10092000BC0087FFFCCF8091BB00089580B38C7022
:1009300080BB81B3836F81BB089584B1807F84B90C
:1009400085B1807F85B98AB1837F8AB98BB1837F76
:100950008BB93E9846980895CF93C82F873000F5FD
:1009600080910001811139C080E40E94510480937C
:100970000001811112C082E10E947B04809300017A
:1009800081110BC081E090E001C0880FCA95EAF7A1
:1009900080950E947B0480930001CF910C94730496
:1009A00090E0FC013797E730F105B8F4EA5AFF4FC1
:1009B0000C948733209A289810C0219A29980DC04A
:1009C000229A2A980AC0239A2B9807C0529A01C0EB
:1009D000539A5B9802C03E9A4698CF910895CF9360
:1009E000873018F580910001811128C080E40E94B1
:1009F000510480930001882311F0C0E012C083E10C
:100A00000E947B04809300018111F7CF81E40E9452
:100A10005104809300018111F0CF0E948C04C82FF3
:100A2000C0950E9473048C2F0AC09FB18FB1807F44
:100A3000869586959370892B809501C080E0CF9133
:100A400008950C94D3060E946906809300010E94C9
:100A50009D040E949604E9E5F2E025E032E011925F
:100A600080E090E0D901A80FB91F1C920196863052
:100A70009105C1F72A5F3F4F82E0E736F80779F723
:100A80000C94850A0E946906809300010E949D04CF
:100A90000E949604E9E5F2E0119282E0E736F80759
:100AA000D9F7089596E0899FA001112420E030E055
:100AB00080E04B5F5D4F61E070E0FA01E20FF31FF1
:100AC0009081992319F09150908307C0FB01022E69
:100AD00001C0EE0F0A94EAF78E2B2F5F3F4F2630AE
:100AE000310559F7089596E0699FB001112420E07F
:100AF00030E090E06B5F7D4FAFE0AC01022E02C0B2
:100B0000559547950A94E2F740FF04C0FB01E20FB8
:100B1000F31FA0832F5F3F4F2630310571F70895F3
:100B2000CF92DF92EF92FF920F931F93CF93DF93B9
:100B300080910001882379F0809104028F5F809377
:100B40000402811108C00E9469068093000181118E
:100B500002C00E94FB0509E512E0C0E6D2E0F12CDC
:100B60008F2D0E94AC0487E0D82EDF0C8D2D0E94C3
:100B7000AC048F2D0E945205C82E8F2D0E94EF04C9
:100B8000F8019081EC2CE094E9228C21E82A6F2D69
:100B90008E2D89270E947305F801E1928F018D2D1A
:100BA0000E945205C82E8D2D0E94EF049881EC2CD6
:100BB000E094E9228C21E82A6D2D8E2D89270E9450
:100BC0007305E9920E949D04F394F7E0FF12C8CFE9
:100BD0000E94870A81E0DF91CF911F910F91FF90D2
:100BE000EF90DF90CF900895E82FF0E0E75AFD4FA7
:100BF00080810895089556985E9825982D98269896
:100C00002E9827982F988FEF90E0909389008093EB
:100C1000880090938B0080938A0090938D0080933E
:100C20008C00259A2D9A2FEF80E792E0215080408A
:100C30009040E1F700C00000269A2E9A2FEF80E73F
:100C400092E0215080409040E1F700C00000279AD8
:100C50002F9A2FEF80E792E0215080409040E1F7FB
:100C600000C0000025982D982FEF80E792E02150DA
:100C700080409040E1F700C0000026982E982FEFAA
:100C800080E792E0215080409040E1F700C00000F2
:100C900027982F9856985E9825982D9826982E98E4
:100CA00027982F98089589EA8093800089E080939F
:100CB000810024982C983F988AB18F7C8AB96E98CD
:100CC000479A8BB180638BB9769A0E94FB050C948E
:100CD000D20680E2809300018091670281110EC0EC
:100CE0000E944B0481E0809367022FEF83ED90E335
:100CF000215080409040E1F700C0000080E40E9455
:100D000051048093000181112EC00E947B048093C6
:100D10000001811128C00E947B0480930001811191
:100D200022C08FE30E947B048093000181111BC0CD
:100D30000E94730480E40E94510480930001811199
:100D400012C08CE00E947B048093000181110BC0D3
:100D50000E947B0480930001811105C08FE30E94F3
:100D60007B04809300010E94730480910001089528
:100D700008950895FB012281222389F0883DFCE536
:100D80009F0770F08A3D3CE5930738F08A3D9C450B
:100D900039F48EE991E00E94820A20E001C021E04E
:100DA000822F0895089560912D0370912E038091F4
:100DB0002F03909130030E94A32256985E982598A5
:100DC0002D9826982E9827982F98823039F08330C6
:100DD00041F0813041F4259A2D9A05C0269A2E9A29
:100DE00002C0279A2F9A80917C028823B9F18091C2
:100DF0007A0290917B020E94EE238D32914070F135
:100E000010927C020E940E0D8091700290917102EE
:100E1000099721F58091720290917302892BF1F468
:100E20008091740290917502892BC1F480917602B1
:100E300090917702892B91F48091780290917902B8
:100E4000892B61F481EE0E94991788E30E9499171B
:100E500088E30E94A81881EE0C94A818089581E0F8
:100E600008950C94BA060E94381C2FEF84E39CE08E
:100E7000215080409040E1F700C000000C943D24D8
:100E8000FF920F931F93CF93DF938C01FC01C081DE
:100E9000D1818091BB02811113C08281882349F0E6
:100EA000CE010E949221F82E682FCE010E94362199
:100EB00004C0CE010E946521F82EBE018F2D04C012
:100EC000CE010E949221BE010E94A20AEC01B8014B
:100ED0000E942D15B801CE010E943107882309F424
:100EE000B1C2B801CE010E946E15882309F4AAC2CE
:100EF000B801CE010E940F0D882309F4A3C2B801E6
:100F0000CE010E945B0D882309F49CC2C83CFCE51D
:100F1000DF0741F4F8018281882309F493C20E941B
:100F2000B51090C2C93C8CE5D80708F039C1C13C66
:100F30009CE5D90761F4F8018281882309F482C213
:100F40000E9464228272E1F00E9456117BC2C23C70
:100F5000ECE5DE07C0F0C43C9CE5D90709F4F1C01C
:100F600008F003C1C23CFCE5DF0709F0F2C0F8015C
:100F70008281882309F466C20E946422827221F36E
:100F80000E944C115FC2C531FCE5DF0708F0A4C028
:100F9000C2308CE5D80708F478C0F8018281882334
:100FA00009F47FC00E941723811102C00E94F6221B
:100FB0000E942A2390E09093D8038093D703FE01E8
:100FC000E350FC45E231F10520F4E35AFF4F0C9465
:100FD00087338091D703816003C08091D7038260FB
:100FE0008093D7034BC08091D7038460F9CF809161
:100FF000D70313C08091D7038061F2CF8091D703CC
:101000008062EECF8091D7038064EACF8091D703CE
:101010008068E6CF8091D70384608860E1CF8091BB
:10102000D7038E7FDDCF8091D7038D7FD9CF80917D
:10103000D7038B7FD5CF8091D70313C08091D7037F
:101040008F7ECECF8091D7038F7DCACF8091D7037B
:101050008F7BC6CF8091D7038F77C2CF8091D70384
:101060008B7F877FBDCF9091D70397FB882780F92F
:1010700021E0822780FB97F99093D7038091D703D3
:101080000E942E230E94381CDDC1C1159CE5D907A2
:1010900081F0C130DC45A9F081E080936D0280933E
:1010A0006E02C801DF91CF911F910F91FF900C94B8
:1010B0002F07F8018281882309F4C4C10E943307F5
:1010C000C1C1F8018281882309F4BCC180915A030F
:1010D000816080935A03B6C1C531FCE5DF0729F56D
:1010E0000E946422382FF801228180912C01909176
:1010F0002D01222371F03A7A21E009F420E02093B7
:101100006802222311F065E301C069E20E949A237C
:1011100009C020916802222311F065E301C069E251
:101120000E94A5230E9431228DC1C03CDC4509F0FC
:10113000B3CFF8018281882309F484C10E949311FE
:1011400081C1F8018281882309F47CC10E94571073
:1011500079C1C33CDC4509F09FCFF8018281882327
:1011600009F470C10E943E106DC1F8018281C63C35
:10117000FCE5DF0731F4882309F464C10E9488107C
:1011800061C1C73CDC4530F4882309F45BC10E948F
:10119000761058C1882309F455C10E949A1052C193
:1011A000CF3CECE5DE0749F4F8018281882309F49D
:1011B00049C188E10E94CF1045C1C03DFCE5DF0771
:1011C00008F088C0CB3C8CE5D807B1F4F8018281E7
:1011D000882309F437C10E940B0F66307105810521
:1011E000910540F00E940B0F683071058105910553
:1011F00008F4C6CE86E0DECFCC3C9CE5D90728F5C6
:10120000C93CECE5DE0739F4F8018281882309F452
:1012100019C181E0CFCFCA3CDC4509F03DCFF801D0
:101220008281882309F40EC10E940B0F6230710580
:101230008105910540F00E940B0F65307105810515
:10124000910508F49DCE82E0B5CFF8018281CD3CB6
:10125000FCE5DF07A1F4882309F4F4C00E940B0F1A
:101260006F3071058105910540F00E940B0F6431CC
:1012700071058105910508F483CE8FE09BCFCE3CAC
:10128000DC45A0F4882309F4DDC00E940B0F69300F
:1012900071058105910540F00E940B0F6E307105BC
:1012A0008105910508F46CCE89E084CF882309F488
:1012B000C9C00E940B0F653171058105910540F091
:1012C0000E940B0F673171058105910508F458CE16
:1012D00085E170CFC23DECE5DE0781F5F801828142
:1012E000882361F010926E020E94E22390936C02B8
:1012F00080936B0280E20E940919A4C00E946422BC
:1013000081FF05C081E080936D0280936E02809121
:101310006E0281110FC080916B0290916C020E944D
:10132000EE23883C910530F487E20E94991787E20A
:101330000E94A81880E20E94101984C0C33DFCE5F9
:10134000DF0708F04AC0C03D8CE5D807B1F4F801CA
:101350008281882309F476C00E940B0F69317105E0
:101360008105910540F00E940B0F623271058105E5
:10137000910508F405CE89E11DCFC13DDC4509F09A
:101380008BCEF8018281882351F010926D020E9469
:10139000E22390936A028093690282E0ACCF0E94BC
:1013A000642285FF05C081E080936D0280936E0208
:1013B00080916D0281110FC08091690290916A0243
:1013C0000E94EE23883C910530F486E20E94991732
:1013D00086E20E94A81882E0AECFC63DECE5DE07AB
:1013E00031F4F8018281882369F180E009C0C73DAA
:1013F000FCE5DF0741F4F8018281882319F182E0DE
:101400000E94952B1FC0C33DDC4509F045CEF80175
:101410008281811167CF80916E0281118BCF809183
:101420006B0290916C020E94EE23883C910508F0BB
:1014300081CF80E20E94101988E20E94991788E209
:101440000E94A81880E0DF91CF911F910F91FF902B
:101450000895CF93282F30E0F901E75BFB4FC4914B
:10146000F901E753FB4F2491222359F081EE0E94AA
:1014700099178C2F0E9499178C2F0E94A81881EE23
:1014800004C08C2F0E9499178C2FCF910C94A81810
:101490000F931F93CF93DF93EC01062FFE018491EE
:1014A000882359F19E012F5F3F4F813041F4E901BC
:1014B000F9011491812F0E949917812F0DC082305C
:1014C00031F4E901F90184910E9499170AC083302F
:1014D00031F4E901F90184910E94A81802C00E9428
:1014E000290A2196802F8823C9F2EFE9FFE031977E
:1014F000F1F700C000008150F6CFDF91CF911F912E
:101500000F91089560E00C94480A0C9453060E94D1
:10151000C5150C942105282F2F7041F0822F90E0E3
:101520002A3010F44D9608950697089587E290E0CA
:10153000089508950C94990A0C949A0A80E090E01A
:101540000895089596E0799FF001112494E5899F0C
:10155000E00DF11D1124E60FF11DEE0FFF1FE75501
:10156000FE4F859194910895880F991F8B559E4F3A
:10157000FC01859194910895CF93DF930E94A20A74
:101580000E946E0CEC01811520E5920708F040C026
:10159000811530E4930708F023C1883E910508F5D2
:1015A000803E910508F096C1883A910578F4853A15
:1015B000910508F0A5C08130910509F48BC108F4AC
:1015C00042C18430910508F085C13DC18D3B910534
:1015D00008F4A1C0803C910508F435C1805C9109F4
:1015E000F1C0C11580E2D80758F4C11591E0D907C0
:1015F00008F070C1C03FD10508F425C1D0656AC1AB
:10160000C11520E3D20708F0E1C0CE019F70DAC017
:10161000811535E5930708F043C0C11584E5D80767
:1016200008F0F5C0C11592E5D90708F5C11521E507
:10163000D20708F0D8C02C2F237081E090E002C0C0
:10164000880F991F2A95E2F79C689E01E4E0369581
:101650002795EA95E1F72370922BCF70C695C69532
:1016600030E2C39FE0011124C82BD92B33C18C2F4A
:10167000869586959E0123703327C115D34508F0C2
:10168000B7C090E2899FE001112481E090E002C0A0
:10169000880F991F2A95E2F7C82BD92BDC681AC14D
:1016A00081152AE59207A0F4811539E5930708F022
:1016B000B9C0C11586E5D80708F4AEC0C11598E5D4
:1016C000D90708F4C0C0DC2FCC27C06FD06A02C194
:1016D00081152BE5920708F4B6C081153CE5930708
:1016E00008F4AEC090568115904208F0ACC08D2F22
:1016F0008F710E94EA0CDD27D0628F71D82BEAC06F
:10170000853A910509F4A2C0863A910509F4A1C071
:10171000C3E8D0E4DFC0883A910509F49DC0893A56
:10172000910509F49CC08A3A910509F49BC08B3A53
:10173000910509F49AC08C3A910509F499C08B3B44
:10174000910509F498C08C3B910509F497C08D3A36
:10175000910509F496C0803B910509F495C08E3A35
:10176000910509F494C08F3A910509F493C0813B27
:10177000910509F492C0823B910509F491C0833B25
:10178000910509F490C0843B910509F48FC0853B15
:10179000910509F48EC0863B910509F48DC0873B05
:1017A000910509F48CC0883B910509F48BC0893BF5
:1017B000910509F48AC08A3B910509F089C0CAE203
:1017C000D6E488C00E94B40AEC0184C0CE019927F7
:1017D000D3FF03C0EC01D86C7DC0EC01D06C7AC0A3
:1017E000DF70D06A77C0DC2FCC27C16FD06A72C09F
:1017F00090E2899FE001112481E090E002C0880F0F
:10180000991F2A95E2F7C82BD92BDA6863C0DC2F21
:10181000CC27C46FD06A5EC0CF71DD27DC2FCC2708
:10182000D06258C08F70806E90E0906A34E0D69598
:10183000C7953A95E1F7CF709C013C2BE9014AC06E
:10184000DD27D06647C0C0E0D0E044C0C1E8D0E4A6
:1018500041C0C2E8D0E43EC0C2EED4E43BC0C9EE11
:10186000D4E438C0CAEED4E435C0C5EBD4E432C009
:10187000C6EBD4E42FC0C3EBD4E42CC0C4EBD4E457
:1018800029C0C7EBD4E426C0CCECD4E423C0CDEC13
:10189000D4E420C0C3E8D5E41DC0CAE8D5E41AC02A
:1018A000C2E9D5E417C0C4E9D5E414C0C1E2D6E466
:1018B00011C0C3E2D6E40EC0C4E2D6E40BC0C5E258
:1018C000D6E408C0C6E2D6E405C0C7E2D6E402C04A
:1018D000C0E0D4E4CE01DF91CF9108958238910524
:1018E00049F1B0F48133910509F459C048F48932C3
:1018F000910509F44FC08A32910509F455C0089545
:101900008533910509F441C08933910599F0089513
:10191000833E910531F138F4803E910591F0823E8D
:101920009105A9F00895863E910501F1873E910544
:1019300039F108952091D70320FD3BC021FD39C026
:1019400008958091D70380FF34C089E341C080911E
:10195000D70382FF32C08091D70384FF2CC080E080
:1019600037C08091D70382FD28C0F5CF8091D7037F
:1019700083FF25C08091D70384FDF1CF87EE28C077
:101980008091D70383FD1BC0F5CF8091D70385FFDE
:1019900018C019C08091D70385FF15C012C080916F
:1019A000D70386FF12C013C08091D70386FF0FC0F4
:1019B0000CC080EE0DC083EE0BC082EE09C086EE37
:1019C00007C085E305C089E203C081E301C08AE264
:1019D00090E008959091D70392FF0DC0282F2871B1
:1019E000283019F4877F846006C0282F24712430A2
:1019F00011F48B7F886093FF0DC0282F2871283148
:101A000019F4877E846106C0282F2471243111F4D3
:101A10008B7E886194FD877E089508950895CF9305
:101A2000DF93EC01FB018281811102C081E040C0A3
:101A300080917C02811125C0C631DC45B9F70E9436
:101A40000D0D81E080937C020E94E22390937B0243
:101A500080937A0210926F021092710210927002BB
:101A60001092730210927202109275021092740218
:101A700010927702109276021092790210927802F8
:101A800016C080917A0290917B020E94EE23883CDE
:101A9000910560F680916F02E82FF0E0EE0FFF1FD6
:101AA000E059FD4FD183C0838F5F80936F0280E048
:101AB000DF91CF910895CF93DF93EC01C13080E89F
:101AC000D807C8F0FB0182818823A9F080917D02AC
:101AD000811109C08CE090E00E948D330E947F0D3F
:101AE00081E080937D020E94860DCE019F770E9447
:101AF0004E0E0E94020E81E0DF91CF9108958093F7
:101B00007E02682F8CE090E00C94A133E0912C01D0
:101B1000F0912D01808180938C0381FF03C081EEC1
:101B20000E94A81880918C0385FF03C085EE0E9457
:101B3000A81880918C0380FF03C080EE0E94A81833
:101B400080918C0384FF03C084EE0E94A8188091CA
:101B50008C0382FF03C082EE0E94A81880918C0340
:101B600086FF03C086EE0E94A81880918C0383FF35
:101B700003C083EE0E94A81880918C0387FF03C0E6
:101B800087EE0E94A81880917E02823001F1A8F4AD
:101B90008823C9F0813079F580EE0E94991781EE93
:101BA0000E94991788E10E94991788E10E94A8185D
:101BB00081EE0E94A81880EE1CC0843081F0853030
:101BC000D1F486EE01C082EE0E94991714C082EE15
:101BD0000E94991787E50E94991787E50AC086EE4B
:101BE0000E94991786EE0E94A81888E10E94991712
:101BF00088E10E94A8188FE39CE90197F1F700C0E3
:101C00000000089580917E02813049F030F08230EA
:101C100021F0853051F486EE06C082EE04C08CE2DD
:101C20000E9499178CE20E94A81880918C0381FF72
:101C300003C081EE0E94991780918C0385FF03C039
:101C400085EE0E94991780918C0380FF03C080EE7F
:101C50000E94991780918C0384FF03C084EE0E9438
:101C6000991780918C0382FF03C082EE0E9499171E
:101C700080918C0386FF03C086EE0E9499178091A5
:101C80008C0383FF03C083EE0E94991780918C031D
:101C900087FF03C087EE0C9499170895FF920F9366
:101CA0001F93CF93DF938C01CCE0D0E0C8010C2EC2
:101CB00002C0969587950A94E2F7282F2F70F22E8E
:101CC000822F0E948B0A0E9499178F2D0E948B0AE7
:101CD0000E94A8182497CC3F8FEFD80739F7DF91DF
:101CE000CF911F910F91FF900895DF92EF92FF9295
:101CF0000F931F93CF93DF93662309F44AC0E42F19
:101D0000F0E0AFEFB0E0A61BB109BF01A69FE00174
:101D1000A79FD00DB69FD00D1124FD2FDD2E7B0186
:101D2000ED1AF1080CE310E0B8010E945F33EB01FB
:101D3000BC01E69EC001E79E900DF69E900D112419
:101D4000B8010E945F33C230D105B1F040F4209752
:101D500079F0219709F58F2FD42E461B20C0C4306F
:101D6000D10599F068F02597B9F4842F861B17C028
:101D70008F2FD62EDF0E13C0862F8F0FD42E03C0C9
:101D8000D42ED61A842F4F2F0AC0842F462F4F0FE0
:101D900006C0842FD42E03C080E0D12C40E0E42F75
:101DA000F0E0ED59FA4F4491ED2DF0E0ED59FA4F86
:101DB0009491E82FF0E0ED59FA4FE491D901119692
:101DC0004C9311979C931296EC93DF91CF911F91B6
:101DD0000F91FF90EF90DF90089588E090E00C94D1
:101DE0009533AB01BC0188E090E00C94B33383E001
:101DF00080938D0310928E038FEF80938F038093D7
:101E0000900360918D0370918E0380918F03909168
:101E100090030C94F10E60918D0360FF06C06695EF
:101E20006F7370E080E090E0089560E070E0CB01B7
:101E3000089580918D0380FF06C06FE070E085E912
:101E400093E00C949B14E7E9F3E0DF0111971C92F7
:101E5000DF0112971C921082349683E0E33DF8076D
:101E6000A1F7EBCF90918D0390FF10C0E7E9F3E06D
:101E7000DF0111978C93DF0112976C9340833496A6
:101E800093E0E33DF907A1F70C94190F0895CF9261
:101E9000DF92EF92FF920F931F93CF93DF9300D0C7
:101EA00000D0CDB7DEB7F82EC92ED62EE42E009185
:101EB0008D0310918E0320918F0330919003009336
:101EC0009103109392032093930330939403809192
:101ED0008D0380FF1EC09E012F5F3F4F8F2D0E94FC
:101EE000750E80919103F0FA87F980939103F6942F
:101EF0002091920320782F29C0FA27F9209392038A
:101F0000D0929303E09294034B8169818A810E946D
:101F1000320F0F900F900F900F90DF91CF911F9184
:101F20000F91FF90EF90DF90CF9008958F929F9246
:101F3000AF92BF92CF92DF92EF92FF920F931F93D7
:101F4000CF93DF93EC01862E942E80918D0380FF3A
:101F500088C0982F9E77923021F4CE010E94470FBF
:101F600056C0E82FE695EF739EE39E0F9F73943063
:101F700018F4909090034BC09AE39E0F9F73993092
:101F800070F4881F8827881F90918E03292F220FB5
:101F9000C22FC82B97FB992790F9D92F38C087E219
:101FA0008E0F8F738A3098F5F0E07997E0FF02C0CA
:101FB0002FEF01C021E0EE7FE75BFA4F859194910E
:101FC0006FE070E00E945F3326036001279FD00C12
:101FD00011247E0188E9E81A8EEFF80A05E913E07A
:101FE00088E6A82EBB24B394C701B5010E945F33D5
:101FF0009801492D682D0E94750EEC0CFD1C0C5F9C
:102000001F4F93E0013D190779F70E94190F809146
:102010008D039C2FC0FB87F980938D03969580914B
:102020008E038078892BD0FB87F980938E03809272
:102030008F039092900360918D0370918E03809135
:102040008F0390919003DF91CF911F910F91FF909B
:10205000EF90DF90CF90BF90AF909F908F900C94B7
:10206000F10EDF91CF911F910F91FF90EF90DF90D4
:10207000CF90BF90AF909F908F90089520918D0347
:10208000221F2227221F30918E03432F440F842FBB
:10209000822B37FB992790F90C9668E671E00E9435
:1020A00073334091900360918F030C94960F2091AD
:1020B0008D03221F2227221F30918E03432F440FAE
:1020C000842F822B37FB992790F98C3091051CF4D3
:1020D000845A9E4F01C00C9768E671E00E947333EA
:1020E0004091900360918F030C94960F80918D0323
:1020F000881F8827881F90918E03292F220F97FB16
:10210000992790F9409190036FEF822B0C94960FD2
:1021100080918D03881F8827881F90918E03292F17
:10212000220F97FB992790F94091900360E0822B52
:102130000C94960F40919003842F90E0843F91057A
:1021400014F4445F01C04FEF80918D03881F8827EE
:10215000881F90918E03292F220F97FB992790F9C2
:1021600060918F03822B0C94960F40919003842FE3
:1021700090E00C9714F04C5001C040E080918D032A
:10218000881F8827881F90918E03292F220F97FB85
:10219000992790F960918F03822B0C94960F909160
:1021A0008D0390FF44C09178811102C0926003C0FA
:1021B000833220F0946490938D0305C08F73880F51
:1021C000892B80938D0360918D0370918E03809194
:1021D0008F03909190030E94F10E80918D03982FB0
:1021E0009E77923019F41092940210C0982F969511
:1021F0009F732EE3290F2F73273120F491E09093E2
:10220000940204C0995D9F739A3068F3881F8827F1
:10221000881F90918E03292F220F97FB992790F901
:102220004091900360918F03822B0C94960F089538
:1022300080915A03816080935A0381E080939502D4
:102240000E941723811104C00E94F6220E94F70EFB
:102250000E94ED0E60938D0370938E0380938F0325
:10226000909390036E7761F40E94F70E0E94ED0E3A
:1022700060938D0370938E0380938F0390939003EC
:1022800081E08093940280918D0380FF04C0869545
:102290008F730C94CF10089580918D0386958F7362
:1022A0008F5F833208F081E00C94CF1080918D0312
:1022B00086958F73815009F482E20C94CF10CF93EE
:1022C000DF93CDE8D3E088818160888360918D03BE
:1022D00070918E0380918F03909190030E94F10E74
:1022E000888186958F73DF91CF910C94CF10EDE8A4
:1022F000F3E080818E7F808360918D0370918E03E7
:1023000080918F03909190030E94F10E109294029D
:102310002FEF80E792E0215080409040E1F700C02D
:1023200000000C94190F80918D0380FD0C9477119F
:102330000C945F11CF93C82F8091920290919302D9
:102340000E94EE23EC2FF0E0E15AFA4FE491F0E026
:102350008E179F0708F442C00E94E22390939302D5
:10236000809392026091910270E080E090E00E9480
:102370007D3120E030E04FE753E40E94B6302BED92
:102380003FE049E450E40E949E320E9401330E94E3
:1023900023312BE43AE34EE25FE30E94513020EF19
:1023A0003BEF48ED52E40E949E320E944F31462F8F
:1023B00080918D03881F8827881F90918E03292F75
:1023C000220F97FB992790F960918F03822B0E942F
:1023D000470F809191028F5F80939102CF91089572
:1023E000CF93C82F80918F02909190020E94EE238C
:1023F000EC2FF0E0E45AFA4FE491F0E08E179F07DB
:10240000E8F00E94E2239093900280938F02409123
:10241000900360918F0380918D0290918E020E94B3
:10242000470F80918D0290918E02019668E671E0CF
:102430000E945F3390938E0280938D02CF91089516
:10244000DF92EF92FF920F931F93CF93DF93D82EDB
:1024500080918B0290918C020E94EE23ED2DE695E7
:10246000F0E0E75AFA4FE491F0E08E179F07E8F1A9
:102470000E94E22390938C0280938B0205E913E083
:10248000C0E0D0E098E6E92EFF24F3948091890221
:1024900090918A028C0F9D1FB7010E945F339801B3
:1024A0004091900360918F030E94750E68960C5FB7
:1024B0001F4FC83681E0D80749F70E94190F2091B5
:1024C000890230918A02D0FE0AC0C9010196BE017C
:1024D0000E945F3390938A028093890206C0215044
:1024E000310930938A0220938902DF91CF911F91A5
:1024F0000F91FF90EF90DF900895AF92BF92CF922F
:10250000DF92EF92FF920F931F93CF93DF93C82F29
:1025100080FD03C0BB24B39402C0BB24BA94809155
:102520008702909188020E94EE23C695EC2FF0E07E
:10253000EA5AFA4FE491F0E08E179F0708F466C05C
:102540000E94E223909388028093870245E9E42E5B
:1025500043E0F42E07E913E0C0E0D0E0F801319742
:102560001082F7011082F801108234E0C32ED12CC2
:10257000A12C809186028A0D87FD815F992787FDB6
:102580009095C817D907E9F4809190038C9DA0011C
:102590008D9D500D112455954795559547958091E2
:1025A0008D03881F8827881F90918E03592F550F00
:1025B00097FB992790F9970160918F03852B0E94D3
:1025C000750EAB0CF1E0CF1AD108C114D10489F615
:1025D000219684E0E80EF11C0C5F1F4FCF30D1052F
:1025E00009F0BCCF0E94190F8091860291E0B912C8
:1025F00006C0811102C08EE007C0815005C090E086
:102600000196BE010E94733380938602DF91CF91C1
:102610001F910F91FF90EF90DF90CF90BF90AF9000
:1026200008950F931F93CF93DF93C82F8091840257
:10263000909185020E94EE23EC2FF0E0ED5AFA4FC4
:10264000E491F0E08E179F0708F466C00E94E22331
:102650009093850280938402E7E9F3E0DF0111970C
:102660001C92DF0112971C921082349683E0E33DA6
:10267000F807A1F7C0E0D0E00FE010E0CE01B8010C
:102680000E94733320918302332727FD3095880FF2
:10269000991F880F991FC217D307FCF020912A01B8
:1026A000332727FD30952C173D07BCF09C012B5696
:1026B0003C4F80918D03881F8827881F90918E033F
:1026C000592F550F97FB992790F9409190036091EE
:1026D0008F03852B0E94750E06C0FC01EB56FC4F44
:1026E0001182108212822196CF30D10539F60E94D4
:1026F000190F2091290180918302820F8093830218
:1027000090912A01920F90932A01191614F48E3099
:102710001CF0219520932901DF91CF911F910F91FA
:102720000895EF92FF920F931F93CF93DF938091C1
:102730008102909182020E94EE23883E9340C8F16C
:102740000E94E2239093820280938102C0917F02D3
:10275000D09180022196C170DD27D0938002C09372
:102760007F0205E913E0F12C68E7E62E8F2D8695B0
:10277000FE01E80FF11DCF0181709927980140916A
:10278000900360918F03FC01EE9EC001EF9E900DBF
:1027900011240E94750EF3940C5F1F4FFFE0FF128F
:1027A000E5CFDF91CF911F910F91FF90EF900C94A7
:1027B000190FDF91CF911F910F91FF90EF90089526
:1027C00080919402882391F120918D03822F869528
:1027D0008F739EE3980F9F73943018F482500C947B
:1027E0009A119AE3980F9F73933018F486500C94C3
:1027F000F01197E3980F9F73963018F489500C945A
:10280000201291E3980F9F73963018F48F500C9418
:102810007D129BE2980F9F73933018F485510C94AE
:1028200011132E77203311F40C94911308958823FB
:1028300019F05198599A02C0519A59985098589A3B
:1028400095E09A95F1F70000509A589895E09A957E
:10285000F1F70000882311F0519A599885E08A9584
:10286000F1F7000008958BB18C7F8BB95098589A7E
:102870005198599A85E08A95F1F7000008958AB138
:102880008C7F8AB985E08A95F1F70000519A5998B2
:1028900085E08A95F1F70000509A589885E08A956E
:1028A000F1F7000008955098589A85E08A95F1F75D
:1028B00000005198599A85E08A95F1F70000089533
:1028C000CF93DF93D82FC8E08D2F80780E94171404
:1028D000DD0FC150C9F780E00E94171485E08A958A
:1028E000F1F7000085E08A95F1F7000080E0DF91C4
:1028F000CF9108953BB1242F209523233BB1342B56
:102900004FB7F894FC01680F791FE617F70789F0B5
:10291000819198E03BB9000000C087FF2BB9880F78
:10292000000000C000C000C02BB900C09A9591F70C
:10293000ECCF4FBF0895AF92BF92CF92DF92EF924C
:10294000FF920F931F93CF93DF938C01EB01AFB6F0
:10295000B090BC00F8948091BC008B7F8093BC0049
:102960000E9433140E943F1484E80E946014CC0F2C
:10297000DD1FCC0FDD1F78016E01C00ED11EEC14DF
:10298000FD0431F0F70181917F010E946014F7CFBF
:102990000E945314AFBEB092BC00579A40E8BE01EB
:1029A000C801DF91CF911F910F91FF90EF90DF90C1
:1029B000CF90BF90AF900C947A14CF93DF93EC013B
:1029C0008F85811115C081E08F878F810E946722DA
:1029D00088850E947A220E943122EA81FB816A89DD
:1029E0007B89CE010696309719F0DF91CF9109943B
:1029F000DF91CF9108950F931F93CF93DF938C01B5
:102A0000FC018085811124C083819481975524E144
:102A1000289FE001299FD00D1124CF5FDE4FEC816C
:102A2000FD816A897B89CE010696309709F0099568
:102A30008F810E946D2288850E9480220E9431220F
:102A4000F801108217821186109297021092960256
:102A5000DF91CF911F910F910895DF92EF92FF9236
:102A60000F931F93CF93DF937C01FB018281882317
:102A700069F180912B018F3F49F1C7E0D1E000E07F
:102A800010E0DD24D39480912B01992787FD909548
:102A900080179107DCF0CE0106972881222391F060
:102AA0002B813C81E216F30639F420919602309195
:102AB0009702E216F30631F0DF820E94DD14CE01A8
:102AC0000E94FB140F5F1F4F6496DDCFDF91CF9103
:102AD0001F910F91FF90EF90DF900895FF920F9359
:102AE0001F93CF93DF938C019C0137552F3F310506
:102AF00011F008F043C080912B01992787FD909534
:102B00008217930714F420932B0184E1829FE00144
:102B1000839FD00D1124CF5FDE4FFB0182818E8712
:102B200092818E81992309F11A8709878F5F8E839D
:102B30000E94E2239C878B870E94A0228F830E94A1
:102B40006422F82E88870E9477228F298887E8815F
:102B5000F9816A897B89CE010696309709F009953B
:102B6000109397020093960209C0882339F08F854D
:102B7000882321F0CE0106960E94FB1481E0DF91AC
:102B8000CF911F910F91FF900895EF92FF920F93B5
:102B90001F93CF93DF9380912B018F3F71F1F12C25
:102BA00084E1E82E8F2D90E020912B01332727FD23
:102BB0003095281739070CF1E89EE001E99ED00D09
:102BC0001124CF5FDE4F088919890115110511F411
:102BD00008EC10E08E81882371F08B859C850E9423
:102BE000EE230817190738F4CE010E94DD14CE0138
:102BF00006960E94FB14F394D5CFDF91CF911F91DD
:102C00000F91FF90EF90089590939D0280939C0206
:102C10000895E0919C02F0919D02309721F001907F
:102C2000F081E02D099480E00895E0919C02F091FC
:102C30009D02309721F00280F381E02D09940895E0
:102C4000E0919C02F0919D02309721F00480F58183
:102C5000E02D0994089520919A0230919B028217E9
:102C6000930771F090939B0280939A02E0919C02EB
:102C7000F0919D02309721F00680F781E02D0994B4
:102C8000089520919802309199028217930771F06C
:102C90009093990280939802E0919C02F0919D029A
:102CA000309721F00084F185E02D0994089508956E
:102CB0000C94571681E008950E94D9230E942305A1
:102CC0000E946F240C941811CF92DF92EF92FF9222
:102CD0000F931F93CF93DF93CDB7DEB72B970FB62C
:102CE000F894DEBF0FBECDBF0E9490050E945A1619
:102CF000811111C08FEF89838A831B820E94E22396
:102D00008160782F9D838C8349815A816B818D816D
:102D10000E94481756C03FE9E32E32E0F32E00E050
:102D200010E0C02E802F0E94F405F701D1907F01A2
:102D3000D82631F40F5F1F4F0E30110591F7DACF0F
:102D400090915A0391FF04C08B870E94FA058B85EE
:102D500020E030E04D2D50E0922FBA01022E02C04B
:102D6000759567950A94E2F760FF25C02E83CF82A0
:102D7000EE24E394F12C02C0EE0CFF1C9A95E2F7CE
:102D800090E08E219F2121E0892B09F420E0288703
:102D90000E94E2238160782F9A8789874E815F8124
:102DA00068858A850E944817F801E156FD4F8081A9
:102DB0008E25808306C02F5F3F4F2630310561F698
:102DC000B9CF0E94012610919E020E940916181781
:102DD000A1F00E94091680939E022B960FB6F894DC
:102DE000DEBF0FBECDBFDF91CF911F910F91FF903E
:102DF000EF90DF90CF900C949C0A2B960FB6F8942E
:102E0000DEBF0FBECDBFDF91CF911F910F91FF901D
:102E1000EF90DF90CF900895DC0111964C911197BF
:102E20005C91852F90E021E030E001C0220F5A959F
:102E3000EAF712966C91129750E0662319F06091B0
:102E4000BD0205C0FA01E355FD4F60816223662390
:102E5000B9F036E0349FF001359FF00D1124E80FF2
:102E6000F91FEE0FFF1FE25CFE4F808191818D9371
:102E70009C93FA01E355FD4F8081822B8083089556
:102E8000FA01E355FD4F2095808128232083089582
:102E9000CF93DF93CDB7DEB72B970FB6F894DEBF95
:102EA0000FBECDBF4F83588769877A878B878A8506
:102EB0009B85892B31F05F3F11F080E003C04F3FCD
:102EC000E1F781E0811104C0CE0107960E940C1742
:102ED000DE01119686E0FD0111928A95E9F785E001
:102EE000FE01379601900D928A95E1F749815A814A
:102EF0006B817C818D819E810E94121F2B960FB663
:102F0000F894DEBF0FBECDBFDF91CF910895FC01D5
:102F1000808191810E94D22192959F70963041F4D8
:102F20008091BD0291E089278093BD029093BC02FD
:102F30000895CF93DF931F92CDB7DEB7682F882314
:102F400009F402C18238C1F40E94091681FDFCC057
:102F500069E380912C0190912D010E949A230E9497
:102F600031222FEF81EE94E0215080409040E1F734
:102F700000C0000069E319C0833811F50E940916EA
:102F800080FDE2C063E580912C0190912D010E94AB
:102F90009A230E943122EFEFF1EE24E0E150F0405D
:102FA0002040E1F700C0000063E580912C01909182
:102FB0002D010E94A5230F90DF91CF910C94312217
:102FC0008438C1F40E94091682FDBEC067E4809176
:102FD0002C0190912D010E949A230E9431228FEFA3
:102FE00091EEE4E081509040E040E1F700C0000045
:102FF00067E4DBCF8CEF860F813A70F4862F69830C
:103000000E942928698181119FC080912C01909193
:103010002D010E949A23CFCF80E2860F883048F49A
:10302000677081E001C0880F6A95EAF70E94672205
:10303000C2CF8BE5860F833088F4653A29F0663A73
:1030400031F482E890E005C081E890E002C083E8B6
:1030500090E00F90DF91CF910C942B1688E5860FAE
:10306000853108F071C0683A61F1693A69F16A3AEC
:1030700071F16B3A79F16C3A81F16B3B89F16C3B00
:1030800091F16D3A99F1603BA1F16E3AA9F16F3A75
:10309000B1F1613BB9F1623BC1F1633BC9F1643B02
:1030A000D1F1653BD9F1663BE1F1673BE9F1683B62
:1030B000F1F1693BF9F16A3B09F03FC08AE292E025
:1030C0003EC082EE90E03BC089EE90E038C08AEED0
:1030D00090E035C085EB90E032C086EB90E02FC0E9
:1030E00083EB90E02CC084EB90E029C087EB90E06C
:1030F00026C08CEC90E023C08DEC90E020C083E8EB
:1031000091E01DC08AE891E01AC082E991E017C001
:1031100084E991E014C081E292E011C083E292E080
:103120000EC084E292E00BC085E292E008C086E225
:1031300092E005C087E292E002C080E090E00F904C
:10314000DF91CF910C9441160F90DF91CF910895AC
:10315000882309F45DC0823879F40E94091681FF42
:1031600057C069E380912C0190912D010E949A2310
:103170000E94312269E310C08338B1F40E9409161D
:1031800080FF46C063E580912C0190912D010E9443
:103190009A230E94312263E580912C0190912D01A8
:1031A0000E94A5230C943122843879F40E940916D8
:1031B00082FF2EC067E480912C0190912D010E9426
:1031C0009A230E94312267E4E7CF9CEF980F913A4F
:1031D00010F4682FE1CF90E2980F983050F4877088
:1031E00091E001C0990F8A95EAF7892F0E946D221C
:1031F000D9CF9BE5980F933020F480E090E00C94B9
:103200002B16885A853120F480E090E00C9441160A
:103210000895882321F00E9467220C94312208959A
:10322000882321F00E946D220C94312208958F9200
:103230009F92BF92CF92DF92EF92FF920F931F93D4
:10324000CF93DF9300D0CDB7DEB74C01472FFC0101
:10325000C580C2942FE0C222D280DD2031F0798374
:103260006A830E9487226A81498149836A830E9416
:103270002A2249816A81882389F0DD2079F080E261
:10328000860F883058F082E00E9413220E942A2282
:10329000BB24B394B82649816A8101C0B12CE42EC5
:1032A000E2949FE0E922F12CF701E159FF4F0C94E1
:1032B0008733842F807F142F1F70882311F012957D
:1032C000107FDD20C1F0112309F4D3C180E2860F05
:1032D000883010F0611105C0812F6A830E94672237
:1032E00004C0812F6A830E947A226A816A830E94C5
:1032F00031226A81BEC1862F6A830E94A8186A8122
:10330000112309F433C280E2860F883010F0611176
:1033100004C0812F0E946D2203C0812F0E94802251
:103320000E94312223C2242F207F842F8F702032CD
:1033300011F08295807F662319F06130B9F020C0CA
:10334000DD2049F0CC2009F44AC1F1E0CF1247C199
:103350000E949A220BC2CC2021F021E0C21609F46F
:1033600005C289830E949D2289813FC1DD2029F009
:1033700091E09C1508F4FAC132C1C110F7C135C102
:10338000DD2021F0CC2009F42AC173C1CC2009F43E
:103390002CC180C1242F26952695237030E021155D
:1033A000310521F02130310561F0E0C1DD2021F04F
:1033B000862F942F937002C080E090E00E942B161D
:1033C000E5C1DD2021F0862F942F937002C080E0AC
:1033D00090E00E944116DAC1DD20F9F0653F51F01E
:1033E000663F71F0643FA9F48091D1039091D203BC
:1033F00081600BC08091D1039091D203826005C09F
:103400008091D1039091D20384609093D2038093F2
:10341000D103862F0E94092522C0653F51F0663FE7
:1034200091F0643FC9F48091D1039091D2038E7FD3
:1034300005C08091D1039091D2038D7F9093D203E8
:103440008093D10309C02091D1033091D2032B7F07
:103450003093D2032093D103862F0E9471250E94BE
:10346000F62594C1842F837009F04EC0D1108AC113
:10347000262F229526952770220F220F862F8F70D8
:10348000C82ED12CE12CF12C022E04C0CC0CDD1C5A
:10349000EE1CFF1C0A94D2F764FF10C06FE070E0CE
:1034A00080E090E004C0660F771F881F991F2A955F
:1034B000D2F7609570958095909503C060E070E0BC
:1034C000CB01242F26952695237030E0223031053C
:1034D00069F02330310589F06C297D298E299F29D7
:1034E0002130310571F00E9463204CC16C297D2987
:1034F0008E299F290E94752045C10E946320C70123
:10350000B6010E9451203EC1DD2019F0842F817048
:1035100001C08695882309F435C1262F229526956A
:103520002770220F220F862F8F70C82ED12CE12CEE
:10353000F12C022E04C0CC0CDD1CEE1CFF1C0A94E6
:10354000D2F764FF10C06FE070E080E090E004C04C
:10355000660F771F881F991F2A95D2F7609570957F
:103560008095909503C060E070E0CB01242F2695F4
:103570002695237030E02230310569F02330310583
:1035800089F06C297D298E299F292130310571F020
:103590000E941121F7C06C297D298E299F290E9444
:1035A0002321F0C00E941121C701B6010E94FF2013
:1035B000E9C0062F10E0F801E05EF109E531F10500
:1035C00008F053C0E158FF4F0C948733162F1F703B
:1035D000842F8F71DD2031F00E94AA20812F0E945C
:1035E0000919C4C00E94C520812F0E941019BEC0B5
:1035F000DD2039F0C110BAC0842F8F710E94E42001
:10360000B5C0E1E0EC1508F4B1C0F6CFDD2039F02B
:10361000842F8F710E94AA20A9C0DD20C9F3842FB6
:103620008F710E94C520A2C0DD2029F0842F8F71E8
:103630000E949B209BC00E94962098C0DD2051F0E4
:10364000142F1F71812F0E94AA2063E0812F0E94F6
:103650000A228CC081E00E941322F1E0FC1508F0E0
:1036600085C082E00E94132281C0DD2031F0CC2091
:1036700079F2862F0E94991779C0CC2081F26933A4
:1036800049F42FEF87EE93E0215080409040E1F71E
:1036900000C00000862F0E94A81868C04F70C401A7
:1036A0000E949E0A0E94BF1F71C0623FA1F028F4D1
:1036B000603F49F0613F01F129C0643FC1F070F003
:1036C000653F89F023C0DD2009F44CC08091BD0224
:1036D00021E0822705C0D092BD0244C081E08D2543
:1036E0008093BD023FC0D1103DC081E0F9CFD11021
:1036F00039C01092BD0236C0DD2029F08091BC0295
:10370000882321F32DC0CC2009F32CC08091BC026A
:10371000CC20E1F0882341F08091BD0221E0822796
:103720008093BD021092BC02862F49836A83DD20FC
:1037300019F00E94991707C00E94A81886E0F401AA
:1037400011928A95E9F749816A810CC0882351F06A
:10375000D11008C08091BD0221E082278093BD0274
:103760001092BC024F70C4010E94A10AF8E0EF164B
:10377000F10441F05CF08AE0E81AF10892E0E91601
:10378000F10420F40E9409160E949C0ABB20F1F06B
:103790000E94062280FD1AC0F40112820E940022BB
:1037A0000E94AA20C4010E94F41B0E9400220F90D4
:1037B0000F90DF91CF911F910F91FF90EF90DF90CD
:1037C000CF90BF909F908F900C94C5200F900F903A
:1037D000DF91CF911F910F91FF90EF90DF90CF90ED
:1037E000BF909F908F9008950F931F93CF93DF9377
:1037F000EC01288139818B819C81892B31F03F3FFD
:1038000011F080E003C02F3FE1F781E0811113C088
:10381000CE010E944007882371F0688179818A81F6
:103820000E94DD218C010E9435210E944E20B801AA
:10383000CE010E941719DF91CF911F910F9108952A
:103840000E9487220E94972280912C0190912D0145
:103850000E94B0230E9431220E948A260E94F625EF
:1038600080E090E00E942B1680E090E00C944116DE
:103870000E9474220C94201C0E94D221E92FE29510
:10388000EF70F0E03297EE30F105B8F4EC56FF4FF0
:103890000C948733803F59F018F4803E70F407C0D1
:1038A000843F59F404C0803E10F0813F31F481E040
:1038B000089593FB882780F9089580E00895CF93B9
:1038C000DF9300D000D01F92CDB7DEB70F900F90DE
:1038D0000F900F900F90DF91CF910895CF93DF93CA
:1038E00000D000D000D0CDB7DEB726960FB6F89442
:1038F000DEBF0FBECDBFDF91CF9108951F93CF9351
:10390000DF93C091BE0216E08091BF02C81799F004
:10391000D0E01C9FF0011D9FF00D1124E054FD4FDD
:103920004081518162817381848195810E946E1CE6
:103930002196C770E9CFDF91CF911F9108954091F3
:10394000F0025091F1026091F2027091F3028091C5
:10395000F4029091F5020C946E1CCF938091F502C5
:1039600082958F7009F05FC08091F202882309F47C
:103970005AC02091BE02A091BF026091F0027091E6
:10398000F1028091F3029091F40231E06F3F09F06F
:1039900030E0B32FC6E02A1709F445C0009721F0A4
:1039A0007F3F21F44B2F03C041E001C040E030E0F5
:1039B00040FD35C0C29FF001C39FF00D1124E054BB
:1039C000FD4F418174132BC04081641328C0428194
:1039D000411125C0438154814817590710F44150C3
:1039E0005109481B590B483C5105C8F48091F50218
:1039F0008F7080618093F50286E0829FF001839F43
:103A0000F00D1124EB53FD4F80818F708061808316
:103A100080EF92E00E94F41BCF910C947E1C2F5FEC
:103A20003F4F2770B8CFCF910895CF92DF92EF929A
:103A3000FF920F931F93CF93DF93CDB7DEB76297BB
:103A40000FB6F894DEBF0FBECDBF8C0185E0F80144
:103A5000DE011D9601900D928A95E1F7D8014C91F7
:103A600011965C91119712966C9112971396ED90A6
:103A7000FC9014977091F002E091F1022091F30212
:103A80003091F4022115310531F0EF3F31F481E03E
:103A90007F3F19F403C081E001C080E0B82FB1700E
:103AA000CB2E80FD6BC1D090F202DD2009F4F5C071
:103AB000F091F502E216F30638F0C701821B930B72
:103AC000883C910548F09DC0209530952E0D3F1DF6
:103AD000283C310508F095C08F2F807F09F052C037
:103AE000E51314C0741312C0D62E61110FC0FF70FD
:103AF000F061F093F5020E949F1C80EF92E00E941B
:103B0000F41B8091F502F80185837CC1EF2831F028
:103B10005F3F31F481E04F3F19F403C081E001C001
:103B200080E080FD03C081E0862701C080E0F82F9F
:103B3000F170FF2E80FF1CC08091BE022091BF0259
:103B400036E0821709F438C190E0389FF001399FC0
:103B5000F00D1124E054FD4F7181571306C07081A0
:103B6000471303C07281671303C001968770E9CFC2
:103B7000D62E662309F446C18091F50281608093B8
:103B8000F50255C0E51308C0741306C0611104C0E6
:103B9000D8011596FC93AEC04D875E878D859E85B6
:103BA0006A8B0E943C1C6A89882329F1D62E6623E1
:103BB00011F12091F502822F82958F7090E002978B
:103BC0000CF462C08091F0029091F10298878F838B
:103BD0001986FB86EA862C87CE01079653C0E51727
:103BE00041F14D875E878D859E856A8B0E943C1CC6
:103BF0006A89811130C0C8010E94F41BDD24D3946E
:103C000001C18F2F807F59F77E2DF98AE88A898933
:103C10000E945F1C80EF92E00E94F41BE0EFF2E054
:103C200086E0DF011D928A95E9F70E949F1CD12C46
:103C3000E9C07413D6CF6111D4CFD8011596FC9387
:103C4000C8010E94F41BE0EFF2E086E0DF011D9264
:103C50008A95E9F7D7C0D62E662369F22091F5023E
:103C6000822F82958F7090E0029774F08091F0021D
:103C70009091F1029A8389831B82FD82EC822E83CC
:103C8000CE0101960E94F41B86E0F801A0EFB2E09D
:103C900001900D928A95E1F78AC0E216F30628F0AA
:103CA000C701821B930B9C0104C0209530952E0DFB
:103CB0003F1D283C310508F053C0D62E662309F479
:103CC0009ACFE5132CC074132AC08091F50280FDB1
:103CD0001DC0982F92959F70C9F0D80115968C93AE
:103CE00015979F3039F09F5F9295907F8F70892B49
:103CF00015968C93C8010E94F41B86E0F801A0EF92
:103D0000B2E001900D928A95E1F753C086E0F80188
:103D1000A0EFB2E001900D928A95E1F773C04D8754
:103D20005E878D859E850E943C1C882381F096E0ED
:103D3000F801A0EFB2E001900D929A95E1F78A8B1D
:103D40000E94AD1C0E949F1C8A89D82E5BC0809166
:103D5000F50281608093F502C8010E94F41B52C0F5
:103D60007E2DF98AE88A89890E945F1CE0EFF2E0E3
:103D700086E0DF011D928A95E9F71BC0662309F4EE
:103D80003ACF4D875E878D859E850E943C1CD82E3C
:103D9000882309F430CF86E0F801A0EFB2E001906B
:103DA0000D928A95E1F780EF92E00E9487170E94BA
:103DB000AD1C0E949F1C26C04D875E878D859E8509
:103DC0000E94D221292F22952F7030E02230310518
:103DD0002CF49F7041F0811106C00CC024303105D5
:103DE0002CF49F7049F4805E883020F0C8010E9456
:103DF000F41BCF2CDC2C06C0D80115969C91907F2B
:103E000091F7F8CF8D2D62960FB6F894DEBF0FBEF6
:103E1000CDBFDF91CF911F910F91FF90EF90DF9079
:103E2000CF9008951F93CF93DF93CDB7DEB72C9734
:103E30000FB6F894DEBF0FBECDBF4F83588769879A
:103E40007A878B879C87CE0107960E94151D882351
:103E5000C1F02F8138858A859B85892B31F03F3FC2
:103E600011F080E003C02F3FE1F781E0811147C0EE
:103E70004F81588569857A858B859C850E946E1C4B
:103E80003EC086E0FE013796DE01119601900D924C
:103E90008A95E1F7FF81E8854A855B8541155105E3
:103EA00031F0EF3F31F481E0FF3F19F403C081E0CE
:103EB00001C080E080FD23C02091BF0230E0C90135
:103EC0000196877099276091BE0270E08617970768
:103ED000F1F1F983EA835D834C8396E0929FD001F0
:103EE000939FB00D1124A054BD4FFE013196019057
:103EF0000D929A95E1F78093BF020E947E1C16E016
:103F00008091BE029091BF02891779F1189FC0017C
:103F1000112480549D4F0E94151D882331F1E0919A
:103F2000BE021E9FF0011124E054FD4F40815181DB
:103F300062817381848195810E946E1C8091BE0292
:103F400090E00196877099278093BE02D9CF0E9496
:103F5000381C1092BF021092BE02E0EFF2E086E041
:103F6000DF011D928A95E9F7CACF2C960FB6F89417
:103F7000DEBF0FBECDBFDF91CF911F910895EF92AD
:103F8000FF920F931F93CF93DF939C01009709F447
:103F900071C0F12CEE24E394E9012196F90184919A
:103FA000843740F4843008F056C0813081F082308C
:103FB00021F160C0853709F449C0C0F19CE7980F32
:103FC000903708F057C08F770E94A81846C0890123
:103FD0000E5F1F4FFE01849190E2980F983050F4CD
:103FE0008770FE2D01C0FF0F8A95EAF78F2F0E9480
:103FF0008A2215C00E94991714C089010E5F1F4FB5
:10400000FE01849190E2980F983068F48770FE2D3D
:1040100001C0FF0F8A95EAF78F2F0E9490220E941D
:104020003122E8011AC00E94A818FBCF2E5F3F4F33
:10403000FE01C491CC2341F08FE99FE00197F1F795
:1040400000C00000C150F6CFE90107C0FE01F490A6
:10405000E901229602C00E9499178F2D882341F012
:10406000EFE9FFE03197F1F700C000008150F6CF93
:104070009E0192CFDF91CF911F910F91FF90EF9012
:10408000089508950E944120609331037093320394
:1040900080933303909334030C94201C08950C9464
:1040A00042200F931F93009131031091320320910E
:1040B000330330913403602B712B822B932B1F9190
:1040C0000F910C9442200F931F9300913103109194
:1040D0003203209133033091340360237123822310
:1040E00093231F910F910C9442200F931F930091E3
:1040F0003103109132032091330330913403602750
:104100007127822793271F910F910C9442200895C5
:104110000C9487200E94882060932D0370932E03B7
:1041200080932F03909330030C94201C60E070E088
:10413000CB010C948A2041E050E060E070E004C0C4
:10414000440F551F661F771F8A95D2F7CB01BA011E
:104150000C948A2041E050E060E070E004C0440F1D
:10416000551F661F771F8A95D2F780912D03909176
:104170002E03A0912F03B0913003482B592B6A2BAB
:104180007B2BCB01BA010C948A2041E050E060E027
:1041900070E004C0440F551F661F771F8A95D2F741
:1041A000409550956095709580912D0390912E03C8
:1041B000A0912F03B0913003482359236A237B2316
:1041C000CB01BA010C948A2041E050E060E070E03D
:1041D00004C0440F551F661F771F8A95D2F7809140
:1041E0002D0390912E03A0912F03B0913003482707
:1041F00059276A277B27CB01BA010C948A200F9399
:104200001F9300912D0310912E0320912F033091C5
:104210003003602B712B822B932B1F910F910C94E9
:104220008A200F931F9300912D0310912E0320914C
:104230002F033091300360237123822393231F9136
:104240000F910C948A200F931F9300912D031091CE
:104250002E0320912F03309130036027712782278E
:1042600093271F910F910C948A200895292F220FD4
:10427000290F220F280F422F469546954695277005
:10428000B1E001C0BB0F2A95EAF785E0489FA00185
:1042900011244A505D4F80E090E070E0FA01E80F91
:1042A000F91FA0819B01082E02C0369527950A941C
:1042B000E2F72170332721952A272B232A272083F1
:1042C00001968530910551F70895292F220F290F66
:1042D000220F280F622F669566956695922F97702C
:1042E00085E0689FB00111246A507D4F40E050E0A6
:1042F00080E0FB01E40FF51F208130E0092E02C0B1
:10430000369527950A94E2F721703327042E01C0D1
:10431000220F0A94EAF7822B4F5F5F4F4530510519
:1043200041F70895CF92DF92EF92FF920F931F9380
:10433000CF93DF93EC01C0903103D0903203E09033
:104340003303F090340380912D0390912E03A091BC
:104350002F03B0913003C82AD92AEA2AFB2A0FE199
:1043600010E0B701A601002E04C076956795579519
:1043700047950A94D2F740FD05C00150110988F70E
:1043800080E007C0BE01802F0E94BC0A0197A9F3FC
:10439000802FDF91CF911F910F91FF90EF90DF90D1
:1043A000CF900895CF93DF93EC010E949221BE013C
:1043B0000E94BC0ADF91CF9108951F93CF93DF93A2
:1043C000EB019091BB02992321F0CB010E94D221F5
:1043D00013C0882349F0CB010E949221182F682F27
:1043E000CE010E94362104C0CB010E946521182F06
:1043F000BE01812F0E94BC0ADF91CF911F910895C9
:10440000809135038595859585950895809135032F
:104410008770089598E0899F90011124622B609322
:1044200035030C94AA204091350380958423809312
:104430003503982F977069F450E0282F332727FD14
:1044400030954217530729F08595859585950C94ED
:10445000C520089590913503977081E009F480E0BC
:104460000895E0912C01F0912D01809159038083F2
:10447000E0912C01F0912D01808190915803892BBE
:104480008083E0912C01F0912D0180819091570360
:10449000892B808390913603992381F0E0912C0140
:1044A000F0912D018081892B808380912C01909146
:1044B0002D010E94332381111092360380912C012B
:1044C00090912D010C9415168091590308959091A7
:1044D0005903982B9093590308958095909159030F
:1044E0009823909359030895109259030895809149
:1044F0005803089590915803982B9093580308956A
:1045000080959091580398239093580308951092A2
:104510005803089590915703982B9093570308954B
:104520008095909157039823909357030895109284
:104530005703089580933603089510923603089523
:10454000809136030895CF92DF92EF92FF920F93FE
:104550001F936C01EE24FF24C114D104E104F10483
:1045600021F46B017C0180E001C080E133272F2D15
:104570001E2D0D2D011511052105310519F0885F3E
:104580006801790197018601A4E036952795179572
:104590000795AA95D1F7011511052105310519F0E7
:1045A0008C5F6801790197018601F2E036952795C5
:1045B00017950795FA95D1F70115110521053105D4
:1045C00019F08E5F68017901B701A60176956795AC
:1045D00057954795452B462B472B09F08F5F1F9129
:1045E0000F91FF90EF90DF90CF9008956DEE7EEFEA
:1045F00080E090E00E94BF3360E082E090E00E94A3
:10460000A13360E083E090E00E94A13360E084E0A9
:1046100090E00E94A13360E085E090E00E94A13329
:1046200040E050E0BA0188E090E00C94B33380E0C1
:1046300090E00E949B3321E08D3E9E4F09F020E0E8
:10464000822F089582E090E00C948D3383E090E017
:104650000C948D3384E090E00C948D33682F84E0CB
:1046600090E00C94A13320E030E040E0FC01E20F48
:10467000F31F518151114F5F2F5F3F4F2F31310594
:10468000A9F7842F089520E030E04FEFFC01E20FFE
:10469000F31F5281561799F04F3F19F4511101C081
:1046A000422F2F5F3F4F2E31310581F74F3F39F0B9
:1046B000FC01E40FF11D47FDFA956283089508950A
:1046C00020E030E0FC01E20FF31F4281461301C0FD
:1046D00012822F5F3F4F2E313105A1F70895262F0B
:1046E0002695269526952F3170F4FC01E20FF11DD9
:1046F000677021E030E0062E01C0220F0A94EAF72D
:104700008181822B81830895262F269526952695D3
:104710002F3178F4FC01E20FF11D677021E030E0E9
:10472000062E01C0220F0A94EAF7209581812823E2
:104730002183089520913D01222329F02091D70360
:1047400027FD0C946F230C94432320913D012223D9
:1047500029F02091D70327FD0C9484230C94602327
:1047600020E030E0FC01E20FF31F11822F5F3F4F8A
:104770002F313105B9F7089508950895CF930E9418
:1047800042050E9490050E94BD23C0E08C2F0E942C
:10479000F405811105C0CF5FCE30C1F780E001C0C4
:1047A00081E0CF9108950E94381C0E9409160C9454
:1047B0009C0A82E084BD93E095BD9AEF97BD8093FB
:1047C0006E0008952FB7F8948091D3039091D4038D
:1047D000A091D503B091D6032FBF0895CF92DF9259
:1047E000EF92FF920F931F932FB7F8944091D3034A
:1047F0005091D4036091D5037091D6032FBF6A0105
:104800007B01EE24FF248C0120E030E0C016D106AD
:10481000E206F30610F441505109481B590BCA0136
:104820001F910F91FF90EF90DF90CF9008957894B3
:104830001F920F920FB60F9211248F939F93AF93F5
:10484000BF938091D3039091D403A091D503B091ED
:10485000D6030196A11DB11D8093D3039093D40379
:10486000A093D503B093D603BF91AF919F918F9141
:104870000F900FBE0F901F901895F89481E08093D1
:10488000E00080E28093D8001092C9008FE19EE49E
:104890000197F1F700C000001DBA109268001CBC1F
:1048A00010BE1FBA10927A0010926E0010926F0024
:1048B00010927100109272001092C900ECEBF0E0BF
:1048C000108214B817B81AB81DB810BA108215B8EB
:1048D00018B81BB81EB811BA0C94003F08950E9476
:1048E0001723811102C00E94F6220E942223809386
:1048F0005A030E942A2390E09093D8038093D70311
:104900000E942623682F70E080E090E00C944F20F6
:1049100080915E0380FF0BC06091310185E0689F4C
:10492000B001112475956795759567952AC081FF2B
:1049300009C06091310185E0689FB001112475952F
:1049400067951FC082FF07C06091310185E0689FB5
:10495000B001112416C040915F034423C9F0609157
:104960003001461788F72091310185E0289F90019A
:104970001124429FC001439F900D112470E00E94BA
:1049800073336038710540F46115710539F002C068
:1049900065E070E0862F08958FE7089581E008951F
:1049A00080915E0380FF08C060912F0170E07595D3
:1049B00067957595679521C081FF06C060912F01AD
:1049C00070E07595679519C082FF04C060912F0152
:1049D00070E010C080915F038823C1F060912E01C8
:1049E0008617A0F790912F01989FC001112470E0C5
:1049F0000E9473336038710528F46115710521F048
:104A0000862F08958FE7089581E0089561E070E0B2
:104A1000F4CF803F21F40E948824819504C0813F17
:104A200029F40E948824809362030895823F21F430
:104A30000E948824819504C0833F29F40E94882421
:104A4000809361030895893F19F40E94D02405C022
:104A50008A3F31F40E94D0248195809363030895A6
:104A60008B3F21F40E94D024819504C08C3F29F40F
:104A70000E94D024809364030895843F21F48091A0
:104A80006003816017C0853F21F4809160038260DC
:104A900011C0863F21F48091600384600BC0873F82
:104AA00021F480916003886005C0883F31F48091D3
:104AB000600380618093600308958D3F21F48091AD
:104AC0005E0381600BC08E3F21F480915E038260A3
:104AD00005C08F3F29F480915E03846080935E035C
:104AE0000895803F39F48091620387FF6CC0109273
:104AF000620369C0813F29F4809162031816BCF3F8
:104B000062C090916103823F29F497FF5CC01092CC
:104B1000610359C0833F19F41916CCF354C0893F7F
:104B200041F48091630318160CF04DC0109263039A
:104B30004AC08A3F29F48091630387FF44C0F6CFBF
:104B40008B3F39F48091640387FF3DC0109264036A
:104B50003AC08C3F29F4809164031816BCF333C02B
:104B6000843F21F4809160038E7F17C0853F21F43C
:104B7000809160038D7F11C0863F21F48091600396
:104B80008B7F0BC0873F21F480916003877F05C036
:104B9000883F31F4809160038F7E8093600313C05F
:104BA0008D3F21F480915E038E7F0BC08E3F21F4F8
:104BB00080915E038D7F05C08F3F29F480915E0355
:104BC0008B7F80935E038091610381110EC0809181
:104BD000620381110AC080916303811106C0809134
:104BE0006403811102C010925F03089580E693E090
:104BF0000E9420160E94E22390935C0380935B0343
:104C000008951F93CF93DF9380915B0390915C0392
:104C10000E94EE2340915F03442321F02091320152
:104C200030E006C020915D035AE0259F90011124D9
:104C30008217930708F46AC08091610310916203A0
:104C4000D0916303C0916403811107C0111105C0A5
:104C5000D11103C0CC2309F459C04F3F19F04F5F65
:104C600040935F03181624F40E9488248093610304
:104C70008091610387FF05C00E94882481958093FD
:104C80006103111624F40E948824809362038091AA
:104C9000620387FF05C00E94882481958093620388
:104CA00020916103222379F040916203442359F05B
:104CB00055EB250390011124309361034503C00196
:104CC0001124909362031D1624F40E94D024809333
:104CD00063038091630387FF05C00E94D024819500
:104CE000809363031C1624F40E94D02480936403F1
:104CF0008091640387FF05C00E94D0248195809332
:104D00006403DF91CF911F910C94F625DF91CF9131
:104D10001F910895E0E6F3E085E0DF011D928A959A
:104D2000E9F710925F0310925E030895833081F1DA
:104D300028F4813059F08230D1F00895853009F49B
:104D400049C0B8F1863009F456C0089520915D033A
:104D5000862F90E0820F911D8F3F910520F4620F06
:104D600060935D0308958FEF80935D030895209114
:104D70003201862F90E0820F911D8F3F910520F424
:104D8000620F6093320108958FEF8093320108958E
:104D900020913101862F90E0820F911D8F3F910568
:104DA00020F4620F6093310108958FEF80933101F9
:104DB000089520913001862F90E0820F911D8F3F42
:104DC000910520F4620F6093300108958FEF809376
:104DD0003001089520912F01862F90E0820F911DC0
:104DE0008F3F910520F4620F60932F0108958FEF9C
:104DF00080932F01089520912E01862F90E0820F3D
:104E0000911D8F3F910520F4620F60932E0108954C
:104E10008FEF80932E010895833011F128F48130B3
:104E200049F0823091F00895853081F120F186308B
:104E3000C1F1089580915D03681720F4861B80936B
:104E40005D03089510925D03089580913201681703
:104E500020F4861B80933201089510923201089548
:104E600080913101681720F4861B809331010895E9
:104E700010923101089580913001681720F4861B4B
:104E800080933001089510923001089580912F0190
:104E9000681720F4861B80932F01089510922F012C
:104EA000089580912E01681720F4861B80932E01AF
:104EB000089510922E0108958D3109F43FC008F530
:104EC000803109F47EC070F4873009F456C018F4BC
:104ED0008630D9F131C08B3009F4AAC08E3009F484
:104EE00066C02AC0863109F4A3C020F4813109F4D8
:104EF00079C022C0893109F49BC08B3109F44DC0BF
:104F00001BC0853309F48CC048F4873209F488C08B
:104F100008F478C0893209F483C00EC0833438F4B1
:104F20008A3308F06DC0883309F482C005C0833429
:104F300009F476C0883499F080E008950E94DD2855
:104F40000E9409160E949C0A73C080915A03817FB7
:104F50008E7F80935A0381E08093660308950E94B8
:104F6000381C2FEF83ED90E3215080409040E1F713
:104F700000C000000E943D245BC090915A03892F1D
:104F80008095817080FB90F990935A03811150C0F5
:104F9000997F977F90935A034BC090915A0391FB4E
:104FA000882780F921E0822780FB91F913C0909136
:104FB0005A0392FB882780F921E0822780FB92F92F
:104FC00009C090915A0393FB882780F921E082273A
:104FD00080FB93F990935A03882351F19160909349
:104FE0005A0308950E94381C9091D70397FB882795
:104FF00080F921E0822780FB97F99093D70318C0AE
:1050000027EC01C023EE280F61E070E080E090E023
:1050100004C0660F771F881F991F2A95D2F704C016
:1050200061E070E080E090E00E944F200E94381C18
:1050300081E0089580E0089580E008958E518A30DF
:1050400030F4E82FF0E0EA51FE4F8081089580E0CF
:105050000895CF93C82F80916603813079F018F0BE
:105060008230D1F182C0E0912C01F0912D0180813C
:10507000813169F0823209F07AC009C0E0912C01D7
:10508000F0912D018081813111F0823249F48C2F11
:105090000E941A2881111DC08C2F0E945C271AC003
:1050A0008C2F0E941C28811114C0C43179F048F45F
:1050B000CB3079F0C03109F05EC082E080936603A6
:1050C00008C0C93219F0C83321F055C010926603E8
:1050D00052C081E0817051C0C93279F108F5C43104
:1050E00061F1A0F4C73009F044C010925D0384E17F
:1050F00080933201C09331018CE38093300188E0CA
:1051000080932F0188E280932E0133C082EE8C0FB2
:10511000863078F58C2F0E941E288093650329C065
:10512000CE34E9F020F4CB3421F56AE013C0C13568
:1051300079F0C235F1F461E00DC0809165038823F8
:1051400019F01092650315C081E08093660315C0C5
:1051500061E006C0809165030E9496260AC06AE05D
:10516000809165030E940C2704C01092660380E0C2
:1051700004C081E002C080E0ADCFCF910895E1E8A6
:10518000F0E08081886080838081816080838FB738
:10519000F89493E09093890090ED909388008FBFEE
:1051A0000895EFE6F0E08081826080830895EFE665
:1051B000F0E080818D7F80830895EFE6F0E08081CC
:1051C00092E08927808308951F920F920FB60F9265
:1051D00011242F933F934F935F936F937F938F93FC
:1051E0009F93AF93BF93EF93FF9380916703909149
:1051F000680301969093680380936703811103C04D
:1052000082E00E949C0AE0916803E695E695F0E052
:10521000ED59F94FE491809167038E1303C080E04C
:105220000E949C0AFF91EF91BF91AF919F918F9146
:105230007F916F915F914F913F912F910F900FBE92
:105240000F901F9018958091890308950F931F93D5
:10525000CF93DF9300D01F92CDB7DEB78C010E94B1
:10526000A52B823011F0843019F583E089831B83EC
:105270000A838093E9008FEF9091E800815095FDBB
:1052800006C095ED9A95F1F700008111F5CF809158
:10529000E80085FF0DC040E050E063E070E0CE0123
:1052A00001960E94C22B8091E8008E778093E800DF
:1052B0000F900F900F90DF91CF911F910F91089554
:1052C000CF93DF9300D01F92CDB7DEB72091DD03DF
:1052D000243031F522E02983805891099B838A8309
:1052E00083E08093E9008FEF9091E800815095FD75
:1052F00006C095ED9A95F1F700008111F5CF8091E8
:10530000E80085FF0DC040E050E063E070E0CE01B2
:1053100001960E94C22B8091E8008E778093E8006E
:105320000F900F900F90DF91CF910895CF93DF935F
:10533000EC010E94A52B823011F08430F9F482E058
:105340008093E9008FEF9091E800815095FD06C0B1
:1053500095ED9A95F1F700008111F5CF8091E80065
:1053600085FF0CC040E050E065E070E0CE010E9497
:10537000C22B8091E8008E778093E800DF91CF9177
:105380000895CF93DF93EC010E94A52B823019F092
:10539000843009F047C080913D018823E1F080917D
:1053A000D70387FF18C084E08093E9008FEF9091C6
:1053B000E800815095FD06C095E19A95F1F700004F
:1053C0008111F5CF8091E80085FF2CC040E050E0CE
:1053D00060E270E017C081E08093E9008FEF909168
:1053E000E800815095FD06C095ED9A95F1F7000013
:1053F0008111F5CF8091E80085FF14C040E050E0B6
:1054000068E070E0CE010E94C22B8091E8008E77A8
:105410008093E80080E2FE01A9E6B3E001900D92DE
:105420008A95E1F7DF91CF9108958091DC03811196
:1054300009C00E94542D0E94B12D8091E200846029
:105440008093E20008951092DC03089508950C946F
:10545000D1280E94D3230E94D7280E9409160C94B9
:105460009C0A42E061EC81E00E94CE2C42E061ECBB
:1054700082E00E94CE2C42E061EC83E00E94CE2CC0
:1054800042E261EC84E00C94CE2C8091DF03833007
:1054900009F455C030F4813071F0823009F48EC0C7
:1054A00008958A3009F47AC08B3009F460C08930DD
:1054B00009F09CC020C08091DE03813A09F096C0BB
:1054C0008091E800877F8093E8008091E2039091CB
:1054D000E303892B21F060E080E090E003C060E20C
:1054E00089E693E070E00E940B2C8091E8008B77B6
:1054F0008093E80008958091DE03813209F076C040
:105500008091E2039091E303009719F0039709F06B
:105510006DC08091E800877F8093E8008091E8006B
:1055200082FD05C08091DD038111F8CF5FC08091BD
:10553000F100809389038091E8008B7753C08091BC
:10554000DE03813A09F052C08091E2039091E303B7
:10555000892B09F04BC08091E800877F8093E80099
:105560008091E80080FFFCCF80913D0136C08091A2
:10557000DE038132D9F58091E2039091E303892B18
:10558000A9F58091E800877F8093E8000E94032DB1
:105590008091E00380933D010C94381C8091DE03E0
:1055A000813221F58091E800877F8093E8000E9496
:1055B000032D8091E10380938A0308958091DE0397
:1055C000813AA1F48091E800877F8093E800809180
:1055D000E80080FFFCCF80918A038093F1008091E6
:1055E000E8008E778093E8000C94032D089584B72B
:1055F000877F84BF88E10FB6F89480936000109293
:1056000060000FBE80E880936100109261000E94EC
:1056100058160E94542D0E94B12D8091E2008460A2
:105620008093E20078940E9434300E945C1683E3F9
:1056300091E00E9404160E94BF288091DD0385300E
:1056400069F40E94BC238091DB038823B1F30E949C
:10565000BE23882391F30E94AC2BEFCF0E946416E7
:105660000E94E013EACF0C94352B292F33272330E7
:105670003105A9F06CF42130310509F448C022301D
:10568000310509F049C08DE690E02DED36E048C0C7
:1056900021323105F9F02232310549F13DC0992717
:1056A0008130910571F02CF4892BB1F5E9EDF6E02C
:1056B0000DC08230910541F0039771F5E3EAF6E001
:1056C00005C0E1ECF6E002C0E9EAF6E0849190E082
:1056D0009F0126C064307105F8F4FB01EE0FFF1F37
:1056E000E450FE4F2081318189E090E019C06430A0
:1056F000710590F4FB01EE0FFF1FEC50FE4F20816F
:105700003181FB01E051FE4F808190E009C082E1D0
:1057100090E02AE437E004C080E090E020E030E050
:10572000FA013183208308950895CF93C82F0E94F2
:10573000942BC0938B03CF9108958091DD03843027
:1057400011F482E0089581E0089580918B03811126
:1057500002C00C949D2B089580E189BD82E189BD32
:1057600009B400FEFDCF8091D8008F7D8093D800D2
:105770008091E00082608093E0008091E00081FDF4
:10578000FCCF0895CF92DF92EF92FF920F931F9379
:10579000CF93DF937C018B01EA010E94242D8111BC
:1057A00031C0209731F088819981081B190BE80ED0
:1057B000F91EC12CD12C0115110519F18091E800B9
:1057C00085FD14C08091E8008E778093E8002097D3
:1057D00041F0888199818C0D9D1D9983888385E096
:1057E00011C00E94242D882331F30CC0F701819150
:1057F0007F018093F10001501109FFEFCF1ADF0AFA
:10580000DACF80E0DF91CF911F910F91FF90EF9061
:10581000DF90CF9008952091E4033091E50326179F
:10582000370748F06115710539F42091E8002E77AB
:105830002093E80001C0B901FC0120E06115710569
:10584000B9F18091DD03882309F440C0853009F463
:105850003FC08091E80083FD3DC08091E80082FF59
:1058600006C08091E80082FF26C080E00895809104
:10587000E80080FFE3CF2091F3008091F20090E0F8
:10588000922B6115710551F08830910538F4219102
:105890002093F100615071090196F3CF21E0089740
:1058A00009F020E08091E8008E778093E800C6CF71
:1058B0002111C7CFD6CF8091DD03882339F0853001
:1058C00039F08091E80083FFCCCF04C082E00895D6
:1058D00083E0089581E008952091E4033091E50389
:1058E0002617370748F06115710539F42091E80053
:1058F0002E772093E80001C0B901FC0120E061157A
:105900007105C1F18091DD03882309F441C0853020
:1059100009F440C08091E80083FD3EC08091E8001A
:1059200082FF06C08091E80082FF27C080E00895D2
:105930008091E80080FFE3CF2091F3008091F20096
:1059400090E0922B6115710559F08830910540F473
:1059500024912093F1003196615071090196F2CFA4
:1059600021E0089709F020E08091E8008E7780938D
:10597000E800C5CF2111C6CFD5CF8091DD038823A4
:1059800039F0853039F08091E80083FFCBCF04C037
:1059900082E0089583E0089581E00895982F97307C
:1059A00058F59093E900981739F07091EC00209128
:1059B000ED005091F00003C0242F762F50E021FF1E
:1059C00019C03091EB003E7F3093EB003091ED0039
:1059D0003D7F3093ED003091EB0031603093EB0070
:1059E0007093EC002093ED005093F0002091EE00B6
:1059F00027FF07C09F5FD3CF8F708093E90081E0BE
:105A0000089580E008958091DE0387FD05C08091B0
:105A1000E80080FF0EC012C08091E80082FD05C042
:105A20008091DD038111F8CF08958091E8008B7794
:105A300008C08091DD038111EACF08958091E800CC
:105A40008E778093E80008958091E4009091E500BE
:105A500045E62091EC0020FF21C02091E80020FDC8
:105A600021C02091DD03222389F0253089F0209187
:105A7000EB0025FD0FC02091E4003091E5002817D0
:105A8000390739F3415041F0C901E3CF82E008956D
:105A900083E0089581E0089584E008952091E8006E
:105AA00022FFDFCF80E008950E94C22D0E94CA2D00
:105AB000E0EEF0E0808181608083E8EDF0E08081BD
:105AC0008F77808319BCA7EDB0E08C918E7F8C938B
:105AD00080818F7E80831092DC0308950F931F9343
