:102000000084FF1F75220000ED760000ED760000D1
:10201000ED760000ED760000ED760000ED76000034
:10202000ED760000ED760000ED76000031800000D6
:10203000ED760000ED760000ED760000D78C000014
:10204000ED760000ED760000ED760000ED76000004
:10205000ED760000ED760000ED760000ED760000F4
:10206000ED760000ED760000ED760000ED760000E4
:10207000ED760000ED760000ED760000ED760000D4
:10208000ED760000ED760000ED760000ED760000C4
:10209000ED760000ED760000ED760000ED760000B4
:1020A000418B0000ED760000ED760000ED7600003B
:1020B000ED760000ED760000ED760000ED76000094
:1020C000ED760000ED760000ED760000ED76000084
:1020D000ED760000ED760000ED760000ED76000074
:1020E000ED760000ED760000ED760000ED76000064
:1020F000ED760000ED760000ED760000ED76000054
:10210000ED760000ED760000ED760000ED76000043
:10211000ED760000ED760000ED760000ED76000033
:10212000ED760000ED760000ED760000ED76000023
:10213000ED760000ED760000ED760000ED76000013
:10214000ED760000ED760000ED760000ED76000003
:10215000ED760000ED760000ED760000ED760000F3
:10216000ED760000F5900000ED760000ED760000C1
:10217000ED760000ED760000ED760000ED760000D3
:10218000ED760000ED760000ED760000ED760000C3
:10219000ED760000ED760000ED760000ED760000B3
:1021A000ED760000ED760000ED760000ED760000A3
:1021B000ED760000ED760000ED760000ED76000093
:0C21C000259E00003D22000015220000BA
:1021D000044B05481B1A062B02D9044B03B11847C0
:1021E000704700BF2392FF1F2092FF1F00000000D6
:1021F00005490648091A891001EBD171491002D02E
:10220000034B03B1184770472092FF1F2092FF1F16
:102210000000000010B5064C237843B9FFF7D8FF43
:10222000044B13B10448AFF300800123237010BDA9
:102230000094FF1F00000000ECAB000008B5084B45
:102240001BB108490848AFF300800848036813B978
:10225000BDE80840CCE7064B002BF9D09847F7E7DC
:10226000000000000494FF1FECAB00002092FF1F51
:102270000000000072B6264880F3098825484EF613
:102280000851CEF200010860022080F31488BFF3E9
:102290006F8F05F009FA07F0B3F84FF055301E497B
:1022A0001E4A91423CBF41F8040BFAE71C49184A08
:1022B00091423CBF41F8040BFAE71A491A4A1B4BFA
:1022C0009A423EBF51F8040B42F8040BF8E7002095
:1022D0001749184A91423CBF41F8040BFAE705F050
:1022E000E7F905F0E2F9144C144DAC4203DA54F866
:1022F000041B8847F9E704F045FD114C114DAC4231
:1023000003DA54F8041B8847F9E705F0CFB9000059
:10231000008CFF1F002000000080FF1F0084FF1FB3
:102320000084FF1FECAB0000008CFF1F2092FF1FFA
:102330000094FF1F40A8FF1FC0210000C82100001B
:10234000C8210000CC2100002DE9F04FC1F80CD0CD
:10235000C3689D46BDE8F08F002383F311882846AB
:10236000A047002005F012FC05F05EFB00DFFEE751
:1023700000B51C4A20F00043934283B018DDB3F14E
:10238000FF4F05DB014600F0D5FE03B05DF804FB0E
:10239000694600F029F800F00302012A15D0022A4C
:1023A0000CD0CAB101220199009800F0A1FDECE720
:1023B000002100F08BF903B05DF804FB019900984F
:1023C00000F084F900F10040DFE70199009800F087
:1023D0008FFD00F10040D8E70199009800F076F9F0
:1023E000D3E700BFD80F493F2DE9F04FAA4A20F0AC
:1023F0000044944289B067DDA84A94420D460746DE
:1024000001461CDC0028A64940F3EC8000F092FE57
:10241000A44B24F00F049C42064663D0A24900F06E
:1024200089FE01462860304600F084FE9E4900F097
:1024300081FE01236860184609B0BDE8F08F9B4A11
:10244000944261DDB4F1FF4F46DAE615863EA4EB17
:10245000C654204601F03EF900F022FF0346014633
:102460002046059300F066FE4FF0874100F06CFFB8
:10247000804601F02FF900F013FF01460446404664
:10248000069400F057FE4FF0874100F05DFF0021F9
:10249000079001F0EDF8002800F0C58020460021EB
:1024A00001F0E6F8002814BF01230223804A0192BC
:1024B000022100913246294605A800F0CBF9002FF1
:1024C000C0F2A780034603E0002208604A600023B0
:1024D000184609B0BDE8F08F00F02CFE00236860BC
:1024E0002860F5E7734900F025FE7349044600F0C3
:1024F00021FE01462860204600F01CFE6E4900F0D7
:1025000019FE01236860E3E700F068FD6B4980462F
:1025100000F01AFF4FF07C5100F00EFE01F0DAF8E7
:10252000064600F0BDFE5E49834600F00DFF014601
:10253000404600F0FFFD5C498146584600F004FF2C
:102540001F2E82461ADC5E4A711E24F0FF0352F8E9
:102550002120934212D05146484600F0EBFD8046C0
:10256000C5F800804146484600F0E4FD514600F0C1
:10257000E1FD002F686058DB3346A9E75146484625
:1025800000F0D8FDE215C0F3C753D31A082B8046DC
:10259000E6DD48490392584600F0D6FE80460146E3
:1025A000484600F0C7FD01460446484600F0C2FD1B
:1025B000414600F0BFFD40498046584600F0C4FE49
:1025C000414600F0B7FD01468246204600F0B2FDCC
:1025D000039AC0F3C753D21A192A804641DC2860F7
:1025E000A146BFE700F0A8FD2E4B24F00F049C424B
:1025F000064623D02C4900F09FFD01462860304656
:1026000000F098FD284900F097FD4FF0FF33686017
:102610005EE795E80C0002F1004103F100422960F9
:1026200043426A6054E7032340E708F1004800F1A1
:102630000040C5F800806860734249E71D4900F01A
:102640007BFD1D49044600F077FD014628602046C9
:1026500000F070FD184900F06FFD4FF0FF33686027
:1026600036E71849584600F06FFE0146804620467E
:1026700000F060FD01468146204600F05BFD4146CA
:1026800000F058FD10490446584600F05DFE214612
:1026900000F050FD82465EE7D80F493FE3CB16407D
:1026A000800FC93FD00FC93F43443537800F49439E
:1026B000989F00000044353708A3852E84F9223FF7
:1026C000189F000000A3852E32318D242DE9F84398
:1026D00020F00044B4F1485F06460F4649DA00F0A6
:1026E000F9FF002800F09D803146304600F02CFEB6
:1026F0004E49054600F028FE4D4900F01DFD2946D3
:1027000000F022FE4B4900F015FD294600F01CFEAA
:10271000494900F011FD294600F016FE474900F036
:1027200009FD294600F010FE454900F005FD294647
:1027300000F00AFE80464FF07C51284600F004FE6F
:1027400041460446284600F0FFFD3946054630461E
:1027500000F0FAFD0146284600F0ECFC0146204658
:1027600000F0E8FC01464FF07E5000F0E3FCBDE8CD
:10277000F883014600F0E8FD2C49054600F0E4FD31
:102780002B4900F0D9FC294600F0DEFD294900F074
:10279000D1FC294600F0D8FD274900F0CDFC2946A0
:1027A00000F0D2FD254900F0C5FC294600F0CCFD23
:1027B000234900F0C1FC294600F0C6FD214B9C4294
:1027C0008046B8DD204B9C4227DC04F17F44214643
:1027D0004FF07E5000F0AEFC81464FF07C51284611
:1027E00000F0B2FD214600F0A5FC41460446284613
:1027F00000F0AAFD39460546304600F0A5FD014629
:10280000284600F097FC0146204600F093FC014664
:10281000484600F08FFCBDE8F883DFF834900B4C9D
:10282000DBE74FF07E50BDE8F88300BF4ED747ADE1
:10283000F6740F317CF29334010DD037610BB63A48
:10284000ABAA2A3D9999993E0000483F0000903E6E
:102850000000383F2DE9F04FDFB0BE4C0A93013B3A
:102860000193D31E48BF131D689D0891DB1023EA16
:10287000E37354F825400B9319460133A2EBC303CD
:102880000794019A0693079B02909C18A1EB0205FE
:1028900015D42C44013421AE699F08E057F8250077
:1028A00000F0FEFC0135A54246F8040F07D0002DCC
:1028B000F4DA01350020A54246F8040FF7D1079B52
:1028C000002B2ADB079B0A9A019E194649AF01EBB0
:1028D00002089346019B002BC0F2A18122ABCBEBF7
:1028E000060503EB8505029BA3F1040A22AB03EB6B
:1028F00086044FF000095AF8041F54F8040900F048
:1029000023FD0146484600F017FCAC428146F2D157
:102910000136464547F8049FDCD1079E06F1804307
:10292000023B9B001A1D0EA90A440B440D920C9306
:102930005EAB03EB8603002E53F8508C23DD5EABB9
:1029400003EB8604543C0DAD49AF4FF06E51404649
:1029500000F0FAFC00F0BEFE00F0A2FC4FF0874150
:10296000814600F0F1FC0146404600F0E3FB00F038
:10297000B1FE54F8041945F8040F484600F0DCFB9A
:10298000BC428046E1D14046DDF81880414600F067
:102990006FFB4FF07851044600F0D6FC00F022FBAC
:1029A0004FF0824100F0D0FC0146204600F0C2FB0F
:1029B000044600F08FFE074600F072FC01462046F8
:1029C00000F0B8FB4446002C054640F30F81711E11
:1029D0000EAAC8F1080352F8212042FA03F000FAC7
:1029E00003F3D31A0EAAC8F1070A42F821300744AC
:1029F00043FA0AFABAF1000F30DD002E07F10107A1
:102A000040F34D82002214460DA907E0C3F5807003
:102A10000BB108600124013296420BDD51F8043FEE
:102A2000002CF3D00132C3F1FF0396420B604FF04C
:102A30000104F3DC069B002B0DDD012B00F0DE8092
:102A4000022B08D1721E0EAB0EA953F8223003F0F0
:102A50003F0341F82230BAF1020F7DD00021284611
:102A600000F006FE002800F09180079B741EA34230
:102A700010DC06F180430EAA013B0D9802EB8303A4
:102A8000002253F80419834242EA0102F9D1002AD4
:102A900040F0DF80079B0EAA013B52F82330002B49
:102AA00040F0FB810C9B012753F804290137002AD1
:102AB000FAD0F219731C9342099240DC0B9AB900C8
:102AC00003EB02080A9A039108F1804869991644B9
:102AD00008F1FF38B20001EB880822A99B0004929C
:102AE00001EB020A4AAA02EB0309043B0593002604
:102AF00058F8040F00F0D4FB019B4AF8040B002B9C
:102B00001FDB049BF418059BF51822AB1C441D44E5
:102B1000029B0027A3F1040B5BF8041F54F804097F
:102B200000F012FC0146384600F006FBAC420746B6
:102B3000F2D1039B49F8047B04369E42D8D1099E0A
:102B4000F6E6039B043600279E4249F8047BCFD16A
:102B5000F5E700BFB0A2000029464FF07E5000F01C
:102B6000E9FA0546002C3FF479AF06994FF07E5004
:102B700000F07EFA0146284600F0DCFA0546002106
:102B8000284600F075FD00287FF46FAF0297069F7E
:102B90002846794200F06CFA4FF08741044600F075
:102BA00085FD002800F080814FF06E51204600F036
:102BB000CBFB00F08FFD00F073FB4FF08741054623
:102BC00000F0C2FB0146204600F0B4FA00F082FD9E
:102BD0000EAB741C43F82600284600F07BFD3B46F4
:102BE000083306930EAB43F8240047E010D1731E60
:102BF0000EAA52F823304FEA232AFBE6721E0EABD0
:102C00000EA953F8223003F07F0341F8223022E767
:102C10004FF07C5100F04AFD50B982461EE7013664
:102C20004FF00009464547F8049F7FF453AE74E621
:102C3000002E07F10107C8BF4FF0020A3FF7E2AECE
:102C400029464FF07E5000F075FA4FF0020A054613
:102C500004E70EAB069A53F824300297083A06921E
:102C600063B904F18043013B0EA901EB830353F8E0
:102C70000419013C083A0029F9D0069206994FF050
:102C80007E5000F0F5F9002C0546C0F21781A30034
:102C90004AAA1F1D02EB030801930EAB1F4408F163
:102CA000040657F8040D00F0FBFA294600F04CFB2F
:102CB0004FF06E5146F8040D284600F045FB0EAB70
:102CC0009F420546EDD1DDF81C90CDF80CA0A8F18F
:102CD00004080027A346B9F1000FB8BF002615DB92
:102CE000814C82480026C246002503E0AF420DDB3E
:102CF00054F8040F5AF8041F00F026FB0146304632
:102D000000F01AFA0135A9450646EFDA5EAB03EB8F
:102D10008703A8F1040843F8A06C48AB984507F175
:102D20000107D8D1689BDDF80CA05C46032B59D86D
:102D3000DFE803F08C5E5E02002C40F3BD80019A58
:102D40005EA98B1836AD53F8A07CAE1856F8049CDB
:102D50003946484600F0F0F980460146484600F002
:102D6000E9F9394600F0E8F9306046F8048DB542DB
:102D70004746EBD1012C40F39F80019A5EA98B1846
:102D8000AC1853F8A06C25460DF1DC0955F8048CFD
:102D90003046414600F0D0F907460146404600F073
:102DA000C9F9314600F0C8F9286045F8047DA94505
:102DB0003E46EBD10020043438AD54F8041D00F039
:102DC000BBF9A542F9D1BAF1000F6AD0369A379B08
:102DD00000F1004002F1004203F10043089CA060B2
:102DE00022606360029B03F007005FB0BDE8F08FD4
:102DF000019D36AE04353544002055F8041D00F021
:102E00009BF9B542F9D1BAF1000F39D0089A00F117
:102E1000004301461360369800F08CF9002C0BDD5E
:102E200036AE0125013556F8041F00F085F9AC4295
:102E3000F8DABAF1000F4FD0089A00F1004353605E
:102E4000029B03F007005FB0BDE8F08F019B5EAA14
:102E500013440020A3F19C05013C55F8041D00F02B
:102E60006BF9631CF8D1BAF1000F01D000F10040FA
:102E7000089B1860029B03F007005FB0BDE8F08F6D
:102E8000089B01461860369800F054F9002CD8BF12
:102E90000346C5DC089A5360D2E7012709E60024FF
:102EA000C8E5369A379B99E7204600F013FC0EAB35
:102EB000344643F82600E1E6002084E7689B032BB4
:102EC00090D801A252F823F0E52E0000E12E000078
:102ED000E12E0000B92E0000089A03465360AFE7C8
:102EE000002090E70020BEE7BCA200000000C93F20
:102EF0002DE9F84320F00043B3F1485F04460F4644
:102F0000904603DA00F0E6FB002858D02146204620
:102F100000F01AFA05460146204600F015FA294944
:102F20000646284600F010FA274900F003F9294622
:102F300000F00AFA254900F0FFF8294600F004FAEB
:102F4000234900F0F7F8294600F0FEF9214900F086
:102F5000F3F88146B8F1000F22D04FF07C5138468B
:102F600000F0F2F949468046304600F0EDF901469E
:102F7000404600F0DFF8294600F0E6F9394600F057
:102F8000D9F815490546304600F0DEF901462846D5
:102F900000F0D2F80146204600F0CCF8BDE8F883F6
:102FA0000146284600F0D0F90B4900F0C3F831463D
:102FB00000F0CAF9214600F0BFF8BDE8F8832046CA
:102FC000BDE8F883D3C92E2F342FD7321BEF383604
:102FD000010D50398988083CABAA2A3E20F00040F8
:102FE000704700BF2DE9F04120F00047FC0D7F3C09
:102FF000162C054613DC002C80461BDB194F27419D
:10300000384214D0184900F097F8002100F058FB1E
:1030100068B1002D1BDB28EA0700BDE8F081B7F19D
:10302000FF4F04D3014600F087F8BDE8F081284641
:10303000BDE8F0810C4900F07FF8002100F040FB72
:103040000028F4D0002D08DB0020BDE8F0814FF40B
:10305000000343FA04F4A044DDE7002FE7D003485F
:10306000BDE8F081FFFF7F00CAF24971000080BF18
:1030700030F0004238B5034616D0B2F1FF4F0FD200
:10308000B2F5000F0D4610D30446D20D2A44FE2A95
:103090002EDC002A1DDD24F0FF4444EAC25038BD76
:1030A000014600F049F838BD38BD4FF0984100F0B6
:1030B0004BF9184A9542034607DBC0F3C752044652
:1030C000193AE3E7144800F02BF8134900F03CF9F3
:1030D00038BD12F1160F13DA4CF2503295421946F0
:1030E000F0DD0E4800F01CF80C4900F02DF938BD59
:1030F00019460A4800F014F8084900F025F938BDCF
:10310000193224F0FF4040EAC2504FF04C5100F019
:103110001BF938BDB03CFFFF6042A20DCAF24971F5
:1031200001F0004120F000400843704780F000406B
:1031300002E000BF81F0004142001FBF5FEA41038F
:1031400092EA030F7FEA226C7FEA236C6AD04FEA8F
:103150001262D2EB1363C1BFD218414048404140D4
:10316000B8BF5B42192B88BF704710F0004F40F486
:10317000000020F07F4018BF404211F0004F41F4A2
:10318000000121F07F4118BF494292EA030F3FD06E
:10319000A2F1010241FA03FC10EB0C00C3F1200381
:1031A00001FA03F100F0004302D5494260EB400010
:1031B000B0F5000F13D3B0F1807F06D340084FEA7B
:1031C000310102F10102FE2A51D2B1F1004F40EB70
:1031D000C25008BF20F0010040EA030070474900D8
:1031E00040EB000010F4000FA2F10102EDD1B0FAA3
:1031F00080FCACF1080CB2EB0C0200FA0CF0AABF98
:1032000000EBC25052421843BCBFD0401843704735
:1032100092F0000F81F4000106BF80F4000001323B
:10322000013BB5E74FEA41037FEA226C18BF7FEA12
:10323000236C21D092EA030F04D092F0000F08BF54
:103240000846704790EA010F1CBF0020704712F03B
:103250007F4F04D1400028BF40F00040704712F17A
:1032600000723CBF00F50000704700F0004343F0DF
:10327000FE4040F4000070477FEA226216BF084615
:103280007FEA23630146420206BF5FEA412390EAD8
:10329000010F40F4800070474FF0000304E000BFCE
:1032A00010F0004348BF40425FEA000C08BF70477F
:1032B00043F0964301464FF000001CE050EA010243
:1032C00008BF70474FF000030AE000BF50EA010258
:1032D00008BF704711F0004302D5404261EB410145
:1032E0005FEA010C02BF84460146002043F0B6436A
:1032F00008BFA3F18053A3F50003BCFA8CF2083A8F
:10330000A3EBC25310DB01FA02FC634400FA02FC97
:10331000C2F12002BCF1004F20FA02F243EB02009E
:1033200008BF20F00100704702F1200201FA02FC00
:10333000C2F1200250EA4C0021FA02F243EB0200F3
:1033400008BF20EADC7070474FF0FF0C1CEAD05237
:103350001EBF1CEAD15392EA0C0F93EA0C0F6FD0F8
:103360001A4480EA010C400218BF5FEA41211ED0D6
:103370004FF0006343EA501043EA5111A0FB0131C2
:103380000CF00040B1F5000F3EBF490041EAD37197
:103390005B0040EA010062F17F02FD2A1DD8B3F113
:1033A000004F40EBC25008BF20F00100704790F082
:1033B000000F0CF0004C08BF49024CEA502040EAD4
:1033C00051207F3AC2BFD2F1FF0340EAC25070479A
:1033D00040F400004FF00003013A5DDC12F1190FD8
:1033E000DCBF00F000407047C2F10002410021FA4A
:1033F00002F1C2F1200200FA02FC5FEA310040F162
:10340000000053EA4C0308BF20EADC70704792F0DA
:10341000000F00F0004C02BF400010F4000F013A12
:10342000F9D040EA0C0093F0000F01F0004C02BF0D
:10343000490011F4000F013BF9D041EA0C018FE77C
:103440000CEAD15392EA0C0F18BF93EA0C0F0AD082
:1034500030F0004C18BF31F0004CD8D180EA0100A8
:1034600000F00040704790F0000F17BF90F0004F41
:10347000084691F0000F91F0004F14D092EA0C0F23
:1034800001D142020FD193EA0C0F03D14B0218BFB6
:10349000084608D180EA010000F0004040F0FE40FC
:1034A00040F40000704740F0FE4040F44000704798
:1034B0004FF0FF0C1CEAD0521EBF1CEAD15392EA17
:1034C0000C0F93EA0C0F69D0A2EB030280EA010C07
:1034D00049024FEA402037D04FF0805343EA1111A0
:1034E00043EA10130CF000408B4238BF5B0042F1FE
:1034F0007D024FF4000C8B4224BF5B1A40EA0C00A3
:10350000B3EB510F24BFA3EB510340EA5C00B3EBD4
:10351000910F24BFA3EB910340EA9C00B3EBD10FC2
:1035200024BFA3EBD10340EADC001B0118BF5FEA14
:103530001C1CE0D1FD2A3FF650AF8B4240EBC2503D
:1035400008BF20F0010070470CF0004C4CEA5020FE
:103550007F32C2BFD2F1FF0340EAC250704740F44D
:1035600000004FF00003013A37E792F0000F00F03F
:10357000004C02BF400010F4000F013AF9D040EABD
:103580000C0093F0000F01F0004C02BF490011F451
:10359000000F013BF9D041EA0C0195E70CEAD15349
:1035A00092EA0C0F08D142027FF47DAF93EA0C0F30
:1035B0007FF470AF084676E793EA0C0F04D14B0214
:1035C0003FF44CAF08466EE730F0004C18BF31F0C6
:1035D000004CCAD130F000427FF45CAF31F00043C0
:1035E0007FF43CAF5FE700BF4FF0FF3C06E000BF59
:1035F0004FF0010C02E000BF4FF0010C4DF804CD7C
:103600004FEA40024FEA41037FEA226C18BF7FEA8B
:10361000236C11D001B052EA530C18BF90EA010F8D
:1036200058BFB2EB030088BFC81738BF6FEAE1701C
:1036300018BF40F0010070477FEA226C02D15FEAB8
:10364000402C05D17FEA236CE4D15FEA412CE1D024
:103650005DF8040B704700BF844608466146FFE7EB
:103660000FB5FFF7C9FF002848BF10F1000F0FBDCD
:103670004DF808EDFFF7F4FF0CBF012000205DF8C6
:1036800008FB00BF4DF808EDFFF7EAFF34BF01204B
:1036900000205DF808FB00BF4DF808EDFFF7E0FFE4
:1036A00094BF012000205DF808FB00BF4DF808ED35
:1036B000FFF7D2FF94BF012000205DF808FB00BF98
:1036C0004DF808EDFFF7C8FF34BF012000205DF87A
:1036D00008FB00BF4FEA4002B2F1FE4F0FD34FF09C
:1036E0009E03B3EB12620DD94FEA002343F000436F
:1036F00010F0004F23FA02F018BF404270474FF01D
:103700000000704712F1610F01D1420205D110F0A3
:10371000004008BF6FF0004070474FF00000704756
:1037200042000ED2B2F1FE4F0BD34FF09E03B3EB2B
:10373000126209D44FEA002343F0004323FA02F057
:1037400070474FF00000704712F1610F01D1420243
:1037500002D14FF0FF3070474FF00000704700BFBC
:10376000002301461A46184600F0FCB838B5074D4C
:10377000074C2C1BA41005D0013C55F8043D98477C
:10378000002CF9D1BDE8384006F058BBCC21000030
:10379000C8210000844641EA000313F003036DD101
:1037A000403A41D351F8043B40F8043B51F8043B04
:1037B00040F8043B51F8043B40F8043B51F8043B0B
:1037C00040F8043B51F8043B40F8043B51F8043BFB
:1037D00040F8043B51F8043B40F8043B51F8043BEB
:1037E00040F8043B51F8043B40F8043B51F8043BDB
:1037F00040F8043B51F8043B40F8043B51F8043BCB
:1038000040F8043B51F8043B40F8043B51F8043BBA
:1038100040F8043B51F8043B40F8043B51F8043BAA
:1038200040F8043B403ABDD2303211D351F8043B4A
:1038300040F8043B51F8043B40F8043B51F8043B8A
:1038400040F8043B51F8043B40F8043B103AEDD2F9
:103850000C3205D351F8043B40F8043B043AF9D24A
:10386000043208D0D2071CBF11F8013B00F8013B1D
:1038700001D30B8803806046704700BF082A13D32A
:103880008B078DD010F003038AD0C3F10403D21A42
:10389000DB071CBF11F8013B00F8013B80D331F876
:1038A000023B20F8023B7BE7043AD9D3013A11F8F6
:1038B000013B00F8013BF9D20B7803704B78437061
:1038C0008B7883706046704770B4840746D0541E6E
:1038D000002A41D0CDB2034602E0621EE4B3144692
:1038E00003F8015B9A07F8D1032C2ED9CDB245EA33
:1038F00005250F2C45EA054519D903F11002264686
:10390000103E0F2E42F8105C42F80C5C42F8085C46
:1039100042F8045C02F11002F2D8A4F1100222F085
:103920000F0204F00F041032032C13440DD91E466D
:103930002246043A032A46F8045BFAD8221F22F0F2
:1039400003020432134404F003042CB1C9B21C4432
:1039500003F8011BA342FBD170BC70471446034619
:10396000C2E700BF2DE9F047254C2568D5F848414E
:103970000646884692469946C4B360681F2817DCFD
:10398000431C76B104EB80050122C5F888A0D4F869
:10399000881182401143022EC4F88811C5F808919D
:1039A0001ED00230636044F820800020BDE8F0871C
:1039B000144B03B34FF4C870AFF300800446D0B18A
:1039C000D5F84831002780E88800C5F848413846D6
:1039D0000123C4F88871C4F88C71002EE1D0D1E7BE
:1039E000D4F88C110A43C4F88C21DAE705F5A674E3
:1039F000C5F84841C1E74FF0FF30BDE8F08700BF90
:103A0000E8A200000000000038B5324C324D2046DC
:103A10000422002104F05AFF20460422012104F070
:103A200055FF04221146204604F050FF2046042290
:103A3000052104F04BFF20460422062104F046FF36
:103A400020460422403C072104F040FF2046042287
:103A5000012104F03BFF20460422022104F036FF3E
:103A600028460622022104F031FF284606220321BF
:103A700004F02CFF28460622122104F027FF2846D6
:103A80000622132104F022FF20460622002104F022
:103A90001DFF20460622082104F018FF20460622BA
:103AA000092104F013FF204606220A2104F00EFF2C
:103AB000062220460B2104F009FF084A0023136068
:103AC00053601372064A136053601372BDE83840A6
:103AD00000F0E6B8C0F00F4040F00F401F94FF1F09
:103AE0002894FF1F2DE9F843DFF82491414C424D03
:103AF000424E002707F1FF38B8F1070F05D8DFE87D
:103B000008F006080B0F1114171A042306E0082307
:103B100004E04FF4802301E04FF400236B600DE0DC
:103B200001230AE04FF4807307E04FF4007304E0D0
:103B30004FF4806301E04FF400636360022004F0FF
:103B40002AF82269316933695201890822F03F025B
:103B500001F03C010A4303F003031343DBB2B8F165
:103B6000070F05D8DFE808F006080B0F1114171A25
:103B7000042206E0082204E04FF4802201E04FF422
:103B80000022AA600DE001220AE04FF4807207E0F3
:103B90004FF4007204E04FF4806201E04FF40062E1
:103BA000A26019F8012F9A4208D089F80030144B0E
:103BB00001221A7002F024F8124B18800137092FE5
:103BC00098D10F4B1A781C467AB10E4B188802F028
:103BD0001CF8062809D90C4A0C480023195C995492
:103BE0000133092BFAD10023237000F056F801208D
:103BF000BDE8F88380F00F4040F00F40C0F00F4068
:103C00001E94FF1F1C94FF1F1F94FF1F2894FF1F6B
:103C10002794FF1F014B185C704700BF1F94FF1FC4
:103C2000704770477047704708B5FFF7FBFF08BD46
:103C300008B5FFF7F8FF08BD012070470120704765
:103C400008B5FFF7FBFF08BD13B502AB03E903009E
:103C50000E4B1B788BB99DF8023000983BB101F0F8
:103C6000FDFC04460146009801F0B6FC02E001F0BC
:103C7000D7FC04460099204603E0009801F0EEFCD2
:103C8000009902B0BDE8104000F006B94A94FF1F49
:103C9000034600689988FFF7D7BFFFF7C9BF704791
:103CA00008B501F00FFE08B901F07AFEFFF7F7FF43
:103CB000BDE80840FFF7B8BF704708B501F07AF8D3
:103CC000FFF7FAFF46F2A81003F065FFBDE80840D1
:103CD00001F0A2BF38B50546FFF7DAFF29460446D2
:103CE000FFF7AEFFA0B12946204600F09FFB78B158
:103CF00045F614439C4200F2948045F602439C42F0
:103D000008D2B4F5B84F77D1AB780BB1FFF7D5FF38
:103D1000002038BDAB78002B72D001F0D3FD08B97C
:103D200001F03EFE01F0E6FDA4F5B844544B033C1F
:103D30001880112C0AD8DFE804F00D1115191D2187
:103D400025292D3135393B3F43474B511A7842F0F5
:103D500001024AE01A7842F0020246E01A7842F084
:103D6000040242E01A7842F008023EE01A7842F07B
:103D700010023AE01A7842F0200236E01A7842F057
:103D8000400232E01A7842F080022EE01A7842F0C7
:103D90000C022AE01A786FF3000226E01A786FF31B
:103DA000410222E01A786FF382021EE01A7812E0D4
:103DB0001A786FF3041218E01A786FF3451214E0C2
:103DC0001A786FF3861210E01A786FF3C7120CE0BE
:103DD0001A7802F0FB026FF3C30206E01A78C2F30E
:103DE000C01181F0010161F3C7121A70187801F057
:103DF00084FD00F0DFFF8BE745F601439C4203D0D2
:103E00002846FFF719FF38BDAB78002B80D01D493D
:103E10000B78C3F3000282F0010262F300030B701F
:103E200076E745F616439C421ED101F081FCA97845
:103E3000154A164B69B100F0AA00002814BF0121F1
:103E400000211170186814BF3521292101F008FEE6
:103E500007E012781868002A14BF3521292101F0E3
:103E600015FE01F0D1FC53E745F6DE439C42C7D175
:103E7000AB78002B3FF44CAF01F092FD48E700BF58
:103E80001095FF1FF994FF1F3194FF1F3090FF1F03
:103E90000020704770470000C1F3072300EBC0000B
:103EA0000344DB0053FA81F1024A32F8110082B078
:103EB00002B07047ECA20000014B33F810007047CD
:103EC0009CA4000013B5ADF804100199FFF7E4FFBE
:103ED00000F0A0F9B0F5A24F04463BD2B0F5A04FD8
:103EE00080F00A81E72819D8E02880F09081A7287F
:103EF0000BD8A52880F09D80012800F08881C0F0B3
:103F00004081042880F083813BE1BE2840F29C8000
:103F1000C028C0F03681C03880B2E3E0B0F5405F21
:103F20000CD2B0F5005F80F0DB80F028C0F0298172
:103F3000FF2800F2D28040F4A044ECE0B0F5804FBE
:103F4000C3B280F0D38002054CBF43F4484443F42D
:103F500040445CE1B0F5B24F26D2B0F5B04F80F0EE
:103F6000F980B0F5A84F0ED2B0F5A64FC0B280F0E0
:103F7000DF80B4F5A44F80F0D080000240F42044EC
:103F800044F0F10443E1B0F5AA4FC0F0DC80B0F595
:103F9000AC4F80F0F680C0B200F0B4F9000200F43B
:103FA000F85444F4005432E145F6BD43984200F021
:103FB000DF8019D845F6BB43984200F0D38000F269
:103FC000D480B0F5B44F80F0DC8000F00F0000F03A
:103FD00099F9C4F3031400F00F0040EA042444F4F8
:103FE000204444F0E00412E145F6C043984200F05A
:103FF000C5800CD845F6BE43984200F0BC8045F61B
:10400000BF43984240F0BD804FF45244FFE0A0F51A
:10401000C043B3F5005F80F0B480C0F3042000F02B
:1040200071F9E4B2000244F4005400F4F85004437F
:10403000EDE000F0A88044F2820344F28302A62857
:1040400014BF14461C46E2E0A82800F09F80A9286F
:1040500000F09F80AA2800F09F80AB2800F09F808E
:10406000AC2800F09F80BB2800F09F80BC2800F0A7
:104070009F80AD2800F09F80B02800F09F80AE2880
:1040800000F09F80AF2800F09F80B12800F09F8053
:10409000B22800F09F80B32800F09F80B42800F081
:1040A0009F80B52800F09F80B62800F09F80B72839
:1040B00000F09F80B82800F09F80B92800F09F8012
:1040C000BD2800F09F80BE2800F09F80BA2844F2EF
:1040D0002A6418BF4FF4884499E0C0F30C0496E0BA
:1040E000C0F30B00FFF7E8FE044690E000F47064B4
:1040F00043F420431C438AE0C2B2C0F301140123FD
:1041000002F00300834043F40C4343EA0420C2F36B
:10411000810440EA4414A4B279E08408012300F049
:10412000030003FA00F040EA441444F40C44F2E7BC
:104130008408012300F0030003FA00F040EA44146D
:1041400044F40A44E7E7C4B2240244F4204444F0AF
:10415000F4045CE0040204F4BE4444F4204444F05B
:10416000F00454E04FF4544451E04FF455444EE011
:104170004FF451444BE04FF4504448E04FF4534463
:1041800045E0002443E044F2810440E044F2E2448C
:104190003DE044F2E9443AE044F2EA4437E044F2D4
:1041A000B54434E044F2B64431E044F2B3442EE086
:1041B00044F2B4442BE044F2B74428E044F2CC4447
:1041C00025E044F2CD4422E044F283541FE044F25F
:1041D0008A541CE044F2925419E044F2945416E0DC
:1041E00044F2216413E044F2236410E044F22464B6
:1041F0000DE044F225640AE044F2266407E044F24C
:10420000276404E044F26F4401E044F27044204625
:1042100002B010BD82281AD00CD831285CD004D846
:10422000292851D02A285FD07047352844D0392812
:104230000DD07047E32827D004D8E02810D0E2281A
:1042400016D07047E62825D0E7282FD070472C4B92
:104250001B78DA0750D413F0020F18BFE020704724
:10426000274B1B7813F0010F0CBFE020392070475B
:10427000234B1B785B0741D5214B1B7813F0100FA4
:1042800014BF0020E32070471D4B1B785907F3D55E
:10429000E22070471A4B1B781A072FD5184B1B7852
:1042A00013F0100F14BF0020E7207047144B1B7849
:1042B0001B07F3D5E62021E0114B1B7813F0200FEC
:1042C00014BF2920352070470D4B1B7813F0200FA9
:1042D00014BF352029207047094B1B7813F0400F7D
:1042E00014BF2A2031207047054B1B7813F0400F74
:1042F00014BF31202A207047E0207047704700BF6C
:104300001095FF1F174B1A78510710D500F01802AF
:10431000082A04D100F0F70040F0040007E000F0A4
:104320001402042A04BF00F0FB0040F008001A78D1
:10433000120710D500F01802182A04D100F0E70087
:1043400040F0140007E000F01402142A04BF00F04B
:10435000EB0040F018001B78DB0648BF00F0E700D8
:10436000704700BF1095FF1FF8B5154682781F46AD
:104370000C462C4B9AB1197001F042FC2A4B188064
:1043800004F12003DBB2072B4BD804F00700012314
:1043900003FA00F0C0B2BDE8F84000F098BA1E7809
:1043A0008E422BD1204B188801F02FFCC72825D82E
:1043B000AE4205F1200416D006F12003DBB2072B34
:1043C00006D806F007060120B040C0B200F088FA17
:1043D000E3B2072B20D805F00700012303FA00F011
:1043E000C0B200F074FA3846E4B200F061FA072C6B
:1043F00017D805F007050120A84008E004F12003C4
:10440000DBB2072B0DD804F007040120A040C0B296
:10441000BDE8F84000F064BA3846BDE8F84000F066
:1044200047BAF8BD3294FF1F3494FF1F08B545F614
:10443000F04203469342084620D00ED845F6D842B3
:10444000934217D045F6D942934223D045F6D7423E
:10445000934226D12623E1220EE045F6F242934212
:1044600014D00FD345F6F34293421AD12723E52205
:10447000E62112E02723E52211460EE02623E12261
:10448000E0210AE02723E522E42106E02623E122B9
:10449000E22102E028230122E521FFF765FF002049
:1044A00008BD807818B1034B00221A7008BD0120A6
:1044B00008BD00BF3294FF1F014B1860704700BF5A
:1044C0003C94FF1F024B186808B1036818477047F7
:1044D0003C94FF1F084B1B6863B1084A12783AB13D
:1044E000074A1278D2091FBF027842700522027073
:1044F0005B681847704700BF3C94FF1F3A90FF1F4E
:104500001095FF1F034B1B681BB1022101709B68B4
:10451000184770473C94FF1F054B1988814205D00E
:104520001880044B1B680BB1DB681847704700BF4D
:104530003894FF1F3C94FF1F054B1988814205D01A
:104540001880044B1B680BB11B691847704700BFEC
:104550003694FF1F3C94FF1F7047704708B5FFF764
:10456000FCFF08BD704708B5FFF7FCFF08BD08B5A4
:10457000FFF7F2FFFFF7F2FF08BD0120704708B513
:1045800001F008FBFFF740FA01F03CFC02F0FCF8F8
:10459000FFF7E9FF08BD00002DE9FF47FFF7A2FA8A
:1045A000FFF7EBFF98B9FF238DF808308DF809303D
:1045B00000238DF80A3001F023FB40F00100ADF834
:1045C0000C0004AB13E9030000F06EF840E0314F3B
:1045D000DFF8D0800024E6B23046FFF71BFBE35D36
:1045E000DFF8B090434013F0FF05824603D1013459
:1045F000092CF0D1D7E798F80030980701D5FFF7DC
:104600000FFB002345FA03F1C907DAB21CD50125D7
:104610009D401AEA050F14BF012300238DF80230D4
:104620008DF800208DF8016001F0EAFA40F00100F9
:10463000ADF804009DE8030000F036F819F80430E6
:104640006B4009F8043003E00133082BDAD1CEE7E0
:1046500001F060FE104B1C68104B1D6802F03CFE20
:104660000646FFF72FFF32460346294620460C4CEC
:1046700002F040FEFFF726FF2378834207D0FFF7C2
:1046800021FF207004B0BDE8F047FFF7CABA04B0BC
:10469000BDE8F0874094FF1FD094FF1F9C94FF1F3C
:1046A0004994FF1FF994FF1F1FB58DE803000021F7
:1046B00003919DE8030002AA0290ADF80C1092E865
:1046C000030000F033FE05B05DF804FB08B5008878
:1046D00000F0E6FF08BD000010B50446002800F019
:1046E000A880031FDBB2A02B0AD801F0B1FF00287D
:1046F00040F09F804F4B2146186801F0B1F90BE064
:1047000000F12003DBB2072B0AD800F007040120D8
:10471000A040C0B201F012F8BDE8104001F074B83A
:1047200000F15B03DBB2022B0BD8A52804D0A6282E
:104730000CBF8220832000E08120BDE81040FFF7FD
:10474000EBBE00F15803DBB2162B6AD8A8282FD095
:10475000A9282FD0AA282FD0AB282FD0AC282FD013
:10476000BB282FD0BC282FD0AD282FD0B0282FD0D9
:10477000AE282FD0AF282FD0B12830D0B22831D0DA
:10478000B32832D0B42833D0B52834D0B62835D0A9
:10479000B72836D0B82837D0B92838D0BD2839D076
:1047A000BE2839D0BA2840F22A2018BF002034E0B1
:1047B000E22032E0E92030E0EA202EE0B5202CE0D3
:1047C000B6202AE0B32028E0B42026E0B72024E079
:1047D000CC2022E0CD2020E040F283101DE04FF4F9
:1047E000C5701AE04FF4C97017E04FF4CA7014E0B6
:1047F00040F2212011E040F223200EE04FF4097036
:104800000BE040F2252008E040F2262005E040F2CF
:10481000272002E06F2000E07020BDE81040FFF785
:104820008BBEEF2805D901F067FCBDE8104001F010
:1048300063BD10BD3090FF1F08B50146A0B3031F34
:10484000DBB2A02B04D8194B186801F01FF90BE05C
:1048500000F12003DBB2072B0AD800F0070101208A
:104860008840C0B200F072FFBDE8084000F0CCBF45
:1048700000F15B03DBB2022B04D80020BDE8084046
:10488000FFF74ABE00F15803DBB2162B04D8002014
:10489000BDE80840FFF750BEEF2805D901F0A0FCA5
:1048A000BDE8084001F028BD08BD00BF3090FF1FE3
:1048B00010B50446FFF710FF392C03D144F62060F1
:1048C00003F069F92046BDE81040FFF7B5BF08B511
:1048D00028B100F033FFBDE8084000F095BF08BDE7
:1048E00008B528B100F032FFBDE8084000F08CBFE9
:1048F00008BD00002DE9F04790F806A085788046B5
:104900000C464FEA1A1A0DB100F03EFF00F006FF08
:1049100070B17DB104F12003DBB2072B0CD902206A
:1049200000F0B8FF00F0FAFE80F00100C7B204E02A
:10493000074602E02F4600E00027C4F30339B9F12F
:104940000F0F00F2CF81DFE819F0100010004200D5
:1049500042008F00A500CD01CD01D900CD0132016B
:104960003201A101AA01CD01C601C4F3072313F04E
:10497000F00F16BF2609C4F3032606F0F006E4B2D2
:1049800085B16EB104F12003DBB2072B304600D9AC
:1049900014B900F0D3FE01E000F0E6FE00F034FFB1
:1049A000204663E12046FFF747FF002E00F09A8182
:1049B00004F12003DBB2072B304600D914B900F014
:1049C000C5FE01E000F0D8FE00F01EFF8AE1C4F34E
:1049D000072303F0F003202B18BF2609E0B20CBF19
:1049E000C4F3032606F0F00610B101281DD027E01D
:1049F0008DB1BAF1000F09D0BAF1010F06D100F064
:104A0000DFFE3043C0B200F0E7FE6BE100F0D8FEFD
:104A10003043C0B2E5E0BAF1000F03D0BAF1010FA4
:104A200000F0608100F0E4FEE0E025B1BAF1050F8E
:104A300000F25881D4E0BAF1040F00F25381D5E0BE
:104A40006DB1BAF1000F00F0CB8098F80630D907AD
:104A500040F10C816FF3071388F80630C0E0BAF11B
:104A6000000F00F0C3800EE1C4F3812313B1012BCA
:104A700008D03AE115B1C4F3090000E02846FFF779
:104A80004BFD32E115B1C4F3090000E02846FFF701
:104A900053FD2AE1E0B2BDB1F52808D0F6280BD0CD
:104AA000F4280ED1A14A136843F0010308E09F4A9D
:104AB000136843F0020303E09C4A136843F00403C5
:104AC000136001F019FB16E0F52808D0F6280BD08A
:104AD000F4280ED1954A136823F0010308E0934AA5
:104AE000136823F0020303E0904A136823F00403E1
:104AF000136001F075FB01F0FFFBF6E014F4407F5A
:104B000027D1002D40F0F180E2064FEAD40101F0F8
:104B10001C0148BF0F2204F00F0048BF02FA01F544
:104B2000C4F3812448BFED4300FA01F3022C45EAA7
:104B3000030008D00AD8012C02D000F0E9FCD4E030
:104B400000F0DEFCD1E000F0EBFCCEE000F0D5FCA4
:104B5000CBE015B1C4F3002301E0C4F34023002BE4
:104B600000F0C380E00800F01C0104F0100204F023
:104B70000F0000FA01F302F0FF001AB10F2202FA4F
:104B800001F0C043C4F38124022C40EA030008D0A2
:104B90000AD8012C02D000F00DFDA6E000F002FDC5
:104BA000A3E000F00FFDA0E000F0C8FC9DE0E6B23D
:104BB000A6F1E003142B54D8DFE803F00B0B0B0B2A
:104BC0000B0B0B0B0B0B0B0B0B0B0B0B1C282E35BA
:104BD0003E0006F00F06C4F304202DB100F0C2FC25
:104BE0003046FFF774FE7DE000F0C6FC3046FFF76C
:104BF00077FE77E03DB1BAF1040F73D8C4F3042017
:104C000000F0C6FC6EE0BAF1050FF6E735B1C4F36B
:104C1000042000F0A7FC65E0002DF8D0C4F30420C8
:104C200000F0AAFC5EE025B1C4F3042000F095FC7E
:104C300058E000F08FFC55E04DB1C4F30424204649
:104C400000F090FC0321204600F00AFE4AE001201B
:104C500000F020FEBAF1010F44D9022000F01AFE44
:104C600040E035B1BAF1000FD1D03046FFF734FD46
:104C700038E0BAF1000FD1D0392E03D144F62060CC
:104C800002F089FF3046FFF7D7FD2BE0C4F3032283
:104C9000E1B24046FFF7FCF800F0C2FB2FE075BB25
:104CA000C4F30324052C2AD8DFE804F00306090C1A
:104CB0000F1101F085FD22E001F09AFD1FE001F0E7
:104CC000E3FD1CE001F0EAFD19E0032000E0002014
:104CD00001F008FE13E0C4F30322E1B24046FFF7FF
:104CE000D9F80CE0B9F10B0F09D8012303FA09F93F
:104CF00019F4506F03D0FFF7E5FBFEF792FF9FB169
:104D000000F004FD10F001000ED188F8020000F060
:104D1000F5FC00F027FC404600F00AF800F0EEFC3D
:104D2000BDE8F04700F028BCBDE8F0874C94FF1FB9
:104D300037B583880446DBB1437802788DF80130BB
:104D40008DF80020BDF800204FF6FF739A420FD077
:104D5000FEF7C0FF60B12188A07800F0ADFC0546E9
:104D600000F038FC00F0C8FB29462046FFF7C2FDE2
:104D700003B030BD08B500F007FD00F01BFD00F0EA
:104D800043FD01F055FB01F0B7FA0020FFF7C4FB2B
:104D90000020BDE80840FFF7CFBB000008B5044B7A
:104DA000186800F089FEBDE80840FFF7E3BF00BFC8
:104DB0003090FF1F08B500F0D1FCBDE80840FFF7B8
:104DC000EDBFC0F303320E3202F00F020D2A20D8DD
:104DD000012303FA02F212F4105FC1B216D140F2BD
:104DE000033313401BB912F0100009D17047F029AA
:104DF00011D002D8DF290CD80DE0F42909D10AE03E
:104E0000DF2908D9F12906D018467047C0F3C02021
:104E10007047002070470120704707B5ADF80400C7
:104E2000019800F03DFCFFF7CCFF03B05DF804FBF8
:104E300082B002AB03E9030002B0704782B002AB5C
:104E400003E9030002B0704770B5094B094E1C78A6
:104E5000094D3378A3420AD005EBC40355F834005A
:104E600059680134FFF7EAFF04F00704F1E770BD69
:104E70009894FF1F9994FF1F5094FF1F024B1868CE
:104E80005968FFF7DBBF00BF9094FF1F2DE9F74380
:104E90002A4A93791B094ED19378002B4BD0284B8B
:104EA000284F1878284E15464FF6FF7E3B788342F0
:104EB00041D0918800293AD095F800C095F801803A
:104EC0008DF800C08DF80180BDF8003073452ED0FC
:104ED000C400331993F80190C14528D116F83080E9
:104EE000E04524D193F802C0BCF1000F1FD19B888C
:104EF0008B423BBFC1F57F41FF315B1A5B18C72B6B
:104F0000CCBF0023012393B193790C48012161F3B5
:104F1000071393710C4B23449A7961F307129A712A
:104F2000FFF706FF03B0BDE8F043FFF78DBF013088
:104F300000F00700BAE703B0BDE8F0839094FF1FCC
:104F40009894FF1F9994FF1F5094FF1F2DE9F0477D
:104F5000BF4E054694B0B48800680090EE462A78AB
:104F60006B78AF78B5F8048030787178002C00F059
:104F70001B818DF808008DF80910BDF808904FF6D8
:104F8000FF7CE14500F0108196F802A0BAF1000F15
:104F900000F00A81444585BFC4F57F44FF34C4EB6B
:104FA00008044444C72CCCBF00240124DFF8A0929D
:104FB000002C00F0B78096F806E01EF0F00F56D1F6
:104FC0008DF811108DF81000BDF810004FF6FF712C
:104FD000884219D08DF800208DF80130B9F8001002
:104FE000BDF8000088420FD177B9012363F3071E93
:104FF00089F806E0FFF742FF4846FFF799FE99F867
:105000000630AB713C468BE1B8F1000F25D08DF82E
:1050100038208DF83930BDF838004FF6FF718842DE
:105020001BD0B846CFB98B498B48097890F800C09F
:10503000DFF828E2614500F04E810EEBC10090F8E8
:105040000190994505D11EF83190914501D18078A4
:1050500018B9013101F00701ECE73C46002F00F0E0
:105060005F81B37943F00103B371002458E18DF8F7
:1050700019108DF81800BDF818004FF6FF7188421E
:1050800016D08DF800208DF80130B9F80010BDF869
:10509000000088420CD15FB985F806E02846FFF78A
:1050A00047FE2B68C9F800306B68C9F804300FE17F
:1050B0008DF800208DF801300098FFF7AEFE60B348
:1050C0005FB3B3791F2B0DD9614AADF844801288C4
:1050D000ADF8402000228DF842208DF8463010A80F
:1050E000FFF726FE2B6833606B687360FFF7CEFE18
:1050F000FFF7C4FE14E08DF821108DF82000BDF8F4
:1051000020004FF6FF71884225D18DF800208DF8E0
:1051100001300098FFF781FEA0BB2846FFF708FE8C
:105120000124FDE096F806C01CF0F00FE3D18DF8E5
:1051300000208DF801308DF80270ADF804809DE8F4
:105140000300FFF775FE4846FFF7F2FDC9F800407F
:10515000C9F80440BCE08DF800208DF80130B9F8A2
:105160000010BDF800008842CFD1002FCDD185F8C6
:1051700006C02846FFF7DCFDC9F80040C9F8044026
:105180005446CDE0002FC8D0B3791F2BAAD9304A9E
:10519000ADF84C801288ADF8482000228DF84A20E6
:1051A0008DF84E3012A89BE7002C7AD08DF828009D
:1051B0008DF82910BDF828904FF6FF7CE14570D09E
:1051C000DFF88CC09CF802C0BCF1000F69D14445E7
:1051D00085BFC4F57F44FF34C4EB08044444C72CA6
:1051E000CCBF00240124002C4CD03C46002F94D08E
:1051F0008DF831108DF83000BDF83000144F4FF6A7
:10520000FF7188422CD08DF800208DF8013039884C
:10521000BDF80000884223D1BB79DA0712D41A09FD
:1052200010D01A090F2A18BF0132AB711CBF62F3EC
:105230000713AB712846FFF77BFD2B6833606B6863
:10524000736045E02B6833606B68736068E000BF93
:105250009094FF1F9894FF1F9994FF1F5094FF1F75
:105260008DF800208DF801300098FFF7D6FD00285A
:105270007FF438AFB379284643F00103B371FFF7E9
:1052800057FD4DE08DF800208DF801308DF802704B
:10529000ADF804809EE80300FFF7CAFD3460746037
:1052A00016E0002F3FF439AF8DF800208DF8013063
:1052B0000098FFF7B2FD044600283FF42EAF2B689C
:1052C00033606B6818487360FFF700FAFFF7DEFD84
:1052D000FFF7D4FD24E08DF800208DF80130009810
:1052E00000F0DEF9C0F30332C3B2032A13D8DFE8BB
:1052F00002F00202070710F4706F08D03BB90EE00D
:1053000010F4706F03D0AA7912F0F00F07D0203399
:10531000DBB2072B03D92846FFF70AFDA046444617
:10532000204614B0BDE8F0879094FF1FF0B589B017
:105330008DE803006846FFF709FE354E354F0546F8
:10534000B0B1BDF80430002B40D09DF801309DF87D
:1053500000208DF809308DF80820BDF808204FF6A0
:10536000FF739A4232D09DE80300FFF767FD2DE0FE
:105370009DE8030006AB83E80300BDF804009DF838
:1053800000109DF801208DF818108DF81920ADF847
:105390001C00D8B18DF811208DF81010BDF8101038
:1053A0004FF6FF72914211D034783978621C02F0C6
:1053B00007028A4223D0184D327003CB05EBC40E8E
:1053C00045F83400CEF80410FFF73EFD114C124DA5
:1053D00038783378834219D005EBC000FFF7B6FD6B
:1053E000A0B1237805EBC30255F833005168FFF7ED
:1053F00025FD2378013303F007032370E8E7FFF767
:10540000D9FC064B35703D701D605D6009B0F0BD84
:105410009994FF1F9894FF1F5094FF1F9094FF1FB3
:10542000F8B50446002855D00025012620787328B9
:1054300004F1010706D804283BD201280AD002282B
:1054400019D0F8BD752831D027D3A0F184036F2B74
:1054500032D9F8BD637803F12002D2B2072A04F1F1
:10546000020706D803F007039840C0B200F092F993
:1054700010E018461DE0607800F12003DBB2072B36
:1054800004F102071AD800F0070006FA00F0C0B2D3
:1054900000F088F900F0B8F912E0A71C64787CB13C
:1054A0006420013C02F077FBE4B2F8E7657802344F
:1054B00007E0FFF711F903E000F07F00FFF7BCF908
:1054C0003C462F46002FB1D06420013F02F063FB21
:1054D000FFB2F7E7F8BD704708B5FFF7FCFF08BD5E
:1054E00008B5FFF7F9FF034B1860BDE80840FFF768
:1054F00041BC00BFD094FF1F7047FFF7F1BF000011
:10550000024B1B681843FFF7EBBF00BFD094FF1F8F
:10551000024B1B681840FFF7E3BF00BFD094FF1F8A
:10552000024B1B685840FFF7DBBF00BFD094FF1F42
:10553000704708B5FFF7FCFF08BD000008B5FFF78E
:10554000F8FF034B1860BDE80840FFF713BC00BF2D
:105550009C94FF1F0020FFF7F1BF012303FA00F026
:10556000FFF7ECBF012303FA00F0024B1B6818435E
:10557000FFF7E4BF9C94FF1F012303FA00F0034BE5
:105580001B6823EA0000FFF7D9BF00BF9C94FF1FF0
:10559000012303FA00F0024B1B685840FFF7CEBF0F
:1055A0009C94FF1F024B1B681843FFF7C7BF00BF47
:1055B0009C94FF1F024B1B681840FFF7BFBF00BF42
:1055C0009C94FF1F024B1B685840FFF7B7BF00BFFA
:1055D0009C94FF1F70470000C0F3072337B500EB12
:1055E000C30000F0FF0000F00702012303FA02F2FB
:1055F000C0080A4B00EB8000D2B21844002410F817
:10560000015F21FA04F343F300036B4013400134BC
:105610006B40052C0370F2D103B030BD9F94FF1F87
:10562000C0F3072313B500EBC30000F0FF0000F048
:105630000704094BC00800EB800000210344084622
:105640005A5CE24002F001028A4001311043052910
:10565000C0B2F5D102B010BDA094FF1F73B50E4BC0
:10566000ADF804001E680D4B1B681F241E4326FA6C
:1056700004F3DB0704D414F1FF34F8D2002507E06B
:10568000E5B201992846FEF71DFC80B20128F2D050
:10569000284602B070BD00BF9C94FF1FD094FF1F2E
:1056A00007B5ADF804000198FFF7D8FF0199FEF7A0
:1056B00009FC03B05DF804FB13B50E4BADF8041004
:1056C0001B781BB10198FFF7EBFF11E040B1019887
:1056D000FFF7C4FF044601460198FFF77DFF03E092
:1056E0000198FFF79DFF044601992046FEF7EAFB6B
:1056F00002B010BD4A94FF1F00207047024B93F97F
:105700000000C0F3C7007047D494FF1F024B187805
:1057100000F00700704700BFD494FF1F034B1878B8
:1057200010F0070018BF0120704700BFD494FF1F7E
:10573000014B1878704700BFD894FF1F024A1378B6
:1057400018431070704700BFD894FF1F024A1378A7
:1057500023EA000010707047D894FF1F014B00220D
:105760001A707047D894FF1F024A137818431070BC
:10577000704700BFD594FF1F024A137823EA000048
:1057800010707047D594FF1F014B00221A707047AC
:10579000D594FF1F024A137818431070704700BF5A
:1057A000D794FF1F024A137823EA00001070704755
:1057B000D794FF1F014B00221A707047D794FF1F28
:1057C000014B1878704700BFD694FF1F704708B58B
:1057D000FFF7FCFF08BD000008B5044B19788142B3
:1057E00002D01870FFF7F3FF08BD00BFD694FF1F6B
:1057F00008B5044B1A781AB100201870FFF7E7FFBC
:1058000008BD00BFD694FF1F10B50D4A0D4B11788F
:105810000D4A186812780A430C49097811430C4A5A
:10582000017012781C4632B10A43027000F0BAF8D7
:1058300008B1FFF7DDFF2068BDE81040FEF74ABE63
:10584000D894FF1F3090FF1FD594FF1FD794FF1FE0
:10585000D694FF1F704708B5FFF7FCFF08BD000096
:1058600010B5064C41EAC0012170FFF77BFE94F9A8
:105870000000C0F3C700FFF7EEFF10BDD494FF1F78
:1058800008B5034B00201870FFF7E5FF08BD00BF07
:10589000D494FF1F08B50A4A92F9003023EA0000A9
:1058A00040B2107042070AD1DBB2834207D0C0F386
:1058B000C700FFF761FEBDE80840FFF7E1BF08BD84
:1058C000D494FF1F08B5002000F01CFA4FF6ED63DA
:1058D000C31A5842584108BD022000F001BA0146DF
:1058E000022000F039BA032000F0FAB90146032083
:1058F00000F032BA042000F0F3B90146042000F0B1
:105900002BBA062000F0ECB90146062000F024BABC
:1059100001460F2000F02EBA0146132000F02ABAEB
:105920000020FFF7F9BF08B50020FFF7F1FFFFF7F0
:10593000F7FF08BD10B54FF6ED61002000F00EFA3C
:105940000021022000F008FA00210320002400F0CA
:1059500003FA124B214604201C6000F0FDF9214699
:10596000052000F0F9F92146062000F0F5F9FF21A5
:10597000072000F0F1F92146082000F0FBF921464C
:105980000D2000F0E9F92146182000F0F3F9214636
:10599000172000F0E1F9FFF7C6FF10BDD094FF1FFC
:1059A000FFF7C8BF0C4B1B78821C33B10B4B1B7825
:1059B000DB090CBF06231E2300E006230020013B69
:1059C000DBB2FF2B06D012F8011B0029F7D0013003
:1059D000C0B2F4E7704700BF3A90FF1F1095FF1F59
:1059E00070B50022441C4FF0FF3314F8015F8D4264
:1059F00056B20DD0B3F1FF3F02D1002D08BF3346A0
:105A00000132062AF1D15A1C02D00344997070BDAC
:105A100070BD10B5431C0022073013F8014F8C42B3
:105A200008BF1A708342F8D110BDCB081D2B08D8CF
:105A3000184401F00701012303FA01F183781943A7
:105A400081707047CB081D2B09D8184401F007015D
:105A5000012303FA01F1837823EA01018170704781
:105A600010B4084C247803460A4634B1064C247816
:105A7000E40902D010BCFFF7D8BF1146184610BC8D
:105A8000FFF7AEBF3A90FF1F1095FF1F10B4084CF0
:105A9000247803460A4634B1064C2478E40902D03F
:105AA00010BCFFF7CFBF1146184610BCFFF7B1BFBF
:105AB0003A90FF1F1095FF1F084B1A78831C42B1C4
:105AC000074A1278D20904D01E2200211846FDF799
:105AD000FBBE0022C0F802209A8070473A90FF1F58
:105AE0001095FF1F704708B5FFF7FCFF08BD08B50C
:105AF000FFF7F9FF40F2A460BDE8084002F04BB8A0
:105B00007047704710B5FFF7FBFFFDF7EBFFFFF79E
:105B1000F8FF0024E0B2FEF77DF818B90134092C33
:105B2000F8D110BD012010BD704708B5FFF7FCFF8C
:105B300008BD000008B5FFF711FEFFF725FE084B72
:105B40001868FFF7B9FF00F073FC0020FEF7E4FCD3
:105B50000020FEF7F1FC00F017FEFFF7E6FF08BD9E
:105B60003090FF1F202383F31188064B996A00238E
:105B700083F31188044A1160044A1360044A1360D5
:105B8000704700BFE89BFF1F0095FF1FFC94FF1F9D
:105B90000495FF1FFFF7E6BFF0B5202383F31188BC
:105BA000124B9C6A002383F31188114D114E2B6810
:105BB0003268DFF848E0346023449B1A4FF47A7768
:105BC00007FB03F10C4ADEF8000001F5C3319F31F9
:105BD000B1FBF2F14A43084402F2E732B2FBF7F2BA
:105BE0009B1ACEF800002B60F0BD00BFE89BFF1FA2
:105BF000FC94FF1F0095FF1FA08601000495FF1F66
:105C000008B5FFF7C9FF80B208BD10B50446FFF71D
:105C1000C3FF001B80B210BD0A4B0B4A30B503F125
:105C2000100518685968144603C40833AB4222466D
:105C3000F7D118689B88A380044B2060044ADA607F
:105C400030BD00BF409E000000E0034000ED00E0DA
:105C50000400FA05024B1960024B1860704700BF40
:105C60000895FF1F0C95FF1F024A5378DB07FCD5F0
:105C7000704700BF000002407FB5174B6A4603F132
:105C800010066D4618685968144603C40833B342B9
:105C90002246F7D1114C6378990703D444F6216367
:105CA0000E4913E08023E3713923E3720323A372C7
:105CB00072B645F001032046984762B6237813F088
:105CC0007003EBD0237004E0013B02D04A78D20786
:105CD000FAD504B070BD00BF569E0000000002401F
:105CE0001F2810B5044609D8054B5B78DB0701D4A3
:105CF000FFF7C2FF04F1A054207810BD002010BDB2
:105D0000000002401E2810B5044609D8054B5B78F8
:105D1000DB0701D4FFF7B0FF04F1A054208810BDC9
:105D2000002010BD000002401F2838B504460D4673
:105D30000FD8084B5B78DB0701D4FFF79DFF04F118
:105D4000A0542378AB4204D02570BDE83840FFF75B
:105D50008BBF38BD00000240FFF7E6BF38B50546EF
:105D60000C46C9B2FFF7E0FF210A681CBDE83840C5
:105D7000FFF7DABF38B505460C46C9B2FFF7D4FFC6
:105D8000C4F30721681CFFF7CFFFC4F30741A81C29
:105D9000FFF7CAFF210EE81CBDE83840FFF7C4BF7B
:105DA0002DE9F34100250746EEB23046FDF732FFFC
:105DB0000024804648FA04F2D207E3B203D4013447
:105DC000082CF7D10BE08DF804308DF805600199AF
:105DD0000020FEF761F88742F1D1012003E0013590
:105DE000092DE1D1002002B0BDE8F08110B50446D4
:105DF0002C20FFF7D5FF20B12046BDE81040FFF76B
:105E0000CFBF10BD10B5FFF75DFD08B9FFF7C8FDA6
:105E10006524013C14F0FF0406D0FDF763FE4FF447
:105E20007A7001F0B8FEF4E72920FFF7DFFF0028C1
:105E300040F0EB802A20FFF7D9FF08B1FFF7B0FD53
:105E40000520FFF7D3FF08B1FFF7E6FEFFF744FD9B
:105E50006E4C20700720FFF7C9FF50B31B20FFF7DF
:105E6000C5FF38B12378C3F3400282F0010262F328
:105E700041031DE00E20FFF7B9FF38B12378C3F3CB
:105E8000800282F0010262F3820311E01020FFF72A
:105E9000ADFF237830B1C3F3C00282F0010262F398
:105EA000C30305E0C3F3000282F0010262F30003C2
:105EB00023702078564CFFF712FDFFF71BFD208062
:105EC000E020FFF793FF38B12378C3F3000282F09C
:105ED000010262F3000323703920FFF787FF38B116
:105EE0002378C3F3400282F0010262F3410323707E
:105EF000E220FFF77BFF38B12378C3F3800282F002
:105F0000010262F382032370E620FFF76FFF38B1CE
:105F10002378C3F3C00282F0010262F3C30323704B
:105F2000E320FFF763FF38B12378C3F3001282F058
:105F3000010262F3041323703520FFF757FF38B1D5
:105F40002378C3F3401282F0010262F345132370F9
:105F50003120FFF74BFF38B12378C3F3801282F072
:105F6000010262F3861323701120FFF73FFF38B15F
:105F70002378C3F3C01282F0010262F3C7132370C7
:105F80002078FFF7BAFC2720FFF730FF04461E20D9
:105F9000FFF72CFF10B144F00204E4B21F20FFF71A
:105FA00025FF10B144F00404E4B22020FFF71EFFE7
:105FB00010B144F00804E4B22120FFF717FF10B13C
:105FC00044F01004E4B22220FFF710FF10B144F0B7
:105FD0002004E4B22320FFF709FF10B144F040048D
:105FE000E4B22420FFF702FF18B164F07F04E4B2AA
:105FF00000E024B12046FFF779FC204601E0FFF7DE
:1060000072FCBDE81040FFF778BA10BDF994FF1F8D
:106010001095FF1F1A4B1B78D90706D5194B187816
:1060200000EB8000C0F38F001EE09A0706D5154BE9
:10603000187800EB8000C0F34F0015E05B0704D533
:10604000104B187800EB80000EE00F4B1B787BB1F3
:106050000E4A10788342F3D20A4A127802EB820287
:10606000534393FBF0F080B27F2804D808B904E0D2
:106070000520C0B270477F2070470120704700BFE5
:106080001295FF1F3590FF1F1995FF1F3690FF1FB8
:10609000154B1B78D90703D5144B1878800819E0E5
:1060A0009A0703D5114B1878400813E05B0702D517
:1060B0000E4B18780CE00E4B1B786BB10D4A127822
:1060C0009342F5D20949087810FB03F393FBF2F0F1
:1060D0007F2804D808B904E00120C0B270477F20AF
:1060E00070470120704700BF1295FF1F3890FF1FB7
:1060F0001995FF1F3490FF1FF02808B503D1FFF753
:1061000089FF404203E0F12804D1FFF783FF324BBF
:10611000D87008BDF22803D1FFF77CFF404203E0AE
:10612000F32804D1FFF776FF2B4B987008BDF928B0
:1061300002D1FFF7ADFF04E0FA2805D1FFF7A8FF71
:106140004042254B187108BDFB2803D1FFF7A0FF83
:10615000404203E0FC2804D1FFF79AFF1E4B587120
:1061600008BDF42804D11C4A537843F001031AE017
:10617000F52804D1184A537843F0020313E0F628B7
:1061800004D1154A537843F004030CE0F72804D1F6
:10619000114A537843F0080305E0F82805D10E4A68
:1061A000537843F01003537008BDFD2804D10B4A07
:1061B000137843F001030CE0FE2804D1074A13785A
:1061C00043F0020305E0FF2804D1044A137843F0AA
:1061D0000403137008BD00BF1395FF1F1295FF1F26
:1061E000F028424B06D193F90320002A6DDA0022F1
:1061F000DA706AE0F12804D193F90320002AF6DC72
:1062000063E0F22806D193F90220002A5DDA002229
:106210009A705AE0F32804D193F90220002AF6DCA0
:1062200053E0F92806D193F90420002A4DDD00221D
:106230001A714AE0FA2804D193F90420002A44DABA
:10624000F5E7FB2806D193F90520002A3DDA002264
:106250005A713AE0FC2804D193F90520002AF6DCB3
:1062600033E0F42803D15A7822F0010216E0F52831
:1062700003D15A7822F0020210E0F62803D15A78AE
:1062800022F004020AE0F72803D15A7822F008022B
:1062900004E0F82804D15A7822F010025A7014E071
:1062A000FD2804D112490A7822F001020CE0FE28F0
:1062B00004D10F490A7822F0020205E0FF2804D138
:1062C0000B490A7822F004020A7093F90230074A57
:1062D00053B992F903303BB992F9043023B992F9DA
:1062E00005300BB9034A1370704700BF1395FF1FA9
:1062F0001295FF1F1995FF1F08B50448FEF702F914
:10630000FFF77EFC024B188008BD00BF1395FF1FEE
:106310001A95FF1F414B10B51888FFF776FC404BCC
:106320001A78194612B13F4B1B7804E03E4B1B789C
:1063300003EB83035B0083426FDC3C4C94F9023037
:1063400063B994F90300002864D194F9040000288B
:1063500060D194F9050000285CD110BDFF2A01D05E
:1063600001320A70002B02DDFFF754FEA07094F991
:106370000230002B04DAFFF74DFE2C4B40429870A0
:1063800094F90330002B03DDFFF744FE274BD87050
:1063900094F90330002B04DAFFF73CFE234B404214
:1063A000D87094F90220214972B191F9030058B1D3
:1063B000B5235A43121203FB00F308BF01221B123C
:1063C00008BF01238A70E37094F90430002B03DDC9
:1063D000FFF75EFE154B187194F90430002B04DAB8
:1063E000FFF756FE114B4042187194F90530002B0F
:1063F00003DDFFF74DFE0D4B587194F90530002B6E
:1064000004DAFFF745FE094B40425871BDE81040E1
:10641000FFF772BFFF2AA3D1B2E710BD1A95FF1F85
:106420001995FF1F3990FF1F3790FF1F1395FF1F0E
:10643000044A002313609380034A1370034A1370C5
:10644000704700BF1395FF1F1995FF1F1295FF1F7F
:10645000013805281ED8DFE800F0030507090B14F2
:106460000D4A06E00D4A04E00D4A02E00D4A00E044
:106470000D4A13781944FE29CABFFF231170137007
:1064800070470A4B1A781144FE2901DC19707047D5
:10649000FF221A70704700BF3790FF1F3990FF1F0F
:1064A0003590FF1F3690FF1F3890FF1F3490FF1F5D
:1064B000013805281AD8DFE800F003080A0C0E108E
:1064C0000B4A13788B420FD90BE00A4A06E00A4ABE
:1064D00004E00A4A02E00A4A00E00A4A13789942B4
:1064E00002D2591A1170704700231370704700BF11
:1064F0003790FF1F3990FF1F3590FF1F3690FF1F09
:106500003890FF1F3490FF1F431F10B53E2B00F241
:106510008780DFE803F02E233683858583858558C1
:1065200085616A85858585838585838548858578A8
:1065300078787878787878787E852E208585858536
:106540008585858585857E8585838576767676764F
:10655000767676767E00FFF723FA5FE0314A13788D
:1065600003F0F1036FF3000313702F4B0120187039
:1065700010BDFEF71FFC2D4801F00DFBFFF74CFB93
:106580004CE028490B78DA4302F0010262F3000381
:106590000B70002A42D10B7862F3410362F382034D
:1065A00062F3C3032BE01F490B7883F00202C2F3AE
:1065B000400262F341030B7082B31A4A137843F02E
:1065C000010313702AE017490B7883F00402C2F329
:1065D000800262F38203EEE712490B7883F008022F
:1065E000C2F3C00262F3C303E5E7FEF7E3FB104921
:1065F0000B78C3F3C01282F0010262F3C7130B7071
:106600000CE0393800E01D38C0B2012404FA00F073
:1066100000E00120FEF771FFFEF7CCFB012010BD6A
:10662000002010BDF994FF1F1C95FF1FA0860100DC
:106630001095FF1F00207047002070471E38C0B221
:1066400009289ABF014B185C002070479CA50000E8
:10665000F8B5454E3478012C054637460DD002D3A7
:10666000022C2FD075E0FFF763F8222874D128465A
:10667000FFF7E0FF002875D107E0FFF759F822285F
:10668000284606D1FFF7D6FFC0B92846FFF73CFFE2
:1066900015E0FFF7D1FF88B9142D0CD006D80B2DCB
:1066A00060D0102D5CD1022333705BE0292D02D025
:1066B000382D57D054E000233B7051E0204600F0C5
:1066C0000100F8BD29282ED020D814282BD014D8AA
:1066D000072843D1254B1E221A70254B32221A70EF
:1066E000244B0A221A70244B14221A70234B0822BE
:1066F0001A70234B28221A7030E0A0F11E05052DD8
:106700002CD8FFF79BFF1F4B187027E04E281AD09C
:1067100003D84B2822D10A2110E051280CD052284E
:106720001CD101210AE0174B1A78012012B1002276
:106730001A70F8BD3870F8BD012105E0114B1878CA
:10674000FFF786FE0AE00A210E4B1878FFF7B0FE2D
:1067500004E000203070F8BD0020F8BD0120F8BD35
:106760000020ACE70120AAE71C95FF1F3790FF1F10
:106770003990FF1F3590FF1F3690FF1F3890FF1F85
:106780003490FF1F1D95FF1F08B5FFF79BF808B950
:10679000FFF706F9FFF7B5F8084B072888BF032273
:1067A000187084BF62F3470018701B7813F0010063
:1067B00018BF5808BDE8084000F0CEBD1E95FF1F69
:1067C00010B50A4C23785A08022ADEBF013262F360
:1067D00047032370207840F001002070FFF794F801
:1067E0002078BDE81040400800F0B6BD1E95FF1FA0
:1067F00010B50C4C207843080ED07F3363F347006C
:10680000C0B210F0FE0F14BF0123002363F3000099
:106810002070C0B2FFF778F82078BDE8104040083B
:1068200000F09ABD1E95FF1F10B50C4C2378DA07B7
:1068300012D443F00103012B04BF1A4663F347024D
:10684000237008BF22702078FFF75EF82078BDE83B
:106850001040400800F080BD10BD00BF1E95FF1F16
:1068600008B5084B1878C2070AD56FF300001870F6
:10687000C0B2FFF749F80020BDE8084000F06CBD49
:1068800008BD00BF1E95FF1F034B1B78DB0701D51A
:10689000FFF7E6BFFFF7C8BF1E95FF1F10B5104CEE
:1068A0002378C3F34602013202F07F02032A94BF29
:1068B00062F347036FF347032370207810F0FE0F55
:1068C00014BF0123002363F300002070C0B2FFF760
:1068D0001BF82078BDE81040400800F03DBD00BF27
:1068E0001E95FF1F10B50C4C0328237828BF0320EA
:1068F00060F34703D8B210F0FE0F14BF012300234A
:1069000063F300002070C0B2FEF7FEFF2078BDE800
:106910001040400800F020BD1E95FF1F044A137868
:1069200003F0FB03012B02BF024B52781A80704721
:106930003495FF1F3695FF1F202383F31188002312
:1069400083F311887047000038B5094C1046224681
:10695000002542F8045F40EA0120194600F04EFA93
:1069600063682060AB4214BF2046284638BD00BF94
:106970008495FF1F022938B505460C4602D005292B
:1069800010D038BD202383F31188084A012101F07B
:1069900002FC074A2146284601F0FDFB002383F351
:1069A000118838BDBDE83840FFF7C4B8DCA5000049
:1069B000B8A5000070B504460648C3680D460BB183
:1069C00000F032FF2B462146034A0248BDE87040E2
:1069D00000F010BF3895FF1FDD69000038B505468F
:1069E000202383F311880378042B1FD1114B1B78CC
:1069F000DB091BD1104B1A781C46BAB10F4B1B7820
:106A0000A3B103899B0704D408230D4A012101F097
:106A100017FC0C4B2078584300F2E7304FF47A73A0
:106A20002946B0FBF3F08000FFF7C4FF002383F397
:106A3000118838BD1095FF1F6C95FF1F3A90FF1FFE
:106A40004C95FF1FA086010038B590F8D43003F0B4
:106A50007F02212A04467CD123F07F0303F0FF024A
:106A600063B3002A75D090F8D50002281ED0032801
:106A700011D001286DD194F8D83033B94B4AC4F8FD
:106A8000C8202022C4F8CC208DE00023C4F8C830F0
:106A9000C4F8CC3087E0B4F8D830002B59D1444A40
:106AA000C4F8C8200120C4F8CC007CE0414BC4F8F5
:106AB000C8300120C4F8CC00002374E090F8D53031
:106AC0000A2B3DD00B2B0FD0092B42D190F8D800C8
:106AD00001283ED860D0384BC4F8C8300120C4F833
:106AE000CC00C4F8D02038BDB0F8D83013BB90F833
:106AF000D6502F4B002D14BF0121002119702F4BB0
:106B00001A7861F3C7121A7014D12A4B1A788AB115
:106B1000202282F311881878294B584321464FF4DC
:106B20007A7300F2E730B0FBF3F08000FFF742FF2A
:106B300085F311880023C4F8C830C4F8CC3027E0AE
:106B40001E491C4B097890F8D7201A70CD09DED069
:106B5000F0E7B4F8D42040F281639A4201D00020DB
:106B600038BD94F8D920616894F8D8304D6894F80D
:106B7000D71043EA0223204694F8D620A8470028DD
:106B8000EDD04368C4F8C8300368C4F8CC300023A3
:106B9000C4F8D030012038BD0A4BC4F8C8300223F5
:106BA000C4F8CC30084BC4F8D03038BD4C95FF1F2A
:106BB0003A90FF1F6C95FF1F3695FF1F1095FF1F22
:106BC000A08601003495FF1F1D69000070477047C3
:106BD000114A41F2340310B5D3585B0348BF02F5A4
:106BE0002C32044648BF92F808310C4844BF03F0E9
:106BF000EF0382F8083100F0CEFF0949204601F08A
:106C0000B2FA084A92F8083143F0100382F80831CA
:106C1000054B0022DA6010BD00700440F04902000C
:106C2000A8A50000002007403895FF1F014B1878E9
:106C3000704700BF3695FF1F10B52022044682F32F
:106C40001188204B1978042918464FF0000102D012
:106C500081F3118810BD81F311881B490978C90996
:106C600010D01A49097869B182F311881A8952073C
:106C700004D55B6958690C3000F0AEFF2023224632
:106C800002210EE0202383F3118803899B0705D599
:106C90000C4B1B6958690C3000F09EFF08232246FC
:106CA0000121084801F0CCFA002383F31188084B36
:106CB000224604F1200152F8040B43F8040B8A42E7
:106CC000F9D110BDE09CFF1F1095FF1F3A90FF1FE8
:106CD0004C95FF1F10B52023044683F311880D4BFC
:106CE0001A78042A11D11A89520708D55B695869A4
:106CF0004FF47A710C3000F07DFF013005D006238F
:106D000022460221034801F09BFA002383F31188F5
:106D100010BD00BFE09CFF1F07B52023024683F390
:106D2000118809480378042B08D10323ADF8052006
:106D3000022101AA8DF8043001F082FA002383F3C6
:106D4000118803B05DF804FBE09CFF1F07B520230A
:106D5000024683F3118809480378042B08D18DF883
:106D60000430ADF80520032301AA022101F068FADE
:106D7000002383F3118803B05DF804FBE09CFF1F40
:106D80007047000038B501F083F900F0B3FCFDF75F
:106D9000EEFB1748164CFFF71BFF16490020FEF7C5
:106DA00059FF00F07BFA41F2883000F0F4FEFDF765
:106DB000E6FB1148FDF780FB25462378052B14D10F
:106DC00000F0BAFA2B78052B09D1FEF790FEFEF7FA
:106DD00099FE0028F6D0064801F046FAF2E7FEF7E1
:106DE00013FDFFF789FA00F0AFFAFDF7D5FBE4E7F2
:106DF000E09CFF1F816D00003C90FF1F030A032BE6
:106E00000FD006D8012B09D0022B25D13B20144BE3
:106E100024E0212B0ED0222B15D01DE01220114B87
:106E20001CE0C0B2032817D80F4B104953F820308C
:106E3000085C13E021B101290ED109200C4B0DE0B3
:106E400009200C4B0AE021B1012905D1C0200A4BD1
:106E500004E04020094B01E0002003461360704726
:106E60007EA6000079A700008CA700009CA7000068
:106E7000A9A6000090A60000B9A6000038A6000050
:106E800002680B689A4219D142684B689A4215D140
:106E9000027B0B7B9A4211D182688B689A420DD19A
:106EA000C06820F07F43C86820F07F4020F0FF00DA
:106EB00023F0FF031B1A58425841704700207047C7
:106EC00008B50021044802F05DFF18B1BDE8084094
:106ED00002F086BF08BD00BF5090FF1F002002F0E7
:106EE0003DBE000010B54FF0FF33002201210D4CD4
:106EF000C0F88830C0F88C2080F8921054F8221026
:106F000088420DD0B3F1FF3F02D1002908BF1346DC
:106F10000132042AF2D15A1C1CBF024A42F8230053
:106F200010BD00BF589AFF1F0368C0F888300122C7
:106F3000002380F892200A4AC0F88C3080F8903004
:106F400080F8913052F82310884204D1044A00217D
:106F500042F8231070470133042BF3D1704700BF70
:106F6000589AFF1F00220C4830B51146012450F8F2
:106F7000223063B11D6840F82210C3F88850C3F86E
:106F80008C1083F8924083F8901083F891100132AE
:106F9000042AECD130BD00BF589AFF1F2DE9F04FF5
:106FA000A7B017A802F098FE00229E49DFF884A23D
:106FB0009C4F17A802F09CFE9B4B0FCB0DF11C08B9
:106FC00088E80F00202200210FA8FCF77DFC98E83C
:106FD0000F0011AD85E80F000FA800F063FB934A86
:106FE000159B1693936A04924FF00109049A9AF83C
:106FF0000040926A0192D31A0393B9F1000F05D1B0
:1070000088492846FFF73CFF00283CD1BA7B9DF811
:107010005230934216D0864E6AB103220021306866
:1070200002F025FEBA7B642312FB03F30221032244
:1070300093FBF2F200E01146306802F018FEBB7BD1
:107040008DF852307B4B1B78EBB17B7B63B1FFF744
:1070500089FF00238AF8003097E80F0085E80F00C9
:107060000FA800F00FFB0CE095E80F000BAE86E8D0
:107070000F0097E80F0085E80F0031460FA800F0D9
:10708000F3FA159B16938CB99DF8513073B17B7B45
:1070900063B998E80F0085E80F008DF85140FFF7BD
:1070A00061FF0FA800F0F4FA159B16934FF0FF361E
:1070B0004FF0000B4FF001095F4B53F82B40002CB1
:1070C0006ED0D4F888302268934203D1002384F82C
:1070D000923065E001330AD10023C4F88830A368F8
:1070E000C4F88C3084F8929084F890903DE0D4F805
:1070F0008C30039A9B1AC4F88C300023D4F88C206F
:107100000292002A31DC94F892207AB1D4F88820D7
:10711000C4F88C30123284F8919054F822200593F0
:107120000FA920469047059B84F89130D4F8882019
:10713000216884F8929001328A42C4F8882084F849
:10714000909008D1227912B1C4F8883003E020462B
:10715000FFF7EAFE24E0D4F888200299023254F8BE
:1071600022200A44C4F88C20C8E794F8923063B116
:10717000D4F8883012330FA954F8233020469847AA
:10718000002384F8920084F8903094F8923013B978
:10719000D4F88C3001E04FF47A739E4228BF1E462B
:1071A0000BF1010BBBF1040F86D1214B186802F0E3
:1071B000D9FC9AF80020BAB99DF8513093B91E480D
:1071C0001A4650F822100132002918BF0133042A50
:1071D000DBB2F6D143B9174A4FF0010982F80090AB
:1071E0001E4603E0914601E04FF000090F4B721C70
:1071F0009B6A11D0019A9B1A9E4203D9F61A731CFE
:1072000001D109E000264FF47A735E4306F5C336D8
:107210009F360A4BB6FBF3F6314617A802F0A0FDE5
:10722000019BE3E65090FF1F689E0000E89BFF1F54
:107230008C95FF1F689AFF1F589AFF1FA0860100B8
:1072400070B5D0F888500368AEB001359D4208BFD4
:10725000002506460C469422014609A8FCF79AFA36
:10726000AB1C2B9556F823302C9301238DF8B430AA
:1072700000238DF8B5308DF8B6300FCC01AE0FC6B7
:1072800094E80F0086E80F002EAB03EB850501A9FB
:1072900055F84C3C09A898472EB070BD07B502F0D0
:1072A00047FAFFF71BFE074B1860002300937E226E
:1072B000054B06484FF4996102F0A2FA03B05DF85D
:1072C00004FB00BF8C95FF1F9D6F00009095FF1F72
:1072D00008B1FFF7F5BD704710B5FEF729FA04466F
:1072E000FEF70AFA18B9FEF76BFA2043C4B220463B
:1072F00010BD000030B50F4C85B00293637B009148
:1073000001908DF80D306946A37B8DF80C20204646
:107310008DF80E30FFF7B4FD28B99DE80F0084E822
:107320000F00012000E0002005B0BDE83040FFF76D
:10733000CFBF00BF5090FF1F024B01225A73FFF7CF
:10734000BFBD00BF5090FF1F024B00225A73FFF7D2
:10735000B7BD00BF5090FF1F014B9873FFF7B0BD42
:107360005090FF1F00207047D0F88830023310B4CF
:1073700050F82340D0F88C30521AE31A5A4392FB4B
:10738000F4F20A441104130203F47F4301F47F0171
:107390001943034B10BC1868D2B2114302F0FABB78
:1073A0008C95FF1F2DE9F843DFF82C9080460024D0
:1073B00008EB0417002526B229B23246D9F800009E
:1073C00002F050FC78550135102DF5D10134052C13
:1073D000EED1BDE8F88300BF8C95FF1F08B5FF22F2
:1073E0000021FFF7C1FF012008BD08B50022FF21E1
:1073F000FFF7BAFF012008BDD0F88830023373B51B
:10740000044650F82300FBF74BFF0546D4F88C00E8
:10741000FBF746FF01462846FBF78CFE2946FCF7A2
:1074200047F81D49FBF790FF002406462046FBF76E
:1074300037FF1A49FCF73CF801464FF07E50FBF746
:1074400079FE1549FBF780FF3146FBF775FEFAF729
:107450008FFF4FF07E51FBF76FFE4FF07C51FBF733
:1074600073FF0F49FBF770FFFCF75AF9C0B2020235
:1074700042EA00421043019004230A48009325B2D7
:107480002B46002229460068013402F077FB102CBD
:10749000CCD1012002B070BDDB0FC94000007041AB
:1074A00000007F438C95FF1FD0F88830023373B5FE
:1074B000044650F82300FBF7F3FE0546D4F88C0091
:1074C000FBF7EEFE01462846FBF734FE2946FBF7A4
:1074D000EFFF1D49FBF738FF002406462046FBF767
:1074E000DFFE4FF07A51FBF72FFF01464FF07E5041
:1074F000FBF720FE1449FBF727FF3146FBF71CFE84
:10750000FAF736FF4FF07E51FBF716FE4FF07C5135
:10751000FBF71AFF0D49FBF717FFFCF701F9C0B2A3
:10752000030243EA0043184325B20190084800953E
:107530000F232A4600210068013402F01FFB052CAE
:10754000CCD1012002B070BDDB0FC94000007F43E9
:107550008C95FF1F2DE9F84F90F8903006460C46A9
:107560004BB11F48FFF71EFF30462146FFF768FE6C
:107570001C48FFF717FFDFF868A0DFF86CB00025A4
:10758000184F2B010AEB03091F4400240FFA85F85A
:10759000D6F88830D6F88C1019F80400023356F863
:1075A0002320531A395D091A594391FBF2F3C2188B
:1075B000130403F47F01130203F47F430B43D2B29D
:1075C000134321B24246DBF80000013402F0CFFA47
:1075D000102CDDD10135052DD2D10120BDE8F88F69
:1075E000699AFF1FB99AFF1F8C95FF1F08B5044BBE
:1075F000B4221868012102F03AFB002008BD00BF48
:107600008C95FF1F08B5044B00221868012102F079
:107610002EFB002008BD00BF8C95FF1F08B5044B52
:1076200000221868114602F022FB002008BD00BFAE
:107630008C95FF1F08B5044B03221868002102F047
:1076400016FB002008BD00BF8C95FF1FFFF7C6BECC
:1076500008B5FFF7EFFF002008BD08B5FFF7DEFF14
:10766000002008BDFFF7C1BE044B1A7822B10022EA
:1076700003481A70FFF736BC704700BF1C92FF1F0B
:107680006090FF1F0148FFF72DBC00BF8891FF1FCE
:10769000024B034801221A70FFF724BC1C92FF1F03
:1076A000F490FF1FFFF7F4BF70477047FEE700003C
:1076B0000D4B70B503F180000024A3F1100126C921
:1076C0000439AA4204D251F8046F42F8046BF8E777
:1076D00053F8041C8A4202D242F8044BFAE71033F2
:1076E0008342EAD170BD00BFB0A70000FEE730BF03
:1076F000FDE7000010B51A4C00F0A8F800F06CF897
:1077000000F09EFB00F0CAFB80221649204600F0E4
:10771000ABF9012380F82030134B144AD96844F8A0
:10772000180C21F4E0610904090C0A4300241049F3
:10773000C461DA60CA6842F08072CA600D490A68A2
:1077400042F001020A601022DA77202283F8222018
:1077500084F3118862B60848BDE8104000F0C0B953
:10776000189CFF1F44A8000000ED00E00003FA058C
:10777000F0ED00E0001000E020A800002DE9F0414D
:10778000134CA26992F8233013B1013B82F82330E5
:10779000A36A104D0133A362E369AB4215D09A6826
:1077A000013A9A60A5F11C062027E3699A6862B93C
:1077B0001968D3F80C80DA604D60F16182F31188AA
:1077C0001869C04787F31188EFE7BDE8F08100BF73
:1077D000E89BFF1F049CFF1F054B03F11C02DA61AD
:1077E0001A624FF0FF325A6200229A62704700BF5D
:1077F000E89BFF1F10B5C2600A4A0361D3699C6809
:10780000A14202D9091B1B68F9E75C680360446068
:107810002060586081609868411A99604FF0FF338A
:10782000536210BDE89BFF1F0368826899680A4491
:107830009A604268136003685A600023C360024B79
:107840004FF0FF325A627047E89BFF1F034B002244
:107850001B605B609A601B615B617047E89BFF1F68
:10786000002380F820308268054B1B68996891429C
:10787000FBD25A680360426010605860704700BFD6
:10788000E89BFF1F08B5202383F3118890F8202080
:107890000023072A11D8DFE802F0161010040B07A6
:1078A000100B426A136008E0426A936801339360E8
:1078B00090E80C001A60026853604FF0FF33436297
:1078C000FFF7CEFF002383F3118808BD002380F863
:1078D00020308268054B1B6899689142FBD85A6832
:1078E0000360426010605860704700BFE89BFF1F54
:1078F000084B9969142281F82000186881F8232028
:1079000002681A6053609861012380F82030FAF70A
:107910001BBD00BFE89BFF1F30B54B1C87B0054661
:107920000A4C0DD0A3690A4A01A8FFF763FF284655
:10793000FFF7DEFF049B2BB101A8FFF775FF01E005
:10794000FFF7D6FFA369586A07B030BDE89BFF1F59
:107950008578000038B50C4D4162AB6981689A6842
:107960009142044603D8BDE83840FFF779BF184676
:10797000FFF776FF0123AC6184F8203001462046F2
:10798000BDE83840FAF7E0BCE89BFF1F084A1368DF
:1079900092699B68906892F8232022B1834294BF39
:1079A000002001207047834234BF0020012070472F
:1079B000E89BFF1F10B50A4C2368A0691A68226073
:1079C00054600122A36183F82020142380F823301F
:1079D000FFF746FF0146A069BDE81040FAF7B4BCC6
:1079E000E89BFF1F10B5094C2368A0691A68226044
:1079F0005460012283F82020A361FFF767FF01464E
:107A0000A069BDE81040FAF79FBC00BFE89BFF1FCC
:107A1000044B1A689B6992689B689A4201D9FFF7E8
:107A2000E1BF7047E89BFF1F0E4B10B51A689869BD
:107A3000116819604B6001219A6182F8201092F858
:107A400023201C462AB9FFF70BFF142380F82330AC
:107A500001E0FFF73BFF0146A069BDE81040FAF7DF
:107A600073BC00BFE89BFF1F8260C263012280F8E5
:107A700022200D4A816130B551690261022480F8EB
:107A8000204014250024416180F8214080F82350D3
:107A9000846344630861506100F12802826200F14E
:107AA0002C02C262026330BDE89BFF1F83684268FC
:107AB00043F82C2CA3F16C0243F83C2C026943F8E8
:107AC0006C2C426943F8682C044A43F84C2C01683A
:107AD000C268A3F14800FFF7C7BF00BF59230000E9
