:1040000060B70020CDA70000C9A70000C9A7000025
:10401000C9A70000C9A70000C9A700000000000050
:10402000000000000000000000000000C9A7000020
:10403000C9A7000000000000C9A70000C9A7000030
:10404000C9A70000C9A70000C9A70000C9A70000B0
:10405000C9A70000C9A70000C9A70000C9A70000A0
:10406000C9A70000C9A70000C9A70000C9A7000090
:10407000C9A70000C9A70000C9A70000C9A7000080
:10408000C9A70000C9A70000C9A700003994000013
:10409000C9A70000C9A70000C9A70000C9A7000060
:1040A000C9A70000C9A70000C9A70000C9A7000050
:1040B000C9A70000C9A70000C9A70000859F00008C
:1040C000C9A70000C9A70000C9A70000C9A7000030
:1040D000C9A70000C9A70000C9A70000C9A7000020
:1040E000C9A70000C9A70000C9A70000C9A7000010
:1040F00000000000C9A70000C9A70000C9A7000070
:10410000C9A70000C9A70000719F0000C9A700004F
:10411000C9A70000C9A70000C9A70000C9A70000DF
:10412000C9A70000C9A70000C9A70000C9A70000CF
:10413000C9A70000C9A70000C9A70000C9A70000BF
:10414000C9A70000C9A70000C9A70000C9A70000AF
:10415000C9A70000C9A7000000000000000000007F
:10416000000000000000000000000000000000004F
:10417000000000000000000000000000000000003F
:1041800009B9000021B9000025B9000029B90000D3
:1041900000000000C9A70000C9A70000C9A70000CF
:1041A000C9A70000C9A70000C9A70000C9A700004F
:1041B000C9A70000C9A70000C9A70000C9A700003F
:1041C000C9A70000C9A70000C9A70000C9A700002F
:1041D000C9A70000C9A70000C9A70000C9A700001F
:1041E000C9A70000C9A70000C9A70000C9A700000F
:1041F000C9A70000C9A70000C9A700003D8E0000A4
:10420000C9A700000000000000000000C9A70000CE
:10421000C9A70000C9A70000C9A70000C9A70000DE
:10422000C9A70000C9A70000C9A70000C9A70000CE
:10423000C9A70000C9A70000C9A70000C9A70000BE
:10424000C9A70000C9A70000C9A70000C9A70000AE
:10425000C9A70000C9A70000C9A70000C9A700009E
:104260000000000010B5054C237833B9044B13B19E
:104270000448AFF300800123237010BD601C0020B0
:10428000000000006CDE000008B5034B1BB10349C1
:104290000348AFF3008008BD00000000641C00204C
:1042A0006CDE000005F096BF01F05FBD70470000B6
:1042B00038B545F6A853984247D00BD845F6A653D3
:1042C00098421CD02FD845F6C343984277D001249A
:1042D000204638BD45F6AA5398424FD042D345F602
:1042E000AB53984256D045F6AC539842EFD18C78F8
:1042F000444D002C5AD004F091FA286001E08B78EC
:104300000BB90024E4E701F0EBF810F0220FF8D02D
:1043100001F0E6F810F0110FF3D03B4B1C780022AF
:1043200084B11A70EDE78B78002BEAD001F0D8F851
:1043300010F0220FE5D001F0D3F810F0110FE0D00B
:10434000324BEBE701221A70C2E78B78002BD8D0F2
:104350002F490B78C3F3000282F0010262F30003DD
:104360000B70CEE78B78002BCBD029490B78C3F3A9
:10437000400282F0010262F34103F1E78B78002BE7
:10438000BFD023490B78C3F3800282F0010262F3AD
:104390008203E5E78B78002BB3D01D490B78C3F37C
:1043A000C00282F0010262F3C303D9E7286804F077
:1043B00049FAB0F5FA7FA4D300F083F888E78B7848
:1043C000002B9ED003F06EFE0D2812D0FF2807D0E0
:1043D000022810D1002003F06BFE03F057FD90E798
:1043E0000D2003F065FE00221146104603F0DAF9B5
:1043F00087E70220F5E7FF2003F05AFE03F034FDC3
:104400007FE700BF7C1C0020322F0020302F0020CF
:10441000501D00200120704708B5FFF749FF08BD77
:10442000704708B5FFF7FCFF08BD000013B502ABED
:1044300003E903000F4B1B78B3B99DF802300098D5
:1044400073B16AB100F0BAFC04460146009800F06E
:1044500071FC0099204602B0BDE8104001F086BA18
:1044600000F08CFC0446F4E7009800F0A7FC0099EB
:10447000F1E700BF801C002003460A4600689988C7
:10448000FFF7D4BF0120704710B500210446FFF7A5
:10449000F3FF2146FFF7C5FF10BD08B501F034FC5E
:1044A00000F078F803F06AFCBDE8084001F04DBC6C
:1044B00001F050BC7047704708B5FFF7FCFF08BD1E
:1044C000704708B500F06AFBFFF7FAFFFA200021F9
:1044D00004F0D4FDBDE8084004F0C6B938B50121A8
:1044E0000546FFF7C9FF29460446FFF795FF08B9BF
:1044F000002038BD2946204604F018F80028F7D0DF
:104500002946204603F06EFE0028F1D029462046B9
:1045100003F08CFF0028EBD02946204603F0D2FDA3
:104520000028E5D0AB785BB145F65B539C421CD0CC
:104530000AD8B4F5B84F12D045F6DF439C4211D0EB
:104540002846FFF767FFD4E745F65C539C420FD03F
:1045500045F65D539C42F3D101F0B8F8F0E7FFF760
:10456000B0FFC5E701F044F9C2E701F0BBF8E7E7A7
:1045700001F0BBF8E4E708B5FFF79CFF08BD704702
:1045800008B5FFF7FCFF08BD0120704708B5FFF72D
:10459000FBFF08BD704710B50446FFF7F1FF20464A
:1045A000FFF7F4FF10BD10B586B06C4684E8030039
:1045B0009DF802300BB100F0BFFF0023ADF81630BC
:1045C00094E80300ADF8141089B20490ADF80C0023
:1045D00004AC29B994E8030000F0E6FE06B010BD73
:1045E000BDF80C204FF6FF739A42F3D02046FFF738
:1045F00049FF0028EED1F1E7008800F0FDBB000084
:1046000010B50446002839D0031FDBB2A02B11D807
:104610001B4B0146186804F025F820B1204600F035
:1046200037FF00F0CFFF204600F02AFFBDE8104022
:1046300000F0C8BF00F12003DBB2072B07D800F061
:1046400007040120A040C0B200F050FFEEE700F1E7
:104650005B03DBB2022B05D80A4ABDE81040D05CF0
:1046600003F0CABF5834E4B2162C07D8054B03EB4D
:104670004404A088BDE8104003F0CABF10BD00BFCD
:10468000C00100200CDA000008B5034648B3021F41
:10469000D2B2A02A05D800F0FBFEBDE8084000F029
:1046A00091BF00F12002D2B2072A07D800F0070319
:1046B00001209840C0B200F021FFEEE700F15B025C
:1046C000D2B2022A04D80020BDE8084003F094BF0B
:1046D0005833DBB2162B04D80020BDE8084003F0A5
:1046E00097BF08BD38B505460C46FFF789FF24B9CA
:1046F0002846BDE83840FFF7C7BF01200021013C34
:1047000004F0BCFCA4B2F2E739280CBF5021002110
:10471000FFF7E8BF08B528B100F0E8FEBDE80840A3
:1047200000F050BF08BD08B528B100F0E7FEBDE8B5
:10473000084000F047BF08BD2DE9F0478046877963
:1047400085780C4600F0C2FE3F098146C8B1A946F3
:10475000BDB1C4F3072303F0F003402B04D004F1F0
:104760002003DBB2072B22D9AC4B5B785E071ED44B
:10477000022000F077FF00F0A9FE80F001005FFA50
:1047800080F9C4F303330F2B43D8DFE813F0130091
:10479000130064006400CA00420042004200E000CE
:1047A000370149014901A00142004200A9014FF02F
:1047B0000009E6E7C4F30723C4F3032613F0F00F60
:1047C00018BF3601E7B295B156B107F12003DBB24D
:1047D000072B304600D93FB900F088FE00F0F2FE0A
:1047E0003846FFF70DFF14E000F096FEF6E7384676
:1047F000FFF74AFF6EB107F12003DBB2072B30460B
:1048000000D917B900F07AFE01E000F08DFE00F04B
:10481000D9FEC4F30334083C032C03D803F0DCFEB8
:10482000FFF7B9FEB9F1000F00F0618100F046FE1C
:1048300010F0010040F05B8188F8020000F036FEC5
:1048400000F03EFA404600F069F900F02FFEBDE8A6
:10485000F04700F03FBAC4F3072303F0F003C4F3BA
:104860000326202B5FFA84FA18BF3601BAF1000F35
:104870000FD0BAF1010F3CD0002D44D0002F3BD017
:1048800098F80630D9073CD56FF3071388F806303F
:1048900032E0624B5B7858070FD53DB126B1304608
:1048A00000F024FE00F08EFE00209AE72846FFF775
:1048B000EBFE002EADD03046A4E785B137B900F04D
:1048C00057FE3043C0B2FFF725FFA2E7012FF6D114
:1048D00000F04EFE3043C0B200F056FE99E72FB90B
:1048E00000F064FE3046FFF71EFF92E7012F90D0E4
:1048F000F6E71DB1052F8CD83046E4E7042F88D8A1
:10490000F0E750466DE7002FECD0BAF1390F0CBF3D
:1049100050200020002104F0B1FB5046FFF7B4FE08
:1049200077E7C4F3812343B1012B7FF472AF65B104
:10493000C4F3090003F06CFE6BE725B1C4F3090072
:1049400003F05AFE65E72846FAE72846F2E714F432
:10495000407F25D1002D7FF45CAFE206C4F3421006
:1049600048BF0F254FEA800048BF854004F00F0381
:10497000C4F3812248BFED438340022A45EA030085
:1049800008D00AD8012A02D000F070F941E700F0FF
:1049900065F93EE700F072F93BE700F05CF938E7B3
:1049A000C4F30122D3B2F5B102F00103002B3FF4AE
:1049B00030AFC4F34210830004F00F0000FA03F29A
:1049C00014F010001CBF0F209840C4F3812318BFBF
:1049D000C043022B40EA02000AD00CD8012B04D0BD
:1049E00000F096F915E75B08E0E700F089F910E7B9
:1049F00000F096F90DE700F04FF90AE7E7B2C4F3CB
:104A0000032625B1304600F05BF938465BE73846AF
:104A1000FFF789FE304600F05DF9FAE6D225002066
:104A2000E6B2A6F1F003042B3DD8DFE803F0032241
:104A30000E151E003DB1042F3FF6EBAEC4F304206B
:104A400000F054F9E5E6052FF6E7C4F30420002D45
:104A5000E1D100F035F9DCE625B1C4F3042000F023
:104A60002AF9D6E600F024F9D3E6224B5B785B07FF
:104A700004D5C4F30420002DCDD0EAE74DB1C4F332
:104A80000425284600F01CF90321284600F0C6FD45
:104A9000BFE6012000F0E6FD012F7FF6BAAE02204E
:104AA00000F0E0FDB5E62DB10FB1304699E6C4F354
:104AB0000420CEE747B1392E0CBF50200020002142
:104AC00004F0DCFA304629E7C4F30420A3E7C4F37A
:104AD0000322E1B2404600F045FF00F0BDF998E640
:104AE000C4F30322E1B2404600F03EFF91E6BDE888
:104AF000F08700BFD225002038B5044601888078B1
:104B000000F086F9054600F013F900F0A3F82946F5
:104B10002046BDE83840FFF70FBE000013B583887C
:104B20000288ADF804200446EBB1BDF804204FF62E
:104B3000FF739A4217D0FFF7D1FC70B900F0C6FCA2
:104B400088B1A3787BB1094B5B785B070BD402205B
:104B500002B0BDE8104000F085BD2046FFF7CCFF55
:104B60002046FFF791FC02B010BD00BFD225002007
:104B700008B5002003F040FD002003F049FD00F0DF
:104B8000DBFC00F0EFFCBDE8084000F01BBD08B501
:104B900000F086FCBDE80840FFF7EABF08B500F06A
:104BA000B5FCBDE80840FFF7F2BFC0F303330E3396
:104BB00003F00F020D2A10B522D8012101FA02F3E9
:104BC00013F4105FC4B218D140F20332134203D180
:104BD00013F010000DD110BDF02C13D004D8E72C29
:104BE0008CBF00200120F6E7F42C14BF0020012028
:104BF000F1E7E72C06D9F12CF7E7C0F3C020EAE78C
:104C00000020E8E70846E6E708B5008800F0F4F879
:104C1000BDE80840FFF7C9BF82B002AB03E903005B
:104C200002B0704782B002AB03E9030002B07047E4
:104C3000704708B5FFF7FCFF08BD000008B5FFF797
:104C4000F8FF034B1860BDE80840FFF791BF00BFB5
:104C5000841C00207047FFF7F1BF0000024B1B6867
:104C60001843FFF7EBBF00BF841C0020024B1B68FA
:104C70001840FFF7E3BF00BF841C0020024B1B68F5
:104C80005840FFF7DBBF00BF841C0020FFF7D0BFF8
:104C900008B5FFF7FBFF08BD08B5FFF7F9FF034BA9
:104CA0005860BDE80840FFF763BF00BF841C0020C8
:104CB0000020FFF7F1BF012303FA00F0FFF7ECBF7C
:104CC000012303FA00F0024B5B681843FFF7E4BFCF
:104CD000841C0020012303FA00F0034B5B6823EAE5
:104CE0000000FFF7D9BF00BF841C0020012303FA96
:104CF00000F0024B5B685840FFF7CEBF841C0020D9
:104D0000024B5B681843FFF7C7BF00BF841C00203D
:104D1000024B5B681840FFF7BFBF00BF841C002038
:104D2000024B5B685840FFF7B7BF00BF841C0020F0
:104D300070470000C0F3072337B500EBC30000F055
:104D4000FF0000F0070301229A40C0080A4B00EB65
:104D50008000D2B218440024057821FA04F343F30A
:104D600000036B40134001346B40052C00F8013BFD
:104D7000F2D103B030BD00BF8C1C0020C0F307236C
:104D800013B500EBC30000F0FF0000F007040A4970
:104D9000C00800EB800000220144104611F8013BDE
:104DA000E34003F00103934001321843052AC0B2E7
:104DB000F4D102B010BD00BF8C1C002073B50D4BA8
:104DC000ADF80400D3E900361F241E4326FA04F38D
:104DD000DB07E5B206D414F1FF34F7D200252846EC
:104DE00002B070BD0199284600F09EFE80B20128F5
:104DF000F1D0F4E7841C002007B5ADF80400019859
:104E0000FFF7DCFF019903B05DF804EB00F08CBE06
:104E100013B5104BADF804101B782BB1019802B0FC
:104E2000BDE81040FFF7E8BF70B10198FFF7C6FF7B
:104E3000044601460198FFF77DFF0199204602B024
:104E4000BDE8104000F070BE0198FFF797FF0446E0
:104E5000F3E700BF801C0020F8B5034660B10025D1
:104E600001261C4614F8010B732806D8042828D202
:104E700001280FD0022827D0F8BD75283ED032D3A4
:104E800000F17C03DBB26F2BF6D800F07F00FFF758
:104E9000FBFB0EE09C1C5B7803F12002D2B2072AD8
:104EA0000ED803F007039840C0B200F04BFB00F0AF
:104EB00089FB2F46013FFFB2FF2F22D12346D0E7C7
:104EC0001846FFF79DFBF4E758789C1C00F120037F
:104ED000DBB2072BDBD800F0070006FA00F0C0B207
:104EE00000F038FBE3E75F789C1C013FFFB2FF2F27
:104EF000DFD00120002104F0C1F8F6E79C1C5D78AA
:104F0000D7E70120002104F0B9F8D3E738B5094DFF
:104F10002C7895F84230A34200D138BD05EBC4038C
:104F20000134D3F80200D3F80610FFF77BFE04F03B
:104F30000704EEE7C41C0020024B586C996CFFF785
:104F400071BE00BFC41C0020F7B5254B93F84A2062
:104F500012F0F00F0AD193F846203AB11A78214F97
:104F60004FF6FF7693F84210914201D103B0F0BDA5
:104F7000B3F8480078B393F8441093F845408DF89F
:104F800004108DF80540BDF80450B54223D003EB62
:104F9000C20595F803C0A4451DD1AC788C421AD146
:104FA0002979C1B9E988091A388889B2884212D9A1
:104FB00093F84A100C48012262F3071183F84A1053
:104FC0002B7A62F307132B72FFF7A8FD03B0BDE83D
:104FD000F040FFF79BBF013202F00702C2E700BFBB
:104FE000C41C0020BE010020081D00202DE9F04F48
:104FF000C64E044691B0B6F848300068B6F8442072
:105000000A906178207894F80280B4F80490ADF8A2
:105010000C2096F844E096F845C03546002B00F089
:105020000A8192B24FF6FF7B5A4500F0048196F850
:105030004670002F00F0FF8096F84A20019202F09F
:10504000F00AB34AA9EB030312889BB29A4240F2DA
:10505000A380BAF1000F5BD18DF810E08DF811C07C
:10506000BDF810305B45C2461DD0B6F844C0238859
:105070009C4518D1B8F1000F40F063819DF80420E1
:10508000012363F3071286F84A20FFF755FF06F164
:105090004400FFF743FD96F84A30A37100273846D5
:1050A00011B0BDE8F08FB9F1000F40F04E81B8F1BA
:1050B000000FF3D095F84A3043F0010385F84A30E9
:1050C000ECE705EBC30292F803C08C4506D192F8D9
:1050D00002C0844502D11279002ADFD1013303F0E6
:1050E000070344E110F4706F00D07BB12033DBB2D2
:1050F000072B0BD92046FFF711FDBA4606E010F446
:10510000706FF3D0A27912F0F00FEFD15746C6E7D7
:105110008DF814E08DF815C0BDF814305B4513D040
:10512000B6F84410238899420ED1B8F1000F0BD184
:10513000019BA3712046FFF7F1FC23687364636849
:10514000B364FFF7F9FEAAE72046FFF75DFDF8B16B
:10515000B8F1000F1CD095F84A301F2B0DD9B5F8C7
:105160004420ADF8302000228DF83220ADF8349084
:105170008DF836300CA8FFF7D1FC2368654A6B64C4
:1051800063685360FFF7E0FEFFF7D6FE012786E76E
:105190002046FFF7C3FCF9E7BAF1000F18D10AABBC
:1051A0008DF82A80ADF82C908DF828008DF8291004
:1051B00093E8030006F14404FFF72EFD2046FFF7B5
:1051C000ADFCC6F844A0C6F848A0FFF7B5FE9DE7C1
:1051D0008DF818E08DF819C0BDF818305B4511D076
:1051E000B6F84410238899420CD1B8F1000F09D1C8
:1051F000019BA3712046FFF791FCC6F84480C6F8D6
:1052000048804CE72046FFF7FFFC0028C0D0B8F1EB
:10521000000FBDD095F84A301F2BAED9B5F8442009
:10522000ADF8382000228DF83A20ADF83C908DF88A
:105230003E300EA89FE7002B6ED08DF81CE08DF855
:105240001DC0BDF81C604FF6FF72964264D095F801
:105250004670002F60D12E4EA9EB030336889BB217
:105260009E4241D94746002F92D08DF820E08DF81C
:1052700021C0BDF82030934226D0B5F844202388C1
:105280009A4221D195F84A30224E13F0010F16D1DF
:1052900013F0F00F13D003F0F002F02A1CBFC3F399
:1052A00003120132A3711CBF62F30713A3712046DE
:1052B000FFF734FC23686B646368736041E723681D
:1052C0006B6463687360EAE62046FFF79DFC002884
:1052D0007FF453AF95F84A30204643F0010385F838
:1052E0004A30FFF71BFCDAE60AAB8DF82A80ADF8EE
:1052F0002C908DF828008DF8291093E80300FFF713
:105300008BFC044B6F645F601BE700BFC41C002074
:10531000BE010020081D0020B8F1000F3FF438AF97
:105320002046FFF771FC074600283FF431AF2368A1
:105330001C486B6463684360FFF75EF9FFF704FE87
:10534000FFE6B9F1000F3FF4B5AE8DF824008DF8FB
:105350002510BDF824204FF6FF739A423FF4A7AE04
:10536000B8F1000F7FF4A6AE2B7895F84260B342F7
:105370007FF4A7AE8DF828008DF829100A98FFF762
:105380003BFDC0F30332C3B2032A3FF6B3AE01A123
:1053900051F822F0E5500000E5500000FF500000F9
:1053A000FF500000081D002070B586B06D4685E8EE
:1053B00003002846FFF71AFE2F4C064688B1BDF8B9
:1053C0000430BDF80020ADF8102043B192B24FF682
:1053D000FF739A4203D095E80300FFF723FC274DA3
:1053E00042E095E8030004AB83E80300BDF8042025
:1053F000BDF81010ADF80C10002AF0D089B24FF6AD
:10540000FF729142EBD094F842202178551C05F0B0
:1054100007058D420BD003CB04EBC20284F8425047
:10542000C2F80200C2F80610FFF770FDD7E7FFF7D9
:10543000B5FB234684F8426003F8446B66645E6003
:10544000CDE705EBC000FFF7D1FD90B1237804EB69
:10545000C303D3F80200D3F80610FFF7E3FB237869
:10546000013303F007032370207894F8423083421D
:10547000E7D106B070BD00BFC41C0020C61C0020D0
:10548000024B0146186803F055B900BFC001002067
:10549000024B0146186803F067B900BFC001002045
:1054A000014B186803F07AB9C0010020024B93F950
:1054B0000100C0F3C7007047101D0020024B587850
:1054C00000F00700704700BF101D0020034B587804
:1054D00010F0070018BF0120704700BF101D00200A
:1054E000014B9878704700BF101D0020024A937846
:1054F00018439070704700BF101D0020024A937837
:1055000023EA000090707047101D0020014B00221C
:105510009A707047101D0020024AD3781843D0704B
:10552000704700BF101D0020024AD37823EA000014
:10553000D0707047101D0020014B0022DA707047B8
:10554000101D0020024A137918431071704700BFE4
:10555000101D0020024A137923EA000010717047E1
:10556000101D0020014B00221A717047101D0020F1
:10557000014B5879704700BF101D0020704708B5D7
:10558000FFF7FCFF08BD000008B5064B5B785B0722
:1055900006D4054B5979814202D05871FFF7EFFFCD
:1055A00008BD00BFD2250020101D002008B5044B07
:1055B0005A791AB100205871FFF7E1FF08BD00BF0A
:1055C000101D002010B5104B104A19689078087013
:1055D0001868D4780178214301701868147901782B
:1055E0005279214301701C464AB11B6819780A435D
:1055F0001A70206803F018F808B1FFF7D7FF206889
:10560000BDE8104002F0F0BFC0010020101D0020D6
:10561000704708B5FFF7FCFF08BD000010B50A4A47
:10562000527852070CD4094C41EAC0016170FFF76F
:1056300047FB94F90100C0F3C700FFF7EAFF10BD74
:10564000BDE81040FFF73CBBD2250020101D002014
:1056500008B5034B00205870FFF7DBFF08BD00BF03
:10566000101D002008B50C4A92F9013023EA000011
:1056700040B2507042070ED1DBB283420BD0074BD1
:105680005B785B0707D4C0F3C700FFF723FBBDE8D7
:105690000840FFF7DDBF08BD101D0020D225002007
:1056A00008B5094A5378C3F3800181420AD060F3F8
:1056B00082035370108800F037F80220BDE80840DC
:1056C000FFF7D0BF08BD00BFD2250020044B58789B
:1056D000C0F3800080F0010000F00100FFF7E0BFA0
:1056E000D22500200120FFF7DBBF0020FFF7D8BF45
:1056F00008B5002000F0A2FC4FF6E963C31A584237
:10570000584108BD022000F041BC032000F03EBC1F
:1057100010B5042000F03AFC0446222000F036FCCC
:1057200044EA002080B210BD10B5C1B20446042086
:1057300000F0CEFC210A2220BDE8104000F0C8BCD9
:1057400001460F2000F0C8BC0146132000F0C4BC85
:105750000020FFF7F9BF08B50020FFF7F1FFFFF7C2
:10576000F7FF08BD10B54FF6E961002000F0B2FC6C
:105770000021022000F0ACFC00210320002400F0F6
:10578000A7FC1A4B214604201C6000F0A1FC214616
:10579000222000F09DFC2146052000F099FC2146C6
:1057A000062000F095FCFF21072000F091FC214627
:1057B000082000F091FC21460D2000F089FC2146D4
:1057C000182000F089FC2146172000F081FC2146BA
:1057D0001C2000F081FC2146202000F07BFC2146AB
:1057E000182000F079FCFFF7B6FF10BD841C0020E4
:1057F000FFF7B8BF01460E2000F06ABC08B503F001
:105800000DF8024BC3E9000008BD00BF381D0020A1
:105810007047704708B5FFF7FBFF08BD704708B534
:10582000FFF7FCFF08BD000008B5044800F064FA6B
:10583000FFF7EFFFFFF7EEFF08BD00BFF15C0000D0
:105840000120704708B5FFF7FBFF08BD70477047A0
:1058500008B5FFF7FBFFFFF7FAFF08BD08B503F037
:1058600001F800F00DFBFFF7DAFF08BD2DE9F04F5E
:1058700085B000F01FFB08B1FFF7C0FFDFF8DC8048
:10588000DFF8DC900025EFB2384600F067FA18F830
:10589000016B8642834615D101350B2DF3D14FF6AE
:1058A000FF73ADF8083000238DF80A3002F0AEFF28
:1058B00040F00100ADF80C0004AB13E90300FEF763
:1058C00072FE30E099F800309B0701D500F04CFAE9
:1058D0000023012486EA0B0634425FFA83FA32D0B1
:1058E000FFF7B0FF1BEA040F14BF0126002680B1AA
:1058F0008DF800A08DF801708DF8026002F086FF2F
:1059000040F00100ADF804006B4693E80300FEF799
:105910004AFE114B1D4432462B7B51465C403846B3
:105920002C7301F045FF0C4C01F0C8FF02F054FE4F
:10593000E37D83420DD002F04FFEE07505B0BDE877
:10594000F04FFEF728BE01336400082BE4B2C3D148
:10595000A2E705B0BDE8F08F381D0020441D0020EF
:10596000501D00200020704770470000C1F307223F
:105970000B2303FB0020C00050FA81F0024B33F8E8
:10598000100082B002B07047ACD80000014B33F871
:105990001000704770DA000010B500F0D1F8B0F5D3
:1059A000A04F044628D2B0F5804F80F08580DF28D4
:1059B00012D8C02872D2A7280AD8A5285ED20128FA
:1059C00004D003B233B1032898BF0024204610BD91
:1059D000BE285AD90024F9E7B0F5005F06D2B0F529
:1059E000807F7DD2E82828BF0024EFE7B0F5405F34
:1059F0005AD2C0F30B0053E0B0F5AA4F19D2B0F55C
:105A0000A84FC3B278D2B0F5A44F07D2B0F5A24FD9
:105A100057D34AF2F10040EA0324D7E7B0F5A64F86
:105A200060D29808012403F003039C4044EA401428
:105A300054E0B0F5B24F0ED2B0F5B04F61D2B0F530
:105A4000AC4FC7D2C0B200F0FDF8040204F4F85421
:105A500044F40054BAE7B0F5B44F57D3A0F5C043AF
:105A60009BB2B3F5005FB5D2C0F3042000F0EAF8B2
:105A7000000200F4F850E4B20443E9E75B34E4B216
:105A8000284B1C5D44F48044A0E75834254BE4B215
:105A900003EB4404A48844F4884497E7C03880B2F8
:105AA000FFF774FF044691E7C3B202054CBF43F40D
:105AB000484443F4404489E7C0F30B0444F42044D1
:105AC00084E7C3F38104C0F30110640144EA0024B5
:105AD00003F00303012000FA03F31C4344F40C44D5
:105AE000A4B273E79808012403F003039C4044EA3E
:105AF000401444F40A44F3E74AF2F40444EA032469
:105B000064E74AF2F00040EA0424E9E700F00F00FD
:105B100000F098F8C4F3031440EA042444F4104459
:105B2000DEE700BF3EDA000007B5ADF804100199CA
:105B3000FFF71CFF03B05DF804EBFFF72DBF00007B
:105B4000822825D00CD8312863D004D8292859D0F0
:105B50002A2865D0704735284DD0392818D070478D
:105B6000E32830D004D8E02819D0E22826D07047A6
:105B7000E62832D0E72835D0E42832D1304B5A78A5
:105B800091072ED51B7813F0100F08BFE72012E005
:105B90002B4B1B7813F0030F18BFE0207047284AE7
:105BA0001378D90743D4527812F0010F19D013F0AB
:105BB000100F08BFE32018BF00207047204B1B7850
:105BC00013F0040FF2E71E4A1378590731D45278C4
:105BD000D20730D413F0100FEDE7194B1B781A07DA
:105BE000D1D47047164A1378190726D452789207F1
:105BF000F0D5E420F5E7124B1B7813F0200F18BF07
:105C0000292070470E4B1B7813F0200F18BF35204A
:105C100070470B4B1B7813F0400F18BF2A207047BA
:105C2000074B1B7813F0400F18BF31207047392005
:105C30007047E2207047E0207047E620704700BFC1
:105C4000D2250020294B1A78510707D500F01801FA
:105C5000082927D100F0F70040F00400110707D50C
:105C600000F01801182926D100F0E70040F01400D8
:105C70005B78D90707D500F01801082924D100F076
:105C8000F70040F00100990707D500F01803182B22
:105C900023D100F0E70040F01100D30648BF00F028
:105CA000E700704700F01401042904BF00F0FB0076
:105CB00040F00800D2E700F01401142904BF00F0FE
:105CC000EB0040F01800D3E700F01101012904BFF8
:105CD00000F0FE0040F00800D5E700F01103112BA2
:105CE00004BF00F0EE0040F01800D6E7D2250020F7
:105CF0000020704700207047014B1860704700BFBC
:105D0000C40100207047000008B5FFF7F1FC08B996
:105D1000FFF76EFDFFF7F6FC084B1870FFF7F8FC75
:105D2000074B1880FFF7EEFFFFF7EFFCFEF793FF3E
:105D3000044B1868BDE80840FEF7AABF501D0020BC
:105D4000D2250020881C0020704708B5FFF7FCFF13
:105D500008BD704708B5FFF7FCFF08BD014B185C94
:105D6000704700BFDF25002070471E2003F078B980
:105D700000F01F02C0F34010C00100F1824000F5A6
:105D800000400123934043608361104490F8403009
:105D900043F0020380F8403090F8403043F00403B1
:105DA00080F840307047000010B50C4C0B2114F8FF
:105DB000010BFF2801D0FFF7DBFF013911F0FF01D4
:105DC000F5D1074C082114F8010BFF2801D0FFF78B
:105DD000CFFF013911F0FF01F5D110BD70DA0000DD
:105DE0007BDA00002DE9F041234E725CFF2A054664
:105DF0000C463CD0DFF88480C2F3401108EBC1119F
:105E0000012702F01F0207FA02F28A604A614A6122
:105E1000FEF74AFA3B4606F10B0C082100274046E4
:105E20009E461CF8012BFF2A23D0C2F3401800EB3A
:105E3000C81802F01F02D8F820800EFA02F212EA07
:105E4000080F16D15AB217434A1E5B0012F0FF0129
:105E5000FFB2DBB2E5D1305DFF2801D0FFF788FF4C
:105E6000391C18BF01212046FEF720FA2F55BDE846
:105E7000F0810022E7E700BF70DA000000800041F7
:105E800008B5FFF791FF094A002353601360C2F879
:105E90000730074A0B2053601360C2F8073000F048
:105EA00039F8BDE80840FEF7F8BA00BFDF2500204A
:105EB000D425002030B585B00024CDE90144CDF8CB
:105EC0000B40E1B201A80134FFF78CFF0B2CF8D195
:105ED0000E4D224601A9284607F03EFB002814BFBC
:105EE0000124002407D001AB03CB1A889B782860DB
:105EF00069602A81AB7223460B220549034800F0F2
:105F00000BF8FEF7D5FA204605B030BDD4250020A9
:105F1000DF25002070470000F8B506460F461546FD
:105F20000C4C23B10123237002F078FC60602378CD
:105F300023B1606802F086FC042808D8F8BDF25C42
:105F4000FA5401339D42FADC00232370F6E7002364
:105F5000F8E700BF541D0020094B1A6801320CD12C
:105F60000848C16AC26AC1F30241C2F3032202EBCC
:105F7000C102054951F822201A601868704700BF15
:105F8000C80100200040004184DA000010B504463A
:105F9000FFF7E2FFB0F5806F05D3FFF7DDFFA0420A
:105FA00004D8002010BD4FF48060F8E7FFF7D4FF5D
:105FB00010B90A4B185DF5E7094A42F21173114610
:105FC000D06A400701D5013BFAD1CB6A5B07E8D420
:105FD000044B5B68185DC0B2E4E700BF5C1D0020A5
:105FE00000400041C801002038B504460D46FFF7C7
:105FF000B3FFB0F5806F09D3FFF7AEFFA04204D91D
:10600000FFF7AAFF28B90A4B1D5538BD4FF4806031
:10601000F4E7084A42F211731146D06A400701D5ED
:10602000013BFAD1CB6A5B07EFD4034B5B68EBE72C
:106030005C1D002000400041C801002038B5054625
:10604000FFF7A4FF0446681CFFF7A0FF44EA002006
:1060500080B238BD70B504468D18A94200D170BD1C
:1060600008464E1CFFF792FF314604F8010BF4E797
:1060700038B505460C46C9B2FFF7B6FF210A681CC1
:10608000BDE83840FFF7B0BF38B505460C46C9B289
:10609000FFF7AAFFC4F30721681CFFF7A5FFC4F3AD
:1060A0000741A81CFFF7A0FF210EE81CBDE83840FF
:1060B000FFF79ABF70B50446A5180846AC4200D158
:1060C00070BD461C14F8011BFFF78EFF3046F5E744
:1060D000FFF78ABFFFF7CCBFFFF7D6BFFFF7EABFD6
:1060E00030B585B0C0F307220190C0F30740BAB9BC
:1060F00009B1314B185C8DF80C008DF80D008DF84E
:106100000E009DF80C30002063F307009DF80D3061
:1061100063F30F209DF80E3063F3174005B030BDD8
:106120009DF8043071B32449085C03EB4304FF215C
:106130006400B4FBF1F46FF05401614301EB4301DF
:1061400001EB4101C9B212FB01F3C1F1FF01C2F140
:10615000FF054A431B121212C3F1FF03C2F1FF02F3
:10616000454343434243C5F30725C3F30723C2F323
:106170000722C0B2062C19D8DFE804F00608110F78
:106180001418060080B2D0E7034610468DF80C00C4
:106190008DF80D308DF80E50B3E7024618462B46A9
:1061A0001546F3E7134602462846F9E70246284615
:1061B0001D461346EAE700BFF1DB000084B0012171
:1061C00004B0FFF78DBF012830B501D8C0B230BD93
:1061D000B0F5F75F9DBF42090832D2B2FF2201211C
:1061E0008B185B1003FB03F5ADB28542DCB205D919
:1061F000621ED2B29142F3D9481EE7E7FF2B02D0CC
:10620000611CC9B2F6E71846E1E70000074B1888A1
:1062100000EB402200EB820000F55850193080B2AC
:10622000188000EB1020C0B2704700BFD6010020DC
:1062300010F040021ABFC343DBB2034610B503F0AF
:106240000F0102B10131094CC3F301135B00E218E5
:10625000E35C527812FB01F203EB2213DBB202067D
:1062600044BF5B42DBB283F0800010BDE4DB000082
:1062700084B02C31134B019013F81130E42113FB3F
:1062800001F3C2EB13231C33002BC0F30720B8BF6C
:106290005B42A0EBC3031BB223EAE37313FB00F3DF
:1062A0001B128DF80530019B0020DAB262F3070063
:1062B000C3F3072262F30F20C3F3074363F31740CE
:1062C00004B070470000002084B02C31134B0190C3
:1062D00013F81130E42113FB01F3C2EB13231C3339
:1062E000002BC0F30740B8BF5B42A0EBC3031BB257
:1062F00023EAE37313FB00F31B128DF80630019BB6
:106300000020DAB262F30700C3F3072262F30F2022
:10631000C3F3074363F3174004B070470000002045
:1063200084B001908DF80420019B0020DAB262F362
:106330000700C3F3072262F30F20C3F3074363F39D
:10634000174004B07047000084B02C310A4B019014
:1063500013F811309A1A8DF80420019B0020DAB24C
:1063600062F30700C3F3072262F30F20C3F307436E
:1063700063F3174004B07047000000200C4B84B05A
:1063800003EB4101019091F859309A1A8DF80420DD
:10639000019B0020DAB262F30700C3F3072262F325
:1063A0000F20C3F3074363F3174004B0704700BFE7
:1063B000000000207FB5124D01902C3105EB410308
:1063C000C0B25E7815F81130A6F1200464B2002C3A
:1063D000BCBFC6F1200464B29B1A234403448DF869
:1063E0000430019B0020DAB262F30700C3F30722F6
:1063F00062F30F20C3F3074363F3174004B070BD8B
:106400000000002084B003EB43039DF810200190AE
:1064100002EB53028DF80420019B0020DAB262F3F4
:106420000700C3F3072262F30F20C3F3074363F3AC
:10643000174004B070471FB5019048B20028BCBF98
:10644000484240B25243C0F1380010FB002080B2F5
:106450001C46FFF7B8FE00EB400004448DF80440F2
:10646000019B0020DAB262F30700C3F3072262F354
:106470000F20C3F3074363F3174004B010BD0000BF
:106480001FB5124C01902C3304EB430014F8133069
:106490004078703B5943203802FB0012002A9DF8D7
:1064A0000410B8BF7F3201EBE2128DF80420019B8B
:1064B0000020DAB262F30700C3F3072262F30F2071
:1064C000C3F3074363F3174004B010BD000000207E
:1064D0001FB5124C01902C3304EB430014F8133019
:1064E0004078703B5943203802FB0012002A9DF887
:1064F0000410B8BF3F3201EBA2128DF80420019BBB
:106500000020DAB262F30700C3F3072262F30F2020
:10651000C3F3074363F3174004B010BD000000202D
:1065200030B5174D85B02C3305EB430401906478EA
:10653000203C624315F81340A4F170035BB2002BBA
:10654000BCBFC4F170035BB2C3F1380301FB03218C
:1065500011EB4101C0B248BF7F3100EBE1118DF872
:106560000410019B0020DAB262F30700C3F3072294
:1065700062F30F20C3F3074363F3174005B030BD48
:106580000000002030B585B00D460190C4B2104621
:10659000FFF74EFE2C35124B13F815201044C0B2F5
:1065A000A0F180035BB2002BBCBFC0F1800043B2FE
:1065B0005B0003F0FE0303EB430304EB93138DF83E
:1065C0000430019B0020DAB262F30700C3F3072214
:1065D00062F30F20C3F3074363F3174005B030BDE8
:1065E0000000002084B0114B01902C31C0B213F890
:1065F00011108B1A5BB2002BBCBF521A53B2DBB224
:1066000003EB430300EB53138DF80430019B002090
:10661000DAB262F30700C3F3072262F30F20C3F379
:10662000074363F3174004B0704700BF0000002029
:1066300084B0C9430190C9B2C0F3074011FB00F117
:1066400009128DF80610019B0020DAB262F30700F0
:10665000C3F3072262F30F20C3F3074363F317402A
:1066600004B0704784B0C9B20190C1F18201C0B2D8
:106670000029A8BF40188DF80400019B0020DAB261
:1066800062F30700C3F3072262F30F20C3F307434B
:1066900063F3174004B0704784B003EB8303BDF885
:1066A000102001901A4492B2FF2A28BFFF22C0F3A3
:1066B0000740D24350FA82F2FF2A28BFFF228DF80A
:1066C0000620019B0020DAB262F30700C3F3072221
:1066D00062F30F20C3F3074363F3174004B070471E
:1066E0001FB50029B8BF4942002AB8BF524209B2BB
:1066F000090112B21201FF29BDF818400190A8BF8C
:10670000FF21FF2AA8BFFF2209B2234414B2A142ED
:10671000A8BF214611FA83F39BB2FF2B28BFFF23AA
:10672000C0F30740DB4350FA83F3FF2B28BFFF235E
:106730008DF80630019B0020DAB262F30700C3F344
:10674000072262F30F20C3F3074363F3174004B03B
:1067500010BD00001FB5482B0190C0F3074030D892
:10676000BDF81840E31A9BB2FF2B28BFFF23083166
:1067700089B2102905D902F1080189B2112928BF6F
:10678000FF231149DB4350FA83F3002A4978B8BF4D
:106790000332FF2B01EBA20228BFFF238DF8042058
:1067A0008DF80630019B0020DAB262F30700C3F3D4
:1067B000072262F30F20C3F3074363F3174004B0CB
:1067C00010BDFF23D3E700BFEC25002084B0C0F349
:1067D0000741BDF810200190D31A9BB2FF2B28BFB0
:1067E000FF23DBB2DA4351FA82F2FF2A53FA80F038
:1067F00028BFFF228DF804008DF80620019B0020A1
:10680000DAB262F30700C3F3072262F30F20C3F387
:10681000074363F3174004B0704784B0BDF81020FD
:106820000190D21A92B2FF2A28BFFF22C0F307407C
:10683000D24350FA82F2FF2A28BFFF228DF80620A9
:10684000019B0020DAB262F30700C3F3072262F370
:106850000F20C3F3074363F3174004B0704728B910
:106860000029ACBF002380231846704780EAE072FD
:10687000A2EBE07212B28B180029B3BF5B01891A38
:106880004901511AABBF91FBF3F393FBF1F3C3F151
:106890002003C3F160035BB2DBB20028BCBF5B42E4
:1068A000DBB2E1E730B585B0C0F30725EB1A019004
:1068B0001046DCB2FFF7D3FFC0EB801300EB830080
:1068C0000444E4B214FB05F424128DF80540019B46
:1068D0000020DAB262F30700C3F3072262F30F204D
:1068E000C3F3074363F3174005B030BD30B585B03F
:1068F000C0F30745EB1A01901046DCB2FFF7AFFF7B
:10690000C0EB801300EB83000444E4B214FB05F4F5
:1069100024128DF80640019B0020DAB262F30700D2
:10692000C3F3072262F30F20C3F3074363F3174057
:1069300005B030BD30B585B0C0F307259DF82040C7
:10694000019010461C1BFFF78AFF2C44E4B2201A6A
:10695000C0B210FB05F000128DF80500019B00206D
:10696000DAB262F30700C3F3072262F30F20C3F326
:10697000074363F3174005B030BD30B585B0C0F3B1
:1069800007459DF82040019010461C1BFFF767FF4C
:106990002C44E4B2201AC0B210FB05F000128DF8AE
:1069A0000600019B0020DAB262F30700C3F307225E
:1069B00062F30F20C3F3074363F3174005B030BD04
:1069C0001FB5019010461C46FFF749FF20448DF883
:1069D0000400019B0020DAB262F30700C3F3072230
:1069E00062F30F20C3F3074363F3174004B010BDF5
:1069F0001FB59DF81840019010461C1BFFF72FFF94
:106A0000E4B2201A8DF80400019B0020DAB262F390
:106A10000700C3F3072262F30F20C3F3074363F3B6
:106A2000174004B010BD000008B508221C2103481F
:106A3000FFF754FB024B00221A7008BDEC25002022
:106A40005C21002084B004B0FFF7B8BB084B1A46A5
:106A5000352102F8011B074931F8080FA3F801009E
:106A6000897891704FF67F729A80FFF7DDBF00BF83
:106A7000EC250020E4DB00000020704770B50646DE
:106A80000D461446FFF7F8FF044B03EBC6035B5DAE
:106A9000FF2B1EBF23540130C0B270BD0000002088
:106AA000014BDB68184700BF2CDD000010B4034C1D
:106AB0006468A4465DF8044B604700BF2CDD00000D
:106AC0002DE9F04F344D354A2E7904787308168835
:106AD000C4EB041489B0E4B25E43C6F3072304F1A7
:106AE0000F07FFB202932E4B0391772FBB468246CE
:106AF00028BF4FF0770B03EB440803F5A379E3B20B
:106B00009B4506D8762F8CBF0020012009B0BDE838
:106B1000F08F14F809209AF801301A4237D098F80B
:106B2000592098F85810203A92B2703989B212FB65
:106B300002F011FB010080B205920491FFF743FBC4
:106B4000029B009395F801C0AB7895F803E0059A95
:106B50000499039E4CEA032C12B2034609B24CEA94
:106B60000E40B047C0F307238DF81C00C0F3074068
:106B70008DF81D308DF81E000798FFF763FFC0F3F6
:106B80000743C2B2C0F307212046FFF78FFF08F189
:106B900002080134B3E700BFEC250020F4250020F3
:106BA000000000200149FFF78BBF00BF35690000DE
:106BB0000149FFF785BF00BF7B6900000149FFF76E
:106BC0007FBF00BF056400000149FFF779BF00BF28
:106BD000F16900002DE9F04F2B4D2C4A2E790478F5
:106BE00073081688C4EB041485B0E4B25E43C6F3A0
:106BF000072304F10F07FFB20093254B0191772F74
:106C0000BB46824628BF4FF0770B03EB440803F5E1
:106C1000A379E3B29B4506D8762F8CBF00200120D4
:106C200005B0BDE8F08F14F809209AF801301A4237
:106C300025D0AB78687895F803C098F8592098F873
:106C40005810019E40EA0320203A7039009B40EA28
:106C50000C40B047C0F307238DF80C00C0F3074089
:106C60008DF80D308DF80E000398FFF7EBFEC0F3A2
:106C70000743C2B2C0F307212046FFF717FF08F110
:106C800002080134C5E700BFEC250020F4250020F0
:106C9000000000200149FFF79DBF00BFA56800006C
:106CA0000149FFF797BF00BFED6800000149FFF7FA
:106CB00091BF00BF376400000149FFF78BBF00BFE1
:106CC000C16900002DE9F74F254E04783579254A32
:106CD000DFF894B0C4EB0414E4B2AB0804F10F097C
:106CE00015885FFA89F9B9F1770F03FB0555CA4694
:106CF0000746884628BF4FF0770AC5F30725E1B25B
:106D00008A4507D8B9F1760F8CBF0020012003B067
:106D1000BDE8F08F14F80B207B781A421DD0B078B4
:106D2000737843EA0023F0782A4643EA0040C047DC
:106D3000C0F307238DF80400C0F307408DF8053039
:106D40008DF806000198FFF77DFEC0F30743C2B23D
:106D5000C0F307212046FFF7A9FE0134CFE700BFAB
:106D6000EC250020F4250020460100200149FFF712
:106D7000A9BF00BF716200000149FFF7A3BF00BFB8
:106D8000C96200000149FFF79DBF00BF21630000F9
:106D90000149FFF797BF00BF496300000149FFF7B2
:106DA00091BF00BF7D6300000149FFF78BBF00BFAB
:106DB000B56300000149FFF785BF00BF856500008E
:106DC0000149FFF77FBF00BFE56500002DE9F04FE7
:106DD0002D4E2E4A35790478AB081588C4EB04147F
:106DE0005D43E4B2C5F3072504F10F0787B0FFB296
:106DF000814605F14000772FC0B20391BA4628BF03
:106E00004FF0770AFFF714FA80384FFA80FB2846D4
:106E1000FFF70EFA80384FFA80F80296E3B29A45EF
:106E200006D8762F8CBF0020012007B0BDE8F08F78
:106E3000174AA15C99F80120114223D0029A0095CB
:106E400050789278039E40EA0220029A92F803C09A
:106E50005946424640EA0C40B047C0F307238DF83C
:106E60001400C0F307408DF815308DF81600059812
:106E7000FFF7E8FDC0F30743C2B2C0F30721204685
:106E8000FFF714FE0134C9E7EC250020F4250020AB
:106E9000460100200149FFF799BF00BF816400004F
:106EA0000149FFF793BF00BFD16400000149FFF71C
:106EB0008DBF00BF216500002DE9F04F0478354DEE
:106EC000DFF8D8B02F79DFF8D890C4EB0414E4B21F
:106ED00004F10F06F6B285B07B1C772EB2468046D1
:106EE00028BF4FF0770A0191B3F5807F08BFFF23D9
:106EF0004FF6FF77B7FBF3F7E1B28A4506D8762E57
:106F00008CBF0020012005B0BDE8F08F14F80B20E5
:106F100098F801301A422ED099F800301E48013BF3
:106F20005BB21A0629D53A462979A8786B780131DF
:106F3000B1F5807F08BFFF2143EA0023E878514381
:106F4000C1F30F2143EA0040019B9847C0F3072398
:106F50008DF80C00C0F307408DF80D308DF80E0051
:106F60000398FFF76FFDC0F30743C2B2C0F30721D8
:106F70002046FFF79BFD0134BEE71A5C8A4207D129
:106F800003F10C0209EB4202B2F80120BA42CBD362
:106F9000013BC6E7EC250020092600204601002021
:106FA000F82500200149FFF787BF00BF31660000C8
:106FB0000149FFF781BF00BF656600002DE9F04F72
:106FC0000C78C4EB0414E4B204F10F06F6B28FB0EF
:106FD000772E334628BF77230693454B07921A78BE
:106FE0000592444A049302EB440702F5A3728246D9
:106FF0008B460892069AE3B29A4206D8762E8CBF48
:10700000002001200FB0BDE8F08F089BE25C9BF8E8
:1070100001301A4223D0DFF8E49039F80139ADF895
:107020003030049B0AF10105EB180393D04600238E
:1070300005995FFA88F2914214D82F4AD07810FB54
:1070400003F31B128DF832300C98FFF7FBFCC0F3F2
:107050000743C2B2C0F307212046FFF727FD0134E2
:107060000237C7E70B93039B97F8580013F8012BDF
:1070700097F859C00393801ADA79ACEB020C1FFA27
:107080008CFC0FFA8CF280B21CFB0CFC01B210FBE2
:1070900000C080B20A910992FFF795F8049B079D02
:1070A00008F10C0C03EB4C0C0B9BBCF801E099F8BD
:1070B00004C08DF832300CF1010CBCF5807F08BFA4
:1070C0004FF0FF0C0EFB0CFCCCF30F230093DDE91B
:1070D000092103460C98A847C0F307238DF83130E7
:1070E0008DF8300008F10108C0F30743A0E700BFA6
:1070F000F825002000000020EC250020ED250020D0
:10710000054B064A1B78013BB3F1FF3F08BF002344
:107110000146D8B2FFF752BFF8250020996600005B
:107120000146024A0020FFF749BF00BF99660000F0
:10713000054B064A1B78013BB3F1FF3F08BF002314
:107140000146D8B2FFF73ABFF8250020E1660000FB
:107150000146024A0020FFF731BF00BFE166000090
:10716000054B064A1B78013BB3F1FF3F08BF0023E4
:107170000146D8B2FFF722BFF8250020556700006E
:107180000146024A0020FFF719BF00BF5567000003
:10719000054B064A1B78013BB3F1FF3F08BF0023B4
:1071A0000146D8B2FFF70ABFF8250020CD670000DE
:1071B0000146024A0020FFF701BF00BFCD67000073
:1071C000054B064A1B78013BB3F1FF3F08BF002384
:1071D0000146D8B2FFF7F2BEF82500201B68000078
:1071E0000146024A0020FFF7E9BE00BF1B6800000D
:1071F0002DE9F3411D4A04785378DFF87480064680
:10720000C4EB04149078E4B243EA002304F10F05C0
:10721000D078EDB2772D43EA00402F4628BF77277C
:10722000FFF710FCC0F307238DF80400C0F30740FC
:107230008DF805308DF80600E3B29F4206D8762D12
:107240008CBF0020012002B0BDE8F08114F80820B6
:1072500073781A4208D09DF806309DF804209DF8F6
:1072600005102046FFF722FC0134E5E7EC2500205D
:10727000460100202DE9F043DFF8BC90047899F82E
:1072800001804B46C4EB041433F8012F85B0E4B2FF
:107290009B78ADF8042004F10F058DF806308DF8C9
:1072A0000480EDB2772D064601982F4628BF772738
:1072B000FFF7C8FBC0F307238DF8093099F80430B5
:1072C0008DF8080098448DF80480C0F307408DF8CD
:1072D0000A000198DFF86480FFF7B4FBC0F30723CE
:1072E0008DF80C00C0F307408DF80D308DF80E00BE
:1072F000E3B29F4206D8762D8CBF0020012005B056
:10730000BDE8F08314F808307278134211D0DB071F
:1073100043BF9DF80E309DF80C209DF80D109DF890
:107320000A305CBF9DF808209DF809102046FFF741
:10733000BDFB0134DCE700BFEC2500204601002046
:107340002DE9F74F204D04782F79DFF880902B46F8
:10735000C4EB0414E4B233F8012FADF8002004F1BB
:107360000F06F6B2772E9B788DF80230B246804633
:1073700028BF4FF0770ABF08A9F1ED0BE3B29A4599
:1073800006D8762E8CBF0020012003B0BDE8F08F18
:1073900014F8092098F801301A4212D01BF8143062
:1073A0006A781B0903FB07238DF800300098FFF76C
:1073B00049FBC0F30743C2B2C0F307212046FFF7E1
:1073C00075FB0134DAE700BFEC2500204601002000
:1073D0002DE9F74F204D04782F79DFF880902B4668
:1073E000C4EB0414E4B233F8012FADF8002004F12B
:1073F0000F06F6B2772E9B788DF80230B2468046A3
:1074000028BF4FF0770ABF08A9F1EE0BE3B29A4507
:1074100006D8762E8CBF0020012003B0BDE8F08F87
:1074200014F8092098F801301A4213D01BF81430D0
:1074300007FB03F26B7803EB52138DF800300098D2
:10744000FFF700FBC0F30743C2B2C0F30721204699
:10745000FFF72CFB0134D9E7EC2500204601002082
:107460002DE9F3412A4A04781346064633F8011FF2
:10747000107993F80280274BADF80010C4EB041488
:107480001B88E4B204F10F05C0085843EDB2772D14
:10749000C0F307202F4628BF7727FEF7C9FEA0F1CB
:1074A00080035BB2002BBCBFC0F1800043B25B0025
:1074B000DBB213FB08F31B128DF802300098DFF8E3
:1074C0005880FFF7BFFAC0F307238DF80400C0F31C
:1074D00007408DF805308DF80600E3B29F4206D8CC
:1074E000762D8CBF0020012002B0BDE8F08114F899
:1074F000082073781A4208D09DF806309DF80420C1
:107500009DF805102046FFF7D1FA0134E5E700BFEA
:10751000EC250020F42500204601002037B51A4B49
:107520000344044693F8463119422AD0174B5D783C
:107530009A788DF80120DA788DF8022006F026F985
:1075400005F1B4014FF4B472B1FBF2F302FB131373
:107550005B1B48BF033300F0030043F38F0303FBBF
:1075600000538DF800300098FFF76CFAC0F3074322
:10757000C2B2C0F30721204603B0BDE83040FFF798
:1075800095BA03B030BD00BF00000020EC250020FC
:10759000F8B586780546EEB91A4B1B4A1B79128856
:1075A0001033FF2B28BFFF235343C3F30F230A21BC
:1075B000B3FBF1F201FB12339BB24BB906F0E6F8D4
:1075C0007723697890FBF3F202FB1300FFF7A6FF25
:1075D0003046F8BD0478C4EB0414E4B204F10F069D
:1075E000F6B2772E374628BF7727A74204DC762EDF
:1075F0008CBF00260126EBE720466978FFF78EFF57
:107600000134F2E7EC250020F425002013B5124BDD
:107610000344044693F8463119421BD006F0B6F8ED
:107620008DF8000006F0B2F80C4B60F07F00DB78BC
:107630008DF802308DF801000098FFF703FAC0F3CF
:107640000743C2B2C0F30721204602B0BDE8104094
:10765000FFF72CBA02B010BD00000020EC2500207E
:10766000F8B586780546F6B91B4B1C4A1B7912887B
:107670001033FF2B28BFFF235343C3F30F230522EF
:10768000B3FBF2F202EB82029B1A9BB24BB906F0FB
:107690007DF87723697890FBF3F202FB1300FFF784
:1076A000B5FF3046F8BD0478C4EB0414E4B204F12D
:1076B0000F06F6B2772E374628BF7727A74204DC9D
:1076C000762E8CBF00260126EBE720466978FFF76F
:1076D0009DFF0134F2E700BFEC250020F4250020D7
:1076E0002DE9F3412C4B047893F801801A460646A5
:1076F00032F8011F187992788DF80220274AADF8E8
:107700000010C4EB04141288E4B204F10F05C008A1
:107710005043EDB2772DC0F307202F4628BF7727BF
:10772000FEF786FDA0F180035BB2002BBCBFC0F169
:10773000800043B25B0003F0FE0303EB430308EB5E
:1077400093138DF800300098DFF85480FEF736FD73
:10775000C0F307238DF80400C0F307408DF805300F
:107760008DF80600E3B29F4206D8762D8CBF00202C
:10777000012002B0BDE8F08114F8082073781A42A5
:1077800008D09DF806309DF804209DF8051020468D
:10779000FFF78CF90134E5E7EC250020F425002003
:1077A00046010020014B9B68184700BF2CDD0000FC
:1077B0002DE9F74305460E461446FEF741F8074605
:1077C00000283DD02CB16A4631462846FFF756F9CD
:1077D0000446294D6B782344082B22DDC4F10806AA
:1077E00005F10108611C32464144A81C05F0E4FE85
:1077F00004F109013246414405F10A0005F0DCFEBE
:1078000008EB44017200193105F11A0005F0D4FEAD
:1078100004F111013246414405F1120005F0CCFE9D
:107820006E7000216A78DFF854C008468E46CEB2EA
:10783000B318B442DBB206D81444E4B200B16C70A1
:1078400003B0BDE8F0831DF8018008F12C00EE18AC
:107850001CF8109086F802900CEB40000C3305EBFE
:1078600043034078B07286F81280013183F802E059
:1078700083F803E03846DAE75C21002000000020AE
:107880007047704708B5FFF7FBFFFFF7FAFF08BD29
:10789000704738B50478C4EB0414E4B2A4F10F05C2
:1078A000772C28BF7724EDB221462846FCF7FAFC56
:1078B00021462846FFF7ECFF38BD00002DE9F04FC8
:1078C000A84C87B0E06A00F0BDFF064600F0A6FFB6
:1078D00094F801E0E0620022C6F57F4773469446C3
:1078E000FF37D1B28E4514D8BCF1000F00D06370C1
:1078F0009D4D9E4E2B7813F0030718BF9F083378D9
:10790000032B00F21582DFE813F01500280019029E
:10791000220202F10C0104EB410101324D88AF4219
:1079200037BF03F1FF33AD19DBB24FF0010C28BFB5
:107930004D80D6E7002373708D4B8E4A18608E4BB6
:1079400003F1280153F8040B42F8040B8B42F9D1E0
:107950001B78137001233370EAE13379BB423FD1C6
:107960002B78727903F003039B1A18BF0123F3707D
:10797000B2786B799A4205D0002211461046B37056
:10798000FFF710FF292F34D8DFE817F02C0035005F
:107990005000540058005C006000640068006C00F7
:1079A0007000740078007C008000840088008C00E7
:1079B0009000940098009C00A000A400A800AC00D7
:1079C000B000B400B80012019E01A201A601AA01F4
:1079D000AE01B201B601BA01BE01C201C601CA01BF
:1079E0000123C4E7F07848B1002211461046FFF7A2
:1079F000D9FE002002E06148FFF7FAFB5B4B5A78A2
:107A000001325A70002840F0968102221A70DA780A
:107A1000002A40F09081002F00F08881FFF732FFAC
:107A2000564807B0BDE8F04FFFF733BF5348FFF7A4
:107A300021FCE3E75148FFF783FCDFE74F48FFF7FE
:107A4000C7FCDBE74D48FFF70BFDD7E74B48FFF7D7
:107A50008DF9D3E74948FFF78FF9CFE74748FFF79C
:107A600019F9CBE74548FFF71BF9C7E74348FFF78C
:107A700099F8C3E74148FFF79BF8BFE73F48FFF796
:107A800081F9BBE73D48FFF783F9B7E73B48FFF7CC
:107A900085F9B3E73948FFF787F9AFE73748FFF7CC
:107AA0008DF8ABE73548FFF701F9A7E73348FFF753
:107AB00003F9A3E73148FFF787F89FE72F48FFF75F
:107AC000E9F99BE72D48FFF7EBF997E72B48FFF71C
:107AD000EDF993E72948FFF75BFD8FE72748FFF7AC
:107AE000BFFD8BE72548FFF7FBFD87E72348FFF73E
:107AF00061F983E72148FFF763F97FE71C4B216BAE
:107B00001A68914299463FF674AFFEF77FFB8046B4
:107B1000B8F1760F20D8FEF779FB194BB2784344C1
:107B200093F846311A4200F0FF8083072AD50023DC
:107B30001A4619464046FEF7B9FF2B791033FF2B42
:107B400028BFFF234FF4FA721B09B2FBF3F3D9F8F5
:107B50000020134423634CE7A8F177085FFA88F804
:107B6000D6E700BF5C210020EC250020D0010020DA
:107B7000F4250020F82500205D210020D1010020FF
:107B800000000020FEF742FB8DF81000FEF73EFBE0
:107B90004008EB788DF812307F308DF81100049892
:107BA000FEF750FFC0F30743C2B2C0F30721C1E79D
:107BB0006D4B626B1B689A423FF61BAFA8786B78DF
:107BC0006A4EDFF8B48143EA0023E87843EA0040D4
:107BD000FEF738FFC3B20193C0F307230293C0F34B
:107BE00007430393C346B2464FF000091AF8013B1E
:107BF0001BF8010B002B5BD0DDE90121039B09F190
:107C000001095FFA89F9FEF751FF9AF800300AF886
:107C1000013CB9F1030FE9D108F1070B06F1070A9E
:107C20004FF007091AF801391BF80109002B42D05F
:107C3000DDE90121039B09F1FF395FFA89F9FEF7BC
:107C400035FF9AF800308AF80130B9F1040FE9D114
:107C5000337998F804008BB3DDE90121039BFEF72B
:107C600025FFF37898F803005BB3DDE90121039B5E
:107C7000FEF71CFFFEF7CAFA10F0030F0CBF01233A
:107C80000023F37033713A4B0836B34208F1080809
:107C9000A8D12B791033FF2B28BFFF2340F6B83231
:107CA0001B09B2FBF3F3304A126813446363A0E686
:107CB0001A461946A3E71A461946BCE71A4619465A
:107CC000CDE71A461946D3E72A48FFF76BF995E640
:107CD0002848FFF76DF991E62648FFF711FA8DE67F
:107CE0002448FFF71DFA89E62248FFF721FA85E6C6
:107CF0002048FFF72DFA81E61E48FFF731FA7DE6AE
:107D00001C48FFF73DFA79E61A48FFF741FA75E695
:107D10001848FFF74DFA71E61648FFF751FA6DE67D
:107D20001448FFF75DFA69E6012067E603221A703E
:107D300007B0BDE8F08F002FFAD06FE62B783771CF
:107D4000C3F301037371FEF7ABFE032303E623784D
:107D50000BB1FEF769FE044B186800F073FD0928AB
:107D6000E6D90023F7E500BFF42500209421002088
:107D7000EC210020D10100200000002038B52A4B62
:107D80002A4C1B6898472A4A4FF0FF330021117094
:107D900053769376D376137753779377D37782F8A6
:107DA000203082F8213082F8223082F8233082F8A5
:107DB000243082F8253082F8263082F8273082F885
:107DC00028306170A376E37623776377A377E37730
:107DD00084F8203084F8213084F8223084F823306D
:107DE00084F8243084F8253084F8263084F827304D
:107DF00084F8283084F82930FDF77AFC18B9FDF7AB
:107E0000F7FCFEF723FE0B4D08221C212846FEF747
:107E100021F9002323702B7813F0FC0F03D1BDE868
:107E20003840FEF713BE38BD2CDD00005C21002079
:107E3000F8250020EC250020064A137883F0010382
:107E40001370054B00221A70044A137818431070FF
:107E5000704700BFEC250020D00100205C210020ED
:107E60000120FFF7E9BF0000064B1A7812F0030269
:107E700004BF05490A701A78012161F301021A70E2
:107E8000704700BFEC250020D0010020054B1A7878
:107E900092071EBF044A002111701A786FF3010285
:107EA0001A707047EC250020D00100200A4A137890
:107EB00013F0030F0BD058B9012060F38703137040
:107EC000064B00221A70064B1A781143197070473E
:107ED000292888BF2920F0E7EC250020D0010020C8
:107EE0005C2100200121FFF7E1BF0000054B1B785A
:107EF0009B0801332A2B014634BF18460120FFF7A7
:107F0000D5BF00BFEC2500200120FFF7EFBF000028
:107F1000064B1B78C3F38503013B13F0FF030146B7
:107F200014BF18462920FFF7C1BF00BFEC25002071
:107F30000120FFF7EDBF000030B5064C2578AD07F6
:107F400006D0E270044AA170117860700B43137080
:107F500030BD00BFEC2500205C21002010B4054995
:107F60004C78CA788978034604F108005DF8044B20
:107F7000FFF7E2BFEC2500200120FFF7EFBF000074
:107F800010B405494C78CA788978083C0346A0B2F9
:107F90005DF8044BFFF7D0BFEC2500200120FFF770
:107FA000EFBF000010B4074CA178E2781031FF2930
:107FB00028BFFF210346C9B260785DF8044BFFF784
:107FC000BBBF00BFEC2500200120FFF7EBBF000086
:107FD00010B4064CA178E278103921EAE171034629
:107FE000C9B260785DF8044BFFF7A6BFEC2500200E
:107FF0000120FFF7EDBF000010B4074CE278A17834
:108000001032FF2A28BFFF220346D2B260785DF803
:10801000044BFFF791BF00BFEC2500200120FFF7C4
:10802000EBBF000010B4064CE278A178103A22EAC7
:10803000E2720346D2B260785DF8044BFFF77CBF72
:10804000EC2500200120FFF7EDBF0000034B044AA0
:108050001871137819431170704700BFEC25002088
:108060005C210020044B1B791033FF2B28BFFF231A
:108070000146D8B2FFF7EABFEC2500200120FFF748
:10808000F1BF0000044B1B79103B23EAE373014668
:10809000D8B2FFF7DBBF00BFEC2500200120FFF7BF
:1080A000F1BF0000014B5879704700BFEC2500205C
:1080B000014B5871704700BFEC25002000B11047FC
:1080C0000847000038B58C780546002C74D0FDF7C1
:1080D00007FA45F6CB439D4200F022005BD01FD843
:1080E00045F6C6439D424AD00AD845F6C4439D4250
:1080F0003DD041D845F6C3439D4235D0204638BDDA
:1081000045F6C8439D4240D03CD345F6C9439D4205
:108110003ED045F6CA439D42F0D1284A284928E07E
:1081200045F6D0439D4243D00ED845F6CD439D42FF
:1081300037D033D345F6CE439D4235D045F6CF43B5
:108140009D42DBD1052030E045F6D6439D4205D85F
:1081500045F6D2439D422DD30024CFE745F65E532A
:108160009D4208BF0024C9E7FFF77AFEF4E7154AED
:108170001549FFF7A3FFEFE7134A1249F9E7134A3E
:108180001349F6E7124A1149F3E7124A1249F0E798
:10819000114A1049EDE70A4A0849EAE70F4A10492F
:1081A000E7E70F4A0D49E4E70120FFF79BFED3E71D
:1081B0000D20FAE71220F8E701249FE74580000030
:1081C0001D800000317F0000097F00009D7F0000BE
:1081D000797F0000F17F0000C97F00009D800000D2
:1081E0007D80000038B505468878002800F01981A8
:1081F00045F603539D422FD845F6FB439D4204D2DA
:10820000A5F5B843023B132B2AD8FDF781FA864C1B
:1082100045F610439D42208000F0DC8046D845F6AC
:1082200008439D4200F0AC8025D845F604439D42AA
:1082300000F0918015D845F602439D4200F08280FF
:1082400045F603439D4200F082802088FDF76CFADA
:10825000FCF7A4FC002003E045F662539D42D4D015
:1082600038BD45F606439D4200F0868077D92378D5
:1082700043F0200369E045F60C439D4200F09680F0
:1082800009D845F60A439D4200F084807CD92378C2
:108290006FF3000359E045F60E439D4200F08E80D7
:1082A00040F2888023786FF304134EE045F6FD43D7
:1082B0009D4200F0878024D845F614439D4200F08B
:1082C000A0800AD845F612439D4200F08B8040F210
:1082D0008580237823F00C0337E045F6FB439D426D
:1082E00041D045D845F615439D42AED12378C3F31E
:1082F000800282F00102D2B262F3820362F3C3030E
:1083000023E045F601539D4272D00AD845F6FF435B
:108310009D4245D0B5F5BA4F58D3637823F0030397
:1083200024E045F603539D4279D074D345F6625359
:108330009D428AD12378C3F3001282F0010262F3D6
:10834000041302E0237843F0010323707DE72378D0
:1083500043F00203F9E7237843F00403F5E72378B9
:1083600043F00803F1E7637843F0010363706CE7BF
:10837000637843F00203F9E7237843F01003E4E75E
:10838000237843F04003E0E7FCF708FC237843F050
:108390008003DAE7237823F00C0343F00C03D4E7DF
:1083A000637823F0030343F00303DFE723786FF3DD
:1083B0004103CAE723786FF38203C6E723786FF39C
:1083C000C303C2E763786FF30003CFE763786FF30B
:1083D0004103CBE723786FF34513B6E723786FF3B8
:1083E0008613B2E7FCF7DAFB23786FF3C713ACE729
:1083F0006378DA4302F0010262F3000362F341039F
:10840000B4E7FCF7CBFB2378C3F3C01282F0010280
:1084100062F3C71399E70120FDF7ECF915E7002097
:10842000FAE701201CE700BFD225002045F61643DD
:10843000984210B50C461BD1FDF752F8A2780D4BAF
:1084400072B100F0AA00002815BF012200223520D9
:1084500029201A70FDF714F8FDF7B4F8002010BDBC
:108460001B78002B14BF35202920FDF711F8F3E706
:108470000120F4E7EC2100202DE9F0411D4683782E
:108480009DF81880284F14468BB13A7000F0BEF961
:1084900004F12003DBB2072B788043D804F00704F3
:1084A0000120A040C0B2BDE8F041FCF733B93E78EE
:1084B00096422DD1788800F0BDF9C72828D8AE4261
:1084C00005F1200415D006F12003DBB2072B06D8F6
:1084D00006F007060120B040C0B2FCF724F9E3B271
:1084E000072B06D805F0070301209840C0B2FCF71F
:1084F00011F94046E4B2FCF707F9072C12D805F051
:1085000007050120A840C0B2BDE8F041FCF70BB957
:1085100004F12003DBB2072B04D804F00704012088
:10852000A040F0E7BDE8F081EE21002013B545F64C
:10853000F44304469C42084626D011D845F6D94358
:108540009C421CD045F6DA439C4237D045F6D843CE
:108550009C420ED126230093E1231A4621461EE0B9
:1085600045F6F6439C421FD013D345F6F7439C4291
:108570001FD0807830B3144B00221A7012E02723EA
:108580000093E523E522E9E726230093E022E12397
:10859000E4E727230093E422E52345F6F541FFF7BE
:1085A0006BFF002002B010BD26230093E222E123DE
:1085B000D4E727230093E622E523CFE7282300937F
:1085C0000123DFE70120EDE7EE210020014B1860D9
:1085D000704700BFF4210020024B186808B10368FF
:1085E00018477047F4210020024B1B680BB15B68F1
:1085F00018477047F4210020044B9988814204D029
:1086000098801B680BB1DB6818477047F421002085
:10861000044BD988814204D0D8801B680BB11B69F8
:1086200018477047F42100200C4B1B78821C5BB16B
:108630000B4B93F90030002B06DA421C1F23134426
:1086400000209A4202D170470623F8E712F8011B76
:108650000029F6D00130C0B2F3E700BF6916002050
:10866000D2250020F1B1114B1B789BB1104B93F92F
:108670000030002B0EDACA081F2A13D01044012341
:1086800001F0070103FA01F14378194214BF0120F8
:1086900000207047831C083013F8012B8A4203D056
:1086A0008342F9D1002070470120704769160020ED
:1086B000D225002030B54FF0FF33851C002215F87D
:1086C000014B8C420ED0B3F1FF3F02D1002C08BF0A
:1086D00013460132D4B2062C62B2F0D15A1C01D03A
:1086E0001844817030BD10B5831C0022083013F887
:1086F000014B8C4208BF03F8012C8342F7D110BD17
:10870000CB081F2B07D0184401F007030121994023
:108710004378194341707047CB081F2B08D0184489
:1087200001F0070101238B40417821EA03014170E8
:108730007047000010B40A4C247803460A4644B13E
:10874000084C94F90040002C03DA5DF8044BFFF765
:10875000D7BF114618465DF8044BFFF7ABBF00BF0B
:1087600069160020D225002010B40A4C2478034654
:108770000A4644B1084C94F90040002C03DA5DF835
:10878000044BFFF7C9BF114618465DF8044BFFF7CD
:10879000AABF00BF69160020D2250020084B1B7815
:1087A0004BB1084B93F90030002B04DA1F22002153
:1087B000013004F09BBF0023C0F80230C380704733
:1087C00069160020D2250020704708B5002001F06E
:1087D00047F9FBF771FE08BD704710B5FFF7F4FFCE
:1087E000FDF768FBFFF7F8FF0024E0B2FDF7B6FAEB
:1087F00018B901340B2CF8D110BD0120FCE708B5E5
:10880000012001F02DF9FBF7B6FE08BD024BD3E9BC
:10881000000180B2704700BFA0260020014BD3E9C1
:1088200000017047A0260020014BD3E900017047EA
:10883000A0260020024BD3E90023101A80B2704713
:10884000A0260020024BD3E90023101A704700BF76
:10885000A0260020024B00200021C3E90001704740
:10886000A0260020FFF7F6BF70B5294B88B001AAFB
:1088700003F11806144618685968154603C50833ED
:10888000B3422A46F7D11B882B8042F2A01223461E
:1088900013F8011B59B31078884226D01D4B1A7863
:1088A0006FF341021A701A4691688807FCD41A784F
:1088B000C2F34002002AFAD1597862F307115970C5
:1088C000597862F303015970997862F30301997042
:1088D0001A7842F002021A700E4B1A4699688907FC
:1088E000FCD413789B07FCD5FEE70132D0E70A4B96
:1088F0000A4A1A60BFF34F8F09490A4BCA6802F44B
:10890000E0621343CB60BFF34F8F00BFFDE700BFB2
:10891000F1DC000000200040FCFF012000CA9A3B6F
:1089200000ED00E00400FA050C490D4A4F230B60EE
:10893000136A43F0800313620A4BD3F8202101200D
:1089400060F30302C3F82021D3F8202142F0400253
:10895000C3F8202150230B60704700BFA8260020D9
:1089600000080040001C0040534A10B5512313601A
:10897000524B01200221C3F88400C3F88410042163
:10898000C3F8841093F8B01060F3030183F8B010BB
:1089900093F8B01060F3071183F8B01093F8B1109A
:1089A00060F3030183F8B11093F8C010014383F81A
:1089B000C01093F8C110014383F8C11093F8C2109E
:1089C000014383F8C2103E4B19880143198052209D
:1089D000196BCC0751D43A4B5320198811F001017F
:1089E0004DD1188861F30A201880997A022060F32B
:1089F00003019972324B5420196B890641D4997A3C
:108A000011F00F003FD1997A60F3061199722C4949
:108A100055200B6B9C0648D4CB7A2D2060F30503C0
:108A2000CB72274B5620196B490640D44FF080116A
:108A3000B3F848000968C1F3820464F30200A3F8A4
:108A40004800B3F84800C1F3022464F30610A3F809
:108A50004800B3F84800C1F3421161F30A20A3F8BB
:108A60004800198841F002011980154957200B6B05
:108A70009B071ED45823136010BD1060A8E7106038
:108A8000ABE71060B8E7987A00F00F000128BAD081
:108A9000987A00F00F000228B5D0987A00F00F0005
:108AA0000328B0D0997A0420AEE71060B1E71060D7
:108AB000B9E71060DBE700BFA82600200080004176
:108AC000001C00430B4B9A8860F304029A801A6BD7
:108AD0005007FCD41A7D42F002021A75054A13466B
:108AE000116B0905FCD493F82E20D207FBD5B3F8FF
:108AF00040007047001C004310B5514A51493223D1
:108B00001360514B0B600B680B62504B58696FF34D
:108B10004100586158690D2464F317505861586931
:108B200040F4004058615869052464F3CE20586130
:108B3000586940F4C060586158696FF3C7105861B4
:108B4000586940F004005861586940F002005861CB
:108B500033241869C00764D53D48086593F8300090
:108B60006FF3410083F83000384B3424D86B800712
:108B700059D4986B022464F347109863986B0724C8
:108B800064F31A409863586B2F2464F30C00586305
:108B90002E4B3520DC6BC4F38004002C45D193F8B8
:108BA000300064F3C71083F8300093F8300040F0D1
:108BB000020083F8300025483624C36B9B0736D467
:108BC00022483724036CDB0733D5204C3820236C34
:108BD0009B0730D5086DA36B646BC3F30A43C4F3E2
:108BE0000C0440080133B0FBF3F304FB03334B6088
:108BF000184B186A072464F3030018623924586874
:108C000040071AD44B680B620B6A13498B42134915
:108C100086BF1348B3FBF0F301230B603A231360C4
:108C200010BD146095E71460A0E71060B2E714600F
:108C3000C3E71460C6E71060C9E71460DFE700BF50
:108C4000A826002034260020006CDC020010004022
:108C50000024F400001C0040BFC62D003026002078
:108C6000C0C62D002C4B222270B51A602B4A23243B
:108C70005568C5F38B05002D43D100F10805072485
:108C800052F8256064F30306244C42F8256024263C
:108C90006268C2F38B02002A35D18000204A00F1BD
:108CA000804000F5E0505468B4FBF1F4E4B2448431
:108CB0001A4C25266168C1F38B0131BB54F825603D
:108CC00061F30C36154944F8256026264C68C4F338
:108CD0008B04E4B951F8254044F4807441F82540F0
:108CE0000E4C27266168C1F38B0191B95168408C05
:108CF000B1FBF0F142F825102821196052F8250047
:108D000070BD1C60B4E71E60C2E71E60D2E71E6043
:108D1000DCE71E60E6E700BFA8260020001C00403C
:108D200034260020204B214929221A602A204A6833
:108D3000C2F38B02002A2DD1486A62F303001B4A5A
:108D400048622B205168C1F38B0129BB516AC0F2E4
:108D50000101516215492C204A68C2F38B02EAB91D
:108D6000486A62F30C30114A48622D205168C1F301
:108D70008B01A9B9516A41F4807151620B492E20CF
:108D80004A68C2F38B026AB9094A116D51622F22F7
:108D90001A6070471860CAE71860D3E71860DBE70D
:108DA0001860E3E71860EBE7A8260020001C0040ED
:108DB000342600201D4B1E4A00210020C3E900017B
:108DC000302313601B4B19686FF341011960196957
:108DD000C1F340010029FAD1174B186861F3410033
:108DE00018601969C1F340010029FAD1114B998229
:108DF0001969C1F300110029FAD10F4B59611969A2
:108E0000C906FCD4196841F0020119600A490B69CE
:108E10009807FCD4074B196841F0020119601969E1
:108E20008907FCD431231360704700BFA0260020BF
:108E3000A8260020001400420038004030B5074B3F
:108E40009A7AD20609D5102205499A72D1E90023EF
:108E5000541C43F10005C1E9004530BD0014004237
:108E6000A026002038B5744C7449092302202360E1
:108E7000FFF7F8FEFFF756FF714AD36943F020036E
:108E8000D361704BD3F8F820022161F30302C3F8D9
:108E9000F820D3F8F82042F04002C3F8F8200D2360
:108EA0002360694B1A686FF341021A600E211A6938
:108EB000920700F1B1801A6842F001021A60624A1A
:108EC0000F211369DB0700F1A9805F4B10211A689D
:108ED000D50700F1A58005221A715B4B11211A6993
:108EE000500700F19F8040F2E7329A83564B1221DF
:108EF0001A69C2F38012002A40F09680197B012083
:108F000060F301011973D98841F48051D9804F4928
:108F10004FF40040C860597A41F010015972484935
:108F2000132323604B6943F480434B61454BD3F8D3
:108F3000A400022565F30300C3F8A400D3F8A4003D
:108F400040F04000C3F8A400486940F40040486184
:108F5000D3F8A41065F30301C3F8A410D3F8A41048
:108F600041F04001C3F8A4101A232360384B19685C
:108F700062F3410119601B211A69920756D41A68DD
:108F800042F001021A60324A1C211369DB074FD4F8
:108F90002F4B1D221D6815F001054BD119680222C7
:108FA00062F383011960D98841F02001D980D98802
:108FB00062F30201D9801E23236021491F2323600D
:108FC0008B6943F080038B611E4BD3F8AC1062F3C6
:108FD0000301C3F8AC10D3F8AC2042F04002C3F850
:108FE000AC201C4B0121C3F8D0111A6A61F38B220B
:108FF0001A621A6A65F309221A621A6A562161F323
:1090000006021A6220232360FFF7D4FEFFF78CFCD0
:1090100021232360284638BD216048E7216050E7BE
:10902000216054E721605AE7216061E72160A3E7EE
:109030002160AAE72260ADE7A826002040420F0089
:1090400000080040001C00400014004200E100E065
:109050000038004000E00041000000000000000077
:1090600040B1054B1B685843AFF30080AFF300805D
:109070000138FDD1704700BF30260020F8B5064604
:109080000F46FFF7D1FB841941EB0705FFF7CCFB37
:10909000A94208BFA042F9D3F8BD0000032813D8A5
:1090A000DFE800F002080D130A4A536943F48053C5
:1090B00053617047074A536943F40053F8E7054A80
:1090C000936943F4007393617047024A936943F4D0
:1090D0008063F8E700080040F8B51E4F1E4E0723D6
:1090E00056F820503B600446FFF7D8FF06441B4863
:1090F000327E203250F822306FF3030340F82230E2
:1091000050F8223043F0400340F822302B6843F0FF
:1091100001032B603846EB69DA07FCD42B68DB07C8
:10912000FCD40F4A136A5B08B3FBF1F3013BDBB2DB
:109130002B73136A297B0234013102EB84045B0830
:10914000B3FBF1F35365536D636008230360506D07
:10915000F8BD00BFA82600200CDD0000001C004068
:1091600034260020F8B5204F204E052356F8205015
:109170003B600446FFF792FF06441D48327E2032D2
:1091800050F822306FF3030340F8223050F82230B9
:1091900043F0400340F822302B6843F001032B607A
:1091A0003846EB69DA07FCD42B68DB07FCD4114A9C
:1091B000136A5B08B3FBF1F3E968013BDBB263F3CD
:1091C0000701E960136AE9680234C9B2013102EBB0
:1091D00084045B08B3FBF1F39365936D636006232E
:1091E0000360906DF8BD00BFA82600200CDD0000D4
:1091F000001C004034260020F8B5204F204E0323E9
:1092000056F820503B600446FFF748FF06441D48CF
:10921000327E203250F822306FF3030340F82230C0
:1092200050F8223043F0400340F822302B6843F0DE
:1092300001032B603846EB69DA07FCD42B68DB07A7
:10924000FCD4114A136A5B08B3FBF1F3E9680A3BEB
:10925000DBB263F30701E960136AE9680234C9B25B
:109260000A3102EB84045B08B3FBF1F3D365D36DE1
:10927000636004230360D06DF8BD00BFA826002002
:109280000CDD0000001C00403426002010B5074C07
:109290000748012368220021236004F027FAFFF722
:1092A0002BFCFFF7DFFD0223236010BDA826002062
:1092B0003426002009282DE9F04345D9632845D9F3
:1092C000B0F57A7F44D342F20F73984242D94E4BA5
:1092D000984241D94D4B984240D94D4B98423FD985
:1092E0004C4B98423ED94C4A904294BF08220922E6
:1092F0004A4CDFF83CC1DFF83CE115460A272E4610
:10930000012316F1FF362FD2B0FBF3F8834203FBA3
:109310001806434B2AD840464FF00069002841D038
:10932000C4F81890C3F800C0D3F80080B8F1000F5B
:1093300056D1C4F81490C3F800E0D3F80080B8F117
:10934000000F54D10138E9E70022D1E70122CFE72D
:109350000222CDE70322CBE70422C9E70522C7E7B3
:109360000622C5E70722C3E77B43CAE74FF0006048
:10937000A0612C481860186830BB4FF00060606135
:1093800028481860186810BB4FF00060A06125489D
:1093900018601868F0B94FF00060606121481860EB
:1093A0001868D0B920481860186838BB013A52B222
:1093B0003046561C05F1FF35A1D119B11B4A1A6080
:1093C0001A68F2B9BDE8F08318680138D2E7186866
:1093D0000138D6E718680138DAE718680138DEE79F
:1093E000D3F8008008F1FF38C3F800809CE7D3F879
:1093F000008008F1FF38C3F800809EE71868013844
:10940000D1E71A68013ADAE79F8601003F420F0070
:109410007F969800FFE0F505FFC99A3B0080004168
:109420000022002090D0030060E31600808D5B00D6
:1094300040420F0020A1070008B5034C206801211D
:10944000FFF738FFFAE700BFA8260020214B0021D4
:109450001960214B4FF40002C3F88420C3F8982010
:1094600093F8D72042F0020283F8D72093F8D72050
:1094700042F0040283F8D72093F8D72042F001028B
:1094800083F8D72093F8BB2061F3071283F8BB2041
:10949000124A536943F480635361114B1A7842F0C6
:1094A00001021A705A68D207FCD480229A611A61AC
:1094B000DA6942F00052DA611A7842F002021A7058
:1094C000074A53689B07FCD4064B4FF400221A60EE
:1094D000704700BFA826002000800041000800401F
:1094E0000028004000E100E01B4B4FF40022C3F8CD
:1094F0008020BFF34F8FBFF36F8F184B1A786FF335
:1095000041021A705A68C2F34002002AFAD1144B81
:109510004FF40001C3F88410C3F8941093F8D710E7
:1095200062F3410183F8D71093F8D71062F38201F8
:1095300083F8D71093F8D71062F3000183F8D7109F
:1095400093F8BB1062F3071183F8BB10054B596900
:1095500062F38A215961704700E100E00028004071
:10956000008000410008004010B5294C29495923CA
:1095700000202360FFF7F6FD274B93F834200221EB
:1095800061F3030283F8342093F8342061F3071267
:1095900083F8342093F8482042F0010283F84820F1
:1095A00093F8492042F0010283F849201B4B1A68C6
:1095B000052161F384021A601A686FF319621A6058
:1095C0001A6842F080021A601A6842F002021A60B9
:1095D0005A202246D969890713D4598B012060F398
:1095E000051159830D495B20CB695B070BD40B49EF
:1095F0005C204B8BC3F30113012B06D15D23136059
:1096000010BD1060E6E71060EEE71060F1E700BF04
:10961000A8260020A0860100008000410030004004
:10962000084B5A6A60F30A025A62DA695107FCD49D
:109630001A7ED207FCD5034A538B5B07FCD401206A
:10964000704700BF00300040104B5A8B110607D402
:109650001A7ED20704D45A8BC2F30112012A14D005
:109660005A6842F440325A60084A1346D1694807A2
:10967000FCD45A8B1106FCD41A7ED207FCD4034AC0
:10968000538BC3F30113012BFAD170470030004014
:1096900038B50D461446AAB1FFF7C2FF0A4B691E42
:1096A0001A4611F8010F9862107EC507FCD5508B41
:1096B0004007FCD4013CA4B2002CF2D1FFF7C4FF58
:1096C000012038BD1046FCE70030004010B52F4C9B
:1096D0002F495E2301202360FFF78EFD2D4B93F869
:1096E0003820022161F3030283F8382093F83820F0
:1096F00061F3071283F8382093F8502042F00102FA
:1097000083F8502093F8512042F0010283F8512051
:10971000214B1A68052161F384021A601A6801213D
:1097200061F319621A601A6842F080021A605A687E
:1097300042F480725A60194A4FF4802151609A7D38
:1097400042F080029A751A6842F002021A605F20A5
:109750002246D969890713D4598B012060F305117A
:1097600059830D496020CB695B070BD40A496120FE
:109770004B8BC3F30113012B06D16223136010BD81
:109780001060E6E71060EEE71060F1E7A826002021
:10979000A0D90800008000410034004000E100E052
:1097A000084B5A6A60F30A025A62DA695107FCD41C
:1097B0001A7ED207FCD5034A538B5B07FCD40120E9
:1097C000704700BF00340040104B5A8B110607D47D
:1097D0001A7ED20704D45A8BC2F30112012A14D084
:1097E0005A6842F440325A60084A1346D169480721
:1097F000FCD45A8B1106FCD41A7ED207FCD4034A3F
:10980000538BC3F30113012BFAD17047003400408E
:1098100038B50D461446AAB1FFF7C2FF0A4B691EC0
:109820001A4611F8010F9862107EC507FCD5508BBF
:109830004007FCD4013CA4B2002CF2D1FFF7C4FFD6
:10984000012038BD1046FCE70034004013B5084B3A
:10985000084C1B88ADF8043040F2E1135843022253
:10986000002301A9205CFFF7D3FF02B010BD00BFA9
:109870002ADD0000E026002013B5FD238DF804301A
:1098800040F2E1135843054C8DF8051000230222E5
:1098900001A9205CFFF7BCFF02B010BDE02600204C
:1098A00013B50A438DF80520084A094C12788DF843
:1098B000062040F2E11250430023032201A9205C5C
:1098C0008DF80430FFF7A4FF02B010BD082C002073
:1098D000E026002013B50F238DF8043040F2E11389
:1098E0005843064C8DF805108DF8062000230322FE
:1098F00001A9205CFFF78CFF02B010BDE02600201C
:1099000010B51F4C1F4A65232360A52313701E4A00
:1099100013701E4A00201370FFF798FF03210020E8
:10992000FFF7AAFF002101220846FFF7B9FF012037
:10993000FFF78CFF03210120FFF79EFF0122104655
:109940000021FFF7ADFF0020FFF780FF032100207B
:10995000FFF792FF052211460020FFF7BBFF012011
:10996000FFF774FF03210120FFF786FF0522114650
:109970000120FFF7AFFF66232360012010BD00BF69
:10998000A8260020082C0020092C0020072C0020ED
:109990002E4967230B602E4B1A886FF341021A8001
:1099A0001A889207FCD41A8842F001021A80284BC8
:1099B0001A8812F00102FBD12648586326489863A2
:1099C000188840F470601880186C62F34100204AD7
:1099D00018641346106C8007FCD4106C40F0010032
:1099E00010641A6C12F00102FBD1186C62F31D7046
:1099F0001864186C62F31B6018641A6C022060F320
:109A000015521A641A6C072060F30E221A641A6C3D
:109A100042F040021A64114A4FF00040106093F87F
:109A20004D2042F0020283F84D2093F84D2042F081
:109A3000010283F84D201A8842F002021A80044A7B
:109A400013889B07FCD568230B607047A82600206D
:109A500000A00041D0260020B026002000E100E058
:109A600010B5084C6923421E2360074B50425041F9
:109A70001A7860F304121A7000F0DAFD6A2323608A
:109A800010BD00BFA82600200A2C002010B50C4CE9
:109A9000632300202360FFF7E3FF01200021FFF78D
:109AA000EDFA084B1A786FF345121A7000F0C0FDFA
:109AB00001200021FFF7E2FA64232360012010BD9A
:109AC000A82600200A2C0020104B1A886FF34F3272
:109AD0001A801A886FF30C321A801A886FF3CB221F
